{
	"src/Vault.sol": {
		"Vault": {
			"abi": [
				{
					"inputs": [
						{
							"internalType": "address",
							"name": "_fundWallet",
							"type": "address"
						}
					],
					"stateMutability": "nonpayable",
					"type": "constructor"
				},
				{
					"inputs": [],
					"name": "AmountMustBeGreaterThanZero",
					"type": "error"
				},
				{
					"inputs": [],
					"name": "ContractLocked",
					"type": "error"
				},
				{
					"inputs": [
						{
							"internalType": "uint256",
							"name": "requested",
							"type": "uint256"
						},
						{
							"internalType": "uint256",
							"name": "available",
							"type": "uint256"
						}
					],
					"name": "InsufficientBalance",
					"type": "error"
				},
				{
					"inputs": [
						{
							"internalType": "uint256",
							"name": "provided",
							"type": "uint256"
						},
						{
							"internalType": "uint256",
							"name": "required",
							"type": "uint256"
						}
					],
					"name": "InsufficientFundsReturned",
					"type": "error"
				},
				{
					"inputs": [
						{
							"internalType": "uint256",
							"name": "provided",
							"type": "uint256"
						},
						{
							"internalType": "uint256",
							"name": "required",
							"type": "uint256"
						}
					],
					"name": "InsufficientStake",
					"type": "error"
				},
				{
					"inputs": [],
					"name": "NoActiveStake",
					"type": "error"
				},
				{
					"inputs": [],
					"name": "NoRewardToClaim",
					"type": "error"
				},
				{
					"inputs": [],
					"name": "NoRewardsToAllocate",
					"type": "error"
				},
				{
					"inputs": [],
					"name": "NoStakeToExit",
					"type": "error"
				},
				{
					"inputs": [],
					"name": "NotWithdrawable",
					"type": "error"
				},
				{
					"inputs": [
						{
							"internalType": "address",
							"name": "owner",
							"type": "address"
						}
					],
					"name": "OwnableInvalidOwner",
					"type": "error"
				},
				{
					"inputs": [
						{
							"internalType": "address",
							"name": "account",
							"type": "address"
						}
					],
					"name": "OwnableUnauthorizedAccount",
					"type": "error"
				},
				{
					"inputs": [],
					"name": "ReentrancyGuardReentrantCall",
					"type": "error"
				},
				{
					"inputs": [],
					"name": "RewardsAlreadyAllocated",
					"type": "error"
				},
				{
					"inputs": [],
					"name": "TransferFailed",
					"type": "error"
				},
				{
					"inputs": [],
					"name": "UnClaimableRewards",
					"type": "error"
				},
				{
					"inputs": [
						{
							"internalType": "string",
							"name": "",
							"type": "string"
						}
					],
					"name": "WrongPhase",
					"type": "error"
				},
				{
					"anonymous": false,
					"inputs": [
						{
							"indexed": true,
							"internalType": "uint256",
							"name": "epochNumber",
							"type": "uint256"
						},
						{
							"indexed": false,
							"internalType": "uint256",
							"name": "timestamp",
							"type": "uint256"
						}
					],
					"name": "EpochOpened",
					"type": "event"
				},
				{
					"anonymous": false,
					"inputs": [
						{
							"indexed": true,
							"internalType": "uint256",
							"name": "epochNumber",
							"type": "uint256"
						},
						{
							"indexed": false,
							"internalType": "uint256",
							"name": "timestamp",
							"type": "uint256"
						},
						{
							"indexed": false,
							"internalType": "uint256",
							"name": "totalValueLocked",
							"type": "uint256"
						}
					],
					"name": "EpochRunning",
					"type": "event"
				},
				{
					"anonymous": false,
					"inputs": [
						{
							"indexed": true,
							"internalType": "uint256",
							"name": "epochNumber",
							"type": "uint256"
						},
						{
							"indexed": false,
							"internalType": "uint256",
							"name": "timestamp",
							"type": "uint256"
						}
					],
					"name": "EpochTerminated",
					"type": "event"
				},
				{
					"anonymous": false,
					"inputs": [
						{
							"indexed": false,
							"internalType": "address",
							"name": "oldFundWallet",
							"type": "address"
						},
						{
							"indexed": false,
							"internalType": "address",
							"name": "newFundWallet",
							"type": "address"
						}
					],
					"name": "FundWalletChanged",
					"type": "event"
				},
				{
					"anonymous": false,
					"inputs": [
						{
							"indexed": false,
							"internalType": "uint256",
							"name": "amount",
							"type": "uint256"
						},
						{
							"indexed": true,
							"internalType": "uint256",
							"name": "epochId",
							"type": "uint256"
						}
					],
					"name": "FundsTransferredToFundWallet",
					"type": "event"
				},
				{
					"anonymous": false,
					"inputs": [
						{
							"indexed": false,
							"internalType": "bool",
							"name": "locked",
							"type": "bool"
						}
					],
					"name": "LockingContract",
					"type": "event"
				},
				{
					"anonymous": false,
					"inputs": [
						{
							"indexed": false,
							"internalType": "uint256",
							"name": "oldMinimumStake",
							"type": "uint256"
						},
						{
							"indexed": false,
							"internalType": "uint256",
							"name": "newMinimumStake",
							"type": "uint256"
						}
					],
					"name": "MinimumStakeChanged",
					"type": "event"
				},
				{
					"anonymous": false,
					"inputs": [
						{
							"indexed": true,
							"internalType": "address",
							"name": "previousOwner",
							"type": "address"
						},
						{
							"indexed": true,
							"internalType": "address",
							"name": "newOwner",
							"type": "address"
						}
					],
					"name": "OwnershipTransferred",
					"type": "event"
				},
				{
					"anonymous": false,
					"inputs": [
						{
							"indexed": true,
							"internalType": "uint256",
							"name": "epochNumber",
							"type": "uint256"
						},
						{
							"indexed": false,
							"internalType": "uint256",
							"name": "rewardAmount",
							"type": "uint256"
						}
					],
					"name": "RewardsAllocated",
					"type": "event"
				},
				{
					"anonymous": false,
					"inputs": [
						{
							"indexed": false,
							"internalType": "bool",
							"name": "claimable",
							"type": "bool"
						}
					],
					"name": "RewardsClaimabilityChanged",
					"type": "event"
				},
				{
					"anonymous": false,
					"inputs": [
						{
							"indexed": true,
							"internalType": "address",
							"name": "user",
							"type": "address"
						},
						{
							"indexed": false,
							"internalType": "uint256",
							"name": "amount",
							"type": "uint256"
						},
						{
							"indexed": false,
							"internalType": "uint256",
							"name": "epochNumber",
							"type": "uint256"
						}
					],
					"name": "UserDeposit",
					"type": "event"
				},
				{
					"anonymous": false,
					"inputs": [
						{
							"indexed": true,
							"internalType": "address",
							"name": "user",
							"type": "address"
						},
						{
							"indexed": false,
							"internalType": "uint256",
							"name": "amount",
							"type": "uint256"
						},
						{
							"indexed": false,
							"internalType": "uint256",
							"name": "epochNumber",
							"type": "uint256"
						}
					],
					"name": "UserRewardClaim",
					"type": "event"
				},
				{
					"anonymous": false,
					"inputs": [
						{
							"indexed": true,
							"internalType": "address",
							"name": "user",
							"type": "address"
						},
						{
							"indexed": false,
							"internalType": "uint256",
							"name": "amount",
							"type": "uint256"
						},
						{
							"indexed": false,
							"internalType": "uint256",
							"name": "epochNumber",
							"type": "uint256"
						}
					],
					"name": "UserWithdraw",
					"type": "event"
				},
				{
					"inputs": [],
					"name": "allocateRewards",
					"outputs": [],
					"stateMutability": "payable",
					"type": "function"
				},
				{
					"inputs": [],
					"name": "claimRewards",
					"outputs": [],
					"stateMutability": "nonpayable",
					"type": "function"
				},
				{
					"inputs": [],
					"name": "claimableRewards",
					"outputs": [
						{
							"internalType": "bool",
							"name": "",
							"type": "bool"
						}
					],
					"stateMutability": "view",
					"type": "function"
				},
				{
					"inputs": [],
					"name": "currentEpochId",
					"outputs": [
						{
							"internalType": "uint256",
							"name": "",
							"type": "uint256"
						}
					],
					"stateMutability": "view",
					"type": "function"
				},
				{
					"inputs": [],
					"name": "currentEpochStatus",
					"outputs": [
						{
							"internalType": "enum Vault.EpochStatus",
							"name": "",
							"type": "uint8"
						}
					],
					"stateMutability": "view",
					"type": "function"
				},
				{
					"inputs": [],
					"name": "enter",
					"outputs": [],
					"stateMutability": "payable",
					"type": "function"
				},
				{
					"inputs": [
						{
							"internalType": "uint256",
							"name": "",
							"type": "uint256"
						}
					],
					"name": "epochs",
					"outputs": [
						{
							"internalType": "uint256",
							"name": "totalValueLocked",
							"type": "uint256"
						},
						{
							"internalType": "uint256",
							"name": "totalEpochRewards",
							"type": "uint256"
						}
					],
					"stateMutability": "view",
					"type": "function"
				},
				{
					"inputs": [
						{
							"internalType": "uint256",
							"name": "_amount",
							"type": "uint256"
						}
					],
					"name": "exit",
					"outputs": [],
					"stateMutability": "nonpayable",
					"type": "function"
				},
				{
					"inputs": [],
					"name": "fundWallet",
					"outputs": [
						{
							"internalType": "address",
							"name": "",
							"type": "address"
						}
					],
					"stateMutability": "view",
					"type": "function"
				},
				{
					"inputs": [],
					"name": "getCurrentEpoch",
					"outputs": [
						{
							"components": [
								{
									"internalType": "uint256",
									"name": "totalValueLocked",
									"type": "uint256"
								},
								{
									"internalType": "uint256",
									"name": "totalEpochRewards",
									"type": "uint256"
								}
							],
							"internalType": "struct Vault.Epoch",
							"name": "",
							"type": "tuple"
						}
					],
					"stateMutability": "view",
					"type": "function"
				},
				{
					"inputs": [],
					"name": "getEpochCount",
					"outputs": [
						{
							"internalType": "uint256",
							"name": "",
							"type": "uint256"
						}
					],
					"stateMutability": "view",
					"type": "function"
				},
				{
					"inputs": [
						{
							"internalType": "address",
							"name": "_user",
							"type": "address"
						}
					],
					"name": "hasClaimableRewards",
					"outputs": [
						{
							"internalType": "bool",
							"name": "",
							"type": "bool"
						}
					],
					"stateMutability": "view",
					"type": "function"
				},
				{
					"inputs": [],
					"name": "lockFundsAndRunCurrentEpoch",
					"outputs": [],
					"stateMutability": "nonpayable",
					"type": "function"
				},
				{
					"inputs": [
						{
							"internalType": "bool",
							"name": "_locked",
							"type": "bool"
						}
					],
					"name": "lockOrUnlockContract",
					"outputs": [],
					"stateMutability": "nonpayable",
					"type": "function"
				},
				{
					"inputs": [],
					"name": "mininmumStake",
					"outputs": [
						{
							"internalType": "uint256",
							"name": "",
							"type": "uint256"
						}
					],
					"stateMutability": "view",
					"type": "function"
				},
				{
					"inputs": [],
					"name": "owner",
					"outputs": [
						{
							"internalType": "address",
							"name": "",
							"type": "address"
						}
					],
					"stateMutability": "view",
					"type": "function"
				},
				{
					"inputs": [],
					"name": "renounceOwnership",
					"outputs": [],
					"stateMutability": "nonpayable",
					"type": "function"
				},
				{
					"inputs": [
						{
							"internalType": "address",
							"name": "_fundWallet",
							"type": "address"
						}
					],
					"name": "setFundWallet",
					"outputs": [],
					"stateMutability": "nonpayable",
					"type": "function"
				},
				{
					"inputs": [
						{
							"internalType": "uint256",
							"name": "_mininmumStake",
							"type": "uint256"
						}
					],
					"name": "setMinimumStake",
					"outputs": [],
					"stateMutability": "nonpayable",
					"type": "function"
				},
				{
					"inputs": [],
					"name": "terminateCurrentAndOpenNextEpoch",
					"outputs": [],
					"stateMutability": "payable",
					"type": "function"
				},
				{
					"inputs": [
						{
							"internalType": "address",
							"name": "newOwner",
							"type": "address"
						}
					],
					"name": "transferOwnership",
					"outputs": [],
					"stateMutability": "nonpayable",
					"type": "function"
				},
				{
					"inputs": [
						{
							"internalType": "address",
							"name": "",
							"type": "address"
						}
					],
					"name": "userStakes",
					"outputs": [
						{
							"internalType": "uint256",
							"name": "amount",
							"type": "uint256"
						},
						{
							"internalType": "uint256",
							"name": "lastEpochClaimedAt",
							"type": "uint256"
						}
					],
					"stateMutability": "view",
					"type": "function"
				}
			],
			"devdoc": {
				"author": "torof",
				"custom:warning": "claiming entails the use of a loop, if too many epochs to claim, it may fail                 the gas cost of the call and the success or failure should be estimated before calling                 a security function is present to break down claiming in chunks.",
				"details": "The contract allows users to stake funds, which are locked for a period of time (an epoch).      The contract has a lifecycle that includes opening, running, and terminating epochs, distributing      rewards, and claiming rewards.      Adding and withdrawing funds is possible only when the epoch status is \"Open\".      Claiming rewards is always possible EXCEPT during the timeframe between when an epoch      starts running and when rewards are allocated for that epoch.",
				"errors": {
					"OwnableInvalidOwner(address)": [
						{
							"details": "The owner is not a valid owner account. (eg. `address(0)`)"
						}
					],
					"OwnableUnauthorizedAccount(address)": [
						{
							"details": "The caller account is not authorized to perform an operation."
						}
					],
					"ReentrancyGuardReentrantCall()": [
						{
							"details": "Unauthorized reentrant call."
						}
					]
				},
				"kind": "dev",
				"methods": {
					"allocateRewards()": {
						"details": "This function can only be called by the contract owner when the epoch is Running"
					},
					"claimRewards()": {
						"details": "This function can be called at any time, except when rewards are not claimable"
					},
					"constructor": {
						"params": {
							"_fundWallet": "The address where funds will be transferred during epoch execution"
						}
					},
					"enter()": {
						"details": "This function can only be called when the epoch status is Open"
					},
					"exit(uint256)": {
						"details": "This function can only be called when the epoch status is Open",
						"params": {
							"_amount": "The amount of ETH to unstake"
						}
					},
					"getCurrentEpoch()": {
						"returns": {
							"_0": "Epoch struct containing the current epoch's data"
						}
					},
					"getEpochCount()": {
						"returns": {
							"_0": "uint256 representing the total number of epochs"
						}
					},
					"hasClaimableRewards(address)": {
						"params": {
							"_user": "The address of the user to check"
						},
						"returns": {
							"_0": "bool indicating whether the user has claimable rewards"
						}
					},
					"lockFundsAndRunCurrentEpoch()": {
						"details": "This function can only be called by the contract owner when the epoch is Open"
					},
					"owner()": {
						"details": "Returns the address of the current owner."
					},
					"renounceOwnership()": {
						"details": "Leaves the contract without owner. It will not be possible to call `onlyOwner` functions. Can only be called by the current owner. NOTE: Renouncing ownership will leave the contract without an owner, thereby disabling any functionality that is only available to the owner."
					},
					"setFundWallet(address)": {
						"details": "This function can only be called by the contract owner",
						"params": {
							"_fundWallet": "The new fund wallet address"
						}
					},
					"setMinimumStake(uint256)": {
						"details": "This function can only be called by the contract owner",
						"params": {
							"_mininmumStake": "The new minimum stake amount"
						}
					},
					"terminateCurrentAndOpenNextEpoch()": {
						"details": "This function can only be called by the contract owner"
					},
					"transferOwnership(address)": {
						"details": "Transfers ownership of the contract to a new account (`newOwner`). Can only be called by the current owner."
					}
				},
				"title": "Ledgity ETH Vault Contract",
				"version": 1
			},
			"evm": {
				"assembly": "    /* \"src/Vault.sol\":1357:13588  contract Vault is Ownable(msg.sender), ReentrancyGuard {... */\n  mstore(0x40, 0x80)\n    /* \"src/Vault.sol\":4396:4870  constructor(address _fundWallet) {... */\n  callvalue\n  dup1\n  iszero\n  tag_1\n  jumpi\n  0x00\n  dup1\n  revert\ntag_1:\n  pop\n  mload(0x40)\n  sub(codesize, bytecodeSize)\n  dup1\n  bytecodeSize\n  dup4\n  codecopy\n  dup2\n  dup2\n  add\n  0x40\n  mstore\n  dup2\n  add\n  swap1\n  tag_2\n  swap2\n  swap1\n  tag_3\n  jump\t// in\ntag_2:\n    /* \"src/Vault.sol\":1383:1393  msg.sender */\n  caller\n    /* \"lib/openzeppelin-contracts/contracts/access/Ownable.sol\":1297:1298  0 */\n  0x00\n    /* \"lib/openzeppelin-contracts/contracts/access/Ownable.sol\":1273:1299  initialOwner == address(0) */\n  0xffffffffffffffffffffffffffffffffffffffff\n  and\n    /* \"lib/openzeppelin-contracts/contracts/access/Ownable.sol\":1273:1285  initialOwner */\n  dup2\n    /* \"lib/openzeppelin-contracts/contracts/access/Ownable.sol\":1273:1299  initialOwner == address(0) */\n  0xffffffffffffffffffffffffffffffffffffffff\n  and\n  sub\n    /* \"lib/openzeppelin-contracts/contracts/access/Ownable.sol\":1269:1364  if (initialOwner == address(0)) {... */\n  tag_8\n  jumpi\n    /* \"lib/openzeppelin-contracts/contracts/access/Ownable.sol\":1350:1351  0 */\n  0x00\n    /* \"lib/openzeppelin-contracts/contracts/access/Ownable.sol\":1322:1353  OwnableInvalidOwner(address(0)) */\n  mload(0x40)\n  0x1e4fbdf700000000000000000000000000000000000000000000000000000000\n  dup2\n  mstore\n  0x04\n  add\n  tag_9\n  swap2\n  swap1\n  tag_10\n  jump\t// in\ntag_9:\n  mload(0x40)\n  dup1\n  swap2\n  sub\n  swap1\n  revert\n    /* \"lib/openzeppelin-contracts/contracts/access/Ownable.sol\":1269:1364  if (initialOwner == address(0)) {... */\ntag_8:\n    /* \"lib/openzeppelin-contracts/contracts/access/Ownable.sol\":1373:1405  _transferOwnership(initialOwner) */\n  tag_11\n    /* \"lib/openzeppelin-contracts/contracts/access/Ownable.sol\":1392:1404  initialOwner */\n  dup2\n    /* \"lib/openzeppelin-contracts/contracts/access/Ownable.sol\":1373:1391  _transferOwnership */\n  shl(0x20, tag_12)\n    /* \"lib/openzeppelin-contracts/contracts/access/Ownable.sol\":1373:1405  _transferOwnership(initialOwner) */\n  0x20\n  shr\n  jump\t// in\ntag_11:\n    /* \"lib/openzeppelin-contracts/contracts/access/Ownable.sol\":1225:1412  constructor(address initialOwner) {... */\n  pop\n    /* \"lib/openzeppelin-contracts/contracts/utils/ReentrancyGuard.sol\":1713:1714  1 */\n  0x01\n    /* \"lib/openzeppelin-contracts/contracts/utils/ReentrancyGuard.sol\":1917:1924  _status */\n  dup1\n    /* \"lib/openzeppelin-contracts/contracts/utils/ReentrancyGuard.sol\":1917:1938  _status = NOT_ENTERED */\n  dup2\n  swap1\n  sstore\n  pop\n    /* \"src/Vault.sol\":4516:4522  epochs */\n  0x03\n    /* \"src/Vault.sol\":4528:4539  Epoch(0, 0) */\n  mload(0x40)\n  dup1\n  0x40\n  add\n  0x40\n  mstore\n  dup1\n    /* \"src/Vault.sol\":4534:4535  0 */\n  0x00\n    /* \"src/Vault.sol\":4528:4539  Epoch(0, 0) */\n  dup2\n  mstore\n  0x20\n  add\n    /* \"src/Vault.sol\":4537:4538  0 */\n  0x00\n    /* \"src/Vault.sol\":4528:4539  Epoch(0, 0) */\n  dup2\n  mstore\n  pop\n    /* \"src/Vault.sol\":4516:4540  epochs.push(Epoch(0, 0)) */\n  swap1\n  dup1\n  0x01\n  dup2\n  sload\n  add\n  dup1\n  dup3\n  sstore\n  dup1\n  swap2\n  pop\n  pop\n  0x01\n  swap1\n  sub\n  swap1\n  0x00\n  mstore\n  keccak256(0x00, 0x20)\n  swap1\n  0x02\n  mul\n  add\n  0x00\n  swap1\n  swap2\n  swap1\n  swap2\n  swap1\n  swap2\n  pop\n  0x00\n  dup3\n  add\n  mload\n  dup2\n  0x00\n  add\n  sstore\n  0x20\n  dup3\n  add\n  mload\n  dup2\n  0x01\n  add\n  sstore\n  pop\n  pop\n    /* \"src/Vault.sol\":4607:4613  epochs */\n  0x03\n    /* \"src/Vault.sol\":4619:4630  Epoch(0, 0) */\n  mload(0x40)\n  dup1\n  0x40\n  add\n  0x40\n  mstore\n  dup1\n    /* \"src/Vault.sol\":4625:4626  0 */\n  0x00\n    /* \"src/Vault.sol\":4619:4630  Epoch(0, 0) */\n  dup2\n  mstore\n  0x20\n  add\n    /* \"src/Vault.sol\":4628:4629  0 */\n  0x00\n    /* \"src/Vault.sol\":4619:4630  Epoch(0, 0) */\n  dup2\n  mstore\n  pop\n    /* \"src/Vault.sol\":4607:4631  epochs.push(Epoch(0, 0)) */\n  swap1\n  dup1\n  0x01\n  dup2\n  sload\n  add\n  dup1\n  dup3\n  sstore\n  dup1\n  swap2\n  pop\n  pop\n  0x01\n  swap1\n  sub\n  swap1\n  0x00\n  mstore\n  keccak256(0x00, 0x20)\n  swap1\n  0x02\n  mul\n  add\n  0x00\n  swap1\n  swap2\n  swap1\n  swap2\n  swap1\n  swap2\n  pop\n  0x00\n  dup3\n  add\n  mload\n  dup2\n  0x00\n  add\n  sstore\n  0x20\n  dup3\n  add\n  mload\n  dup2\n  0x01\n  add\n  sstore\n  pop\n  pop\n    /* \"src/Vault.sol\":4655:4666  _fundWallet */\n  dup1\n    /* \"src/Vault.sol\":4642:4652  fundWallet */\n  0x02\n  0x01\n    /* \"src/Vault.sol\":4642:4666  fundWallet = _fundWallet */\n  0x0100\n  exp\n  dup2\n  sload\n  dup2\n  0xffffffffffffffffffffffffffffffffffffffff\n  mul\n  not\n  and\n  swap1\n  dup4\n  0xffffffffffffffffffffffffffffffffffffffff\n  and\n  mul\n  or\n  swap1\n  sstore\n  pop\n    /* \"src/Vault.sol\":4697:4713  EpochStatus.Open */\n  0x00\n    /* \"src/Vault.sol\":4676:4694  currentEpochStatus */\n  0x02\n  0x00\n    /* \"src/Vault.sol\":4676:4713  currentEpochStatus = EpochStatus.Open */\n  0x0100\n  exp\n  dup2\n  sload\n  dup2\n  0xff\n  mul\n  not\n  and\n  swap1\n  dup4\n  0x01\n  dup2\n  gt\n  iszero\n  tag_17\n  jumpi\n  tag_18\n  tag_19\n  jump\t// in\ntag_18:\ntag_17:\n  mul\n  or\n  swap1\n  sstore\n  pop\n    /* \"src/Vault.sol\":4740:4741  1 */\n  0x01\n    /* \"src/Vault.sol\":4723:4737  currentEpochId */\n  0x04\n    /* \"src/Vault.sol\":4723:4741  currentEpochId = 1 */\n  dup2\n  swap1\n  sstore\n  pop\n    /* \"src/Vault.sol\":4790:4803  5 ether / 100 */\n  0xb1a2bc2ec50000\n    /* \"src/Vault.sol\":4774:4787  mininmumStake */\n  0x06\n    /* \"src/Vault.sol\":4774:4803  mininmumStake = 5 ether / 100 */\n  dup2\n  swap1\n  sstore\n  pop\n    /* \"src/Vault.sol\":4831:4845  currentEpochId */\n  sload(0x04)\n    /* \"src/Vault.sol\":4819:4863  EpochOpened(currentEpochId, block.timestamp) */\n  0x3011a2cb7316f75847dafe7f596d9728f2bcb38e662b785f36bc7ea76e4e7142\n    /* \"src/Vault.sol\":4847:4862  block.timestamp */\n  timestamp\n    /* \"src/Vault.sol\":4819:4863  EpochOpened(currentEpochId, block.timestamp) */\n  mload(0x40)\n  tag_20\n  swap2\n  swap1\n  tag_21\n  jump\t// in\ntag_20:\n  mload(0x40)\n  dup1\n  swap2\n  sub\n  swap1\n  log2\n    /* \"src/Vault.sol\":4396:4870  constructor(address _fundWallet) {... */\n  pop\n    /* \"src/Vault.sol\":1357:13588  contract Vault is Ownable(msg.sender), ReentrancyGuard {... */\n  jump(tag_22)\n    /* \"lib/openzeppelin-contracts/contracts/access/Ownable.sol\":2912:3099  function _transferOwnership(address newOwner) internal virtual {... */\ntag_12:\n    /* \"lib/openzeppelin-contracts/contracts/access/Ownable.sol\":2985:3001  address oldOwner */\n  0x00\n    /* \"lib/openzeppelin-contracts/contracts/access/Ownable.sol\":3004:3010  _owner */\n  dup1\n  0x00\n  swap1\n  sload\n  swap1\n  0x0100\n  exp\n  swap1\n  div\n  0xffffffffffffffffffffffffffffffffffffffff\n  and\n    /* \"lib/openzeppelin-contracts/contracts/access/Ownable.sol\":2985:3010  address oldOwner = _owner */\n  swap1\n  pop\n    /* \"lib/openzeppelin-contracts/contracts/access/Ownable.sol\":3029:3037  newOwner */\n  dup2\n    /* \"lib/openzeppelin-contracts/contracts/access/Ownable.sol\":3020:3026  _owner */\n  0x00\n  dup1\n    /* \"lib/openzeppelin-contracts/contracts/access/Ownable.sol\":3020:3037  _owner = newOwner */\n  0x0100\n  exp\n  dup2\n  sload\n  dup2\n  0xffffffffffffffffffffffffffffffffffffffff\n  mul\n  not\n  and\n  swap1\n  dup4\n  0xffffffffffffffffffffffffffffffffffffffff\n  and\n  mul\n  or\n  swap1\n  sstore\n  pop\n    /* \"lib/openzeppelin-contracts/contracts/access/Ownable.sol\":3083:3091  newOwner */\n  dup2\n    /* \"lib/openzeppelin-contracts/contracts/access/Ownable.sol\":3052:3092  OwnershipTransferred(oldOwner, newOwner) */\n  0xffffffffffffffffffffffffffffffffffffffff\n  and\n    /* \"lib/openzeppelin-contracts/contracts/access/Ownable.sol\":3073:3081  oldOwner */\n  dup2\n    /* \"lib/openzeppelin-contracts/contracts/access/Ownable.sol\":3052:3092  OwnershipTransferred(oldOwner, newOwner) */\n  0xffffffffffffffffffffffffffffffffffffffff\n  and\n  0x8be0079c531659141344cd1fd0a4f28419497f9722a3daafe3b4186f6b6457e0\n  mload(0x40)\n  mload(0x40)\n  dup1\n  swap2\n  sub\n  swap1\n  log3\n    /* \"lib/openzeppelin-contracts/contracts/access/Ownable.sol\":2975:3099  {... */\n  pop\n    /* \"lib/openzeppelin-contracts/contracts/access/Ownable.sol\":2912:3099  function _transferOwnership(address newOwner) internal virtual {... */\n  pop\n  jump\t// out\n    /* \"#utility.yul\":88:205   */\ntag_25:\n    /* \"#utility.yul\":197:198   */\n  0x00\n    /* \"#utility.yul\":194:195   */\n  dup1\n    /* \"#utility.yul\":187:199   */\n  revert\n    /* \"#utility.yul\":334:460   */\ntag_27:\n    /* \"#utility.yul\":371:378   */\n  0x00\n    /* \"#utility.yul\":411:453   */\n  0xffffffffffffffffffffffffffffffffffffffff\n    /* \"#utility.yul\":404:409   */\n  dup3\n    /* \"#utility.yul\":400:454   */\n  and\n    /* \"#utility.yul\":389:454   */\n  swap1\n  pop\n    /* \"#utility.yul\":334:460   */\n  swap2\n  swap1\n  pop\n  jump\t// out\n    /* \"#utility.yul\":466:562   */\ntag_28:\n    /* \"#utility.yul\":503:510   */\n  0x00\n    /* \"#utility.yul\":532:556   */\n  tag_40\n    /* \"#utility.yul\":550:555   */\n  dup3\n    /* \"#utility.yul\":532:556   */\n  tag_27\n  jump\t// in\ntag_40:\n    /* \"#utility.yul\":521:556   */\n  swap1\n  pop\n    /* \"#utility.yul\":466:562   */\n  swap2\n  swap1\n  pop\n  jump\t// out\n    /* \"#utility.yul\":568:690   */\ntag_29:\n    /* \"#utility.yul\":641:665   */\n  tag_42\n    /* \"#utility.yul\":659:664   */\n  dup2\n    /* \"#utility.yul\":641:665   */\n  tag_28\n  jump\t// in\ntag_42:\n    /* \"#utility.yul\":634:639   */\n  dup2\n    /* \"#utility.yul\":631:666   */\n  eq\n    /* \"#utility.yul\":621:684   */\n  tag_43\n  jumpi\n    /* \"#utility.yul\":680:681   */\n  0x00\n    /* \"#utility.yul\":677:678   */\n  dup1\n    /* \"#utility.yul\":670:682   */\n  revert\n    /* \"#utility.yul\":621:684   */\ntag_43:\n    /* \"#utility.yul\":568:690   */\n  pop\n  jump\t// out\n    /* \"#utility.yul\":696:839   */\ntag_30:\n    /* \"#utility.yul\":753:758   */\n  0x00\n    /* \"#utility.yul\":784:790   */\n  dup2\n    /* \"#utility.yul\":778:791   */\n  mload\n    /* \"#utility.yul\":769:791   */\n  swap1\n  pop\n    /* \"#utility.yul\":800:833   */\n  tag_45\n    /* \"#utility.yul\":827:832   */\n  dup2\n    /* \"#utility.yul\":800:833   */\n  tag_29\n  jump\t// in\ntag_45:\n    /* \"#utility.yul\":696:839   */\n  swap3\n  swap2\n  pop\n  pop\n  jump\t// out\n    /* \"#utility.yul\":845:1196   */\ntag_3:\n    /* \"#utility.yul\":915:921   */\n  0x00\n    /* \"#utility.yul\":964:966   */\n  0x20\n    /* \"#utility.yul\":952:961   */\n  dup3\n    /* \"#utility.yul\":943:950   */\n  dup5\n    /* \"#utility.yul\":939:962   */\n  sub\n    /* \"#utility.yul\":935:967   */\n  slt\n    /* \"#utility.yul\":932:1051   */\n  iszero\n  tag_47\n  jumpi\n    /* \"#utility.yul\":970:1049   */\n  tag_48\n  tag_25\n  jump\t// in\ntag_48:\n    /* \"#utility.yul\":932:1051   */\ntag_47:\n    /* \"#utility.yul\":1090:1091   */\n  0x00\n    /* \"#utility.yul\":1115:1179   */\n  tag_49\n    /* \"#utility.yul\":1171:1178   */\n  dup5\n    /* \"#utility.yul\":1162:1168   */\n  dup3\n    /* \"#utility.yul\":1151:1160   */\n  dup6\n    /* \"#utility.yul\":1147:1169   */\n  add\n    /* \"#utility.yul\":1115:1179   */\n  tag_30\n  jump\t// in\ntag_49:\n    /* \"#utility.yul\":1105:1179   */\n  swap2\n  pop\n    /* \"#utility.yul\":1061:1189   */\n  pop\n    /* \"#utility.yul\":845:1196   */\n  swap3\n  swap2\n  pop\n  pop\n  jump\t// out\n    /* \"#utility.yul\":1202:1320   */\ntag_31:\n    /* \"#utility.yul\":1289:1313   */\n  tag_51\n    /* \"#utility.yul\":1307:1312   */\n  dup2\n    /* \"#utility.yul\":1289:1313   */\n  tag_28\n  jump\t// in\ntag_51:\n    /* \"#utility.yul\":1284:1287   */\n  dup3\n    /* \"#utility.yul\":1277:1314   */\n  mstore\n    /* \"#utility.yul\":1202:1320   */\n  pop\n  pop\n  jump\t// out\n    /* \"#utility.yul\":1326:1548   */\ntag_10:\n    /* \"#utility.yul\":1419:1423   */\n  0x00\n    /* \"#utility.yul\":1457:1459   */\n  0x20\n    /* \"#utility.yul\":1446:1455   */\n  dup3\n    /* \"#utility.yul\":1442:1460   */\n  add\n    /* \"#utility.yul\":1434:1460   */\n  swap1\n  pop\n    /* \"#utility.yul\":1470:1541   */\n  tag_53\n    /* \"#utility.yul\":1538:1539   */\n  0x00\n    /* \"#utility.yul\":1527:1536   */\n  dup4\n    /* \"#utility.yul\":1523:1540   */\n  add\n    /* \"#utility.yul\":1514:1520   */\n  dup5\n    /* \"#utility.yul\":1470:1541   */\n  tag_31\n  jump\t// in\ntag_53:\n    /* \"#utility.yul\":1326:1548   */\n  swap3\n  swap2\n  pop\n  pop\n  jump\t// out\n    /* \"#utility.yul\":1554:1734   */\ntag_19:\n    /* \"#utility.yul\":1602:1679   */\n  0x4e487b7100000000000000000000000000000000000000000000000000000000\n    /* \"#utility.yul\":1599:1600   */\n  0x00\n    /* \"#utility.yul\":1592:1680   */\n  mstore\n    /* \"#utility.yul\":1699:1703   */\n  0x21\n    /* \"#utility.yul\":1696:1697   */\n  0x04\n    /* \"#utility.yul\":1689:1704   */\n  mstore\n    /* \"#utility.yul\":1723:1727   */\n  0x24\n    /* \"#utility.yul\":1720:1721   */\n  0x00\n    /* \"#utility.yul\":1713:1728   */\n  revert\n    /* \"#utility.yul\":1740:1817   */\ntag_32:\n    /* \"#utility.yul\":1777:1784   */\n  0x00\n    /* \"#utility.yul\":1806:1811   */\n  dup2\n    /* \"#utility.yul\":1795:1811   */\n  swap1\n  pop\n    /* \"#utility.yul\":1740:1817   */\n  swap2\n  swap1\n  pop\n  jump\t// out\n    /* \"#utility.yul\":1823:1941   */\ntag_33:\n    /* \"#utility.yul\":1910:1934   */\n  tag_57\n    /* \"#utility.yul\":1928:1933   */\n  dup2\n    /* \"#utility.yul\":1910:1934   */\n  tag_32\n  jump\t// in\ntag_57:\n    /* \"#utility.yul\":1905:1908   */\n  dup3\n    /* \"#utility.yul\":1898:1935   */\n  mstore\n    /* \"#utility.yul\":1823:1941   */\n  pop\n  pop\n  jump\t// out\n    /* \"#utility.yul\":1947:2169   */\ntag_21:\n    /* \"#utility.yul\":2040:2044   */\n  0x00\n    /* \"#utility.yul\":2078:2080   */\n  0x20\n    /* \"#utility.yul\":2067:2076   */\n  dup3\n    /* \"#utility.yul\":2063:2081   */\n  add\n    /* \"#utility.yul\":2055:2081   */\n  swap1\n  pop\n    /* \"#utility.yul\":2091:2162   */\n  tag_59\n    /* \"#utility.yul\":2159:2160   */\n  0x00\n    /* \"#utility.yul\":2148:2157   */\n  dup4\n    /* \"#utility.yul\":2144:2161   */\n  add\n    /* \"#utility.yul\":2135:2141   */\n  dup5\n    /* \"#utility.yul\":2091:2162   */\n  tag_33\n  jump\t// in\ntag_59:\n    /* \"#utility.yul\":1947:2169   */\n  swap3\n  swap2\n  pop\n  pop\n  jump\t// out\n    /* \"src/Vault.sol\":1357:13588  contract Vault is Ownable(msg.sender), ReentrancyGuard {... */\ntag_22:\n  dataSize(sub_0)\n  dup1\n  dataOffset(sub_0)\n  0x00\n  codecopy\n  0x00\n  return\nstop\n\nsub_0: assembly {\n        /* \"src/Vault.sol\":1357:13588  contract Vault is Ownable(msg.sender), ReentrancyGuard {... */\n      mstore(0x40, 0x80)\n      jumpi(tag_1, lt(calldatasize, 0x04))\n      shr(0xe0, calldataload(0x00))\n      dup1\n      0xa17d97f3\n      gt\n      tag_24\n      jumpi\n      dup1\n      0xc6b61e4c\n      gt\n      tag_25\n      jumpi\n      dup1\n      0xc6b61e4c\n      eq\n      tag_18\n      jumpi\n      dup1\n      0xcd237a41\n      eq\n      tag_19\n      jumpi\n      dup1\n      0xe6c47bc5\n      eq\n      tag_20\n      jumpi\n      dup1\n      0xe97dcb62\n      eq\n      tag_21\n      jumpi\n      dup1\n      0xeacdc5ff\n      eq\n      tag_22\n      jumpi\n      dup1\n      0xf2fde38b\n      eq\n      tag_23\n      jumpi\n      jump(tag_1)\n    tag_25:\n      dup1\n      0xa17d97f3\n      eq\n      tag_13\n      jumpi\n      dup1\n      0xa3bc61a5\n      eq\n      tag_14\n      jumpi\n      dup1\n      0xa72b05bc\n      eq\n      tag_15\n      jumpi\n      dup1\n      0xb6ff4934\n      eq\n      tag_16\n      jumpi\n      dup1\n      0xb97dd9e2\n      eq\n      tag_17\n      jumpi\n      jump(tag_1)\n    tag_24:\n      dup1\n      0x664a1ad6\n      gt\n      tag_26\n      jumpi\n      dup1\n      0x664a1ad6\n      eq\n      tag_7\n      jumpi\n      dup1\n      0x6c003a9b\n      eq\n      tag_8\n      jumpi\n      dup1\n      0x715018a6\n      eq\n      tag_9\n      jumpi\n      dup1\n      0x7f8661a1\n      eq\n      tag_10\n      jumpi\n      dup1\n      0x8da5cb5b\n      eq\n      tag_11\n      jumpi\n      dup1\n      0x8da7ad23\n      eq\n      tag_12\n      jumpi\n      jump(tag_1)\n    tag_26:\n      dup1\n      0x233e9903\n      eq\n      tag_2\n      jumpi\n      dup1\n      0x2387d32c\n      eq\n      tag_3\n      jumpi\n      dup1\n      0x372500ab\n      eq\n      tag_4\n      jumpi\n      dup1\n      0x55ce3b9a\n      eq\n      tag_5\n      jumpi\n      dup1\n      0x5f75659f\n      eq\n      tag_6\n      jumpi\n    tag_1:\n      0x00\n      dup1\n      revert\n        /* \"src/Vault.sol\":12654:12896  function setMinimumStake(uint256 _mininmumStake) external onlyOwner {... */\n    tag_2:\n      callvalue\n      dup1\n      iszero\n      tag_27\n      jumpi\n      0x00\n      dup1\n      revert\n    tag_27:\n      pop\n      tag_28\n      0x04\n      dup1\n      calldatasize\n      sub\n      dup2\n      add\n      swap1\n      tag_29\n      swap2\n      swap1\n      tag_30\n      jump\t// in\n    tag_29:\n      tag_31\n      jump\t// in\n    tag_28:\n      stop\n        /* \"src/Vault.sol\":13277:13371  function getEpochCount() external view returns (uint256) {... */\n    tag_3:\n      callvalue\n      dup1\n      iszero\n      tag_32\n      jumpi\n      0x00\n      dup1\n      revert\n    tag_32:\n      pop\n      tag_33\n      tag_34\n      jump\t// in\n    tag_33:\n      mload(0x40)\n      tag_35\n      swap2\n      swap1\n      tag_36\n      jump\t// in\n    tag_35:\n      mload(0x40)\n      dup1\n      swap2\n      sub\n      swap1\n      return\n        /* \"src/Vault.sol\":7079:7293  function claimRewards() public IsLocked {... */\n    tag_4:\n      callvalue\n      dup1\n      iszero\n      tag_37\n      jumpi\n      0x00\n      dup1\n      revert\n    tag_37:\n      pop\n      tag_38\n      tag_39\n      jump\t// in\n    tag_38:\n      stop\n        /* \"src/Vault.sol\":12243:12460  function setFundWallet(address _fundWallet) external onlyOwner {... */\n    tag_5:\n      callvalue\n      dup1\n      iszero\n      tag_40\n      jumpi\n      0x00\n      dup1\n      revert\n    tag_40:\n      pop\n      tag_41\n      0x04\n      dup1\n      calldatasize\n      sub\n      dup2\n      add\n      swap1\n      tag_42\n      swap2\n      swap1\n      tag_43\n      jump\t// in\n    tag_42:\n      tag_44\n      jump\t// in\n    tag_41:\n      stop\n        /* \"src/Vault.sol\":9421:10358  function terminateCurrentAndOpenNextEpoch() external payable onlyOwner {... */\n    tag_6:\n      tag_45\n      tag_46\n      jump\t// in\n    tag_45:\n      stop\n        /* \"src/Vault.sol\":2304:2329  address public fundWallet */\n    tag_7:\n      callvalue\n      dup1\n      iszero\n      tag_47\n      jumpi\n      0x00\n      dup1\n      revert\n    tag_47:\n      pop\n      tag_48\n      tag_49\n      jump\t// in\n    tag_48:\n      mload(0x40)\n      tag_50\n      swap2\n      swap1\n      tag_51\n      jump\t// in\n    tag_50:\n      mload(0x40)\n      dup1\n      swap2\n      sub\n      swap1\n      return\n        /* \"src/Vault.sol\":2396:2424  bool public claimableRewards */\n    tag_8:\n      callvalue\n      dup1\n      iszero\n      tag_52\n      jumpi\n      0x00\n      dup1\n      revert\n    tag_52:\n      pop\n      tag_53\n      tag_54\n      jump\t// in\n    tag_53:\n      mload(0x40)\n      tag_55\n      swap2\n      swap1\n      tag_56\n      jump\t// in\n    tag_55:\n      mload(0x40)\n      dup1\n      swap2\n      sub\n      swap1\n      return\n        /* \"lib/openzeppelin-contracts/contracts/access/Ownable.sol\":2293:2394  function renounceOwnership() public virtual onlyOwner {... */\n    tag_9:\n      callvalue\n      dup1\n      iszero\n      tag_57\n      jumpi\n      0x00\n      dup1\n      revert\n    tag_57:\n      pop\n      tag_58\n      tag_59\n      jump\t// in\n    tag_58:\n      stop\n        /* \"src/Vault.sol\":6130:6914  function exit(uint256 _amount) public nonReentrant IsLocked {... */\n    tag_10:\n      callvalue\n      dup1\n      iszero\n      tag_60\n      jumpi\n      0x00\n      dup1\n      revert\n    tag_60:\n      pop\n      tag_61\n      0x04\n      dup1\n      calldatasize\n      sub\n      dup2\n      add\n      swap1\n      tag_62\n      swap2\n      swap1\n      tag_30\n      jump\t// in\n    tag_62:\n      tag_63\n      jump\t// in\n    tag_61:\n      stop\n        /* \"lib/openzeppelin-contracts/contracts/access/Ownable.sol\":1638:1723  function owner() public view virtual returns (address) {... */\n    tag_11:\n      callvalue\n      dup1\n      iszero\n      tag_64\n      jumpi\n      0x00\n      dup1\n      revert\n    tag_64:\n      pop\n      tag_65\n      tag_66\n      jump\t// in\n    tag_65:\n      mload(0x40)\n      tag_67\n      swap2\n      swap1\n      tag_51\n      jump\t// in\n    tag_67:\n      mload(0x40)\n      dup1\n      swap2\n      sub\n      swap1\n      return\n        /* \"src/Vault.sol\":2630:2677  mapping(address => UserStake) public userStakes */\n    tag_12:\n      callvalue\n      dup1\n      iszero\n      tag_68\n      jumpi\n      0x00\n      dup1\n      revert\n    tag_68:\n      pop\n      tag_69\n      0x04\n      dup1\n      calldatasize\n      sub\n      dup2\n      add\n      swap1\n      tag_70\n      swap2\n      swap1\n      tag_43\n      jump\t// in\n    tag_70:\n      tag_71\n      jump\t// in\n    tag_69:\n      mload(0x40)\n      tag_72\n      swap3\n      swap2\n      swap1\n      tag_73\n      jump\t// in\n    tag_72:\n      mload(0x40)\n      dup1\n      swap2\n      sub\n      swap1\n      return\n        /* \"src/Vault.sol\":11281:12054  function lockFundsAndRunCurrentEpoch() external onlyOwner {... */\n    tag_13:\n      callvalue\n      dup1\n      iszero\n      tag_74\n      jumpi\n      0x00\n      dup1\n      revert\n    tag_74:\n      pop\n      tag_75\n      tag_76\n      jump\t// in\n    tag_75:\n      stop\n        /* \"src/Vault.sol\":10528:11105  function allocateRewards() external payable onlyOwner {... */\n    tag_14:\n      tag_77\n      tag_78\n      jump\t// in\n    tag_77:\n      stop\n        /* \"src/Vault.sol\":2182:2219  EpochStatus public currentEpochStatus */\n    tag_15:\n      callvalue\n      dup1\n      iszero\n      tag_79\n      jumpi\n      0x00\n      dup1\n      revert\n    tag_79:\n      pop\n      tag_80\n      tag_81\n      jump\t// in\n    tag_80:\n      mload(0x40)\n      tag_82\n      swap2\n      swap1\n      tag_83\n      jump\t// in\n    tag_82:\n      mload(0x40)\n      dup1\n      swap2\n      sub\n      swap1\n      return\n        /* \"src/Vault.sol\":7492:7927  function hasClaimableRewards(address _user) public view returns (bool) {... */\n    tag_16:\n      callvalue\n      dup1\n      iszero\n      tag_84\n      jumpi\n      0x00\n      dup1\n      revert\n    tag_84:\n      pop\n      tag_85\n      0x04\n      dup1\n      calldatasize\n      sub\n      dup2\n      add\n      swap1\n      tag_86\n      swap2\n      swap1\n      tag_43\n      jump\t// in\n    tag_86:\n      tag_87\n      jump\t// in\n    tag_85:\n      mload(0x40)\n      tag_88\n      swap2\n      swap1\n      tag_56\n      jump\t// in\n    tag_88:\n      mload(0x40)\n      dup1\n      swap2\n      sub\n      swap1\n      return\n        /* \"src/Vault.sol\":13030:13140  function getCurrentEpoch() external view returns (Epoch memory) {... */\n    tag_17:\n      callvalue\n      dup1\n      iszero\n      tag_89\n      jumpi\n      0x00\n      dup1\n      revert\n    tag_89:\n      pop\n      tag_90\n      tag_91\n      jump\t// in\n    tag_90:\n      mload(0x40)\n      tag_92\n      swap2\n      swap1\n      tag_93\n      jump\t// in\n    tag_92:\n      mload(0x40)\n      dup1\n      swap2\n      sub\n      swap1\n      return\n        /* \"src/Vault.sol\":2466:2487  Epoch[] public epochs */\n    tag_18:\n      callvalue\n      dup1\n      iszero\n      tag_94\n      jumpi\n      0x00\n      dup1\n      revert\n    tag_94:\n      pop\n      tag_95\n      0x04\n      dup1\n      calldatasize\n      sub\n      dup2\n      add\n      swap1\n      tag_96\n      swap2\n      swap1\n      tag_30\n      jump\t// in\n    tag_96:\n      tag_97\n      jump\t// in\n    tag_95:\n      mload(0x40)\n      tag_98\n      swap3\n      swap2\n      swap1\n      tag_73\n      jump\t// in\n    tag_98:\n      mload(0x40)\n      dup1\n      swap2\n      sub\n      swap1\n      return\n        /* \"src/Vault.sol\":13377:13586  function lockOrUnlockContract(bool _locked) external onlyOwner {... */\n    tag_19:\n      callvalue\n      dup1\n      iszero\n      tag_99\n      jumpi\n      0x00\n      dup1\n      revert\n    tag_99:\n      pop\n      tag_100\n      0x04\n      dup1\n      calldatasize\n      sub\n      dup2\n      add\n      swap1\n      tag_101\n      swap2\n      swap1\n      tag_102\n      jump\t// in\n    tag_101:\n      tag_103\n      jump\t// in\n    tag_100:\n      stop\n        /* \"src/Vault.sol\":2733:2761  uint256 public mininmumStake */\n    tag_20:\n      callvalue\n      dup1\n      iszero\n      tag_104\n      jumpi\n      0x00\n      dup1\n      revert\n    tag_104:\n      pop\n      tag_105\n      tag_106\n      jump\t// in\n    tag_105:\n      mload(0x40)\n      tag_107\n      swap2\n      swap1\n      tag_36\n      jump\t// in\n    tag_107:\n      mload(0x40)\n      dup1\n      swap2\n      sub\n      swap1\n      return\n        /* \"src/Vault.sol\":5118:5918  function enter() public payable nonReentrant IsLocked {... */\n    tag_21:\n      tag_108\n      tag_109\n      jump\t// in\n    tag_108:\n      stop\n        /* \"src/Vault.sol\":2537:2566  uint256 public currentEpochId */\n    tag_22:\n      callvalue\n      dup1\n      iszero\n      tag_110\n      jumpi\n      0x00\n      dup1\n      revert\n    tag_110:\n      pop\n      tag_111\n      tag_112\n      jump\t// in\n    tag_111:\n      mload(0x40)\n      tag_113\n      swap2\n      swap1\n      tag_36\n      jump\t// in\n    tag_113:\n      mload(0x40)\n      dup1\n      swap2\n      sub\n      swap1\n      return\n        /* \"lib/openzeppelin-contracts/contracts/access/Ownable.sol\":2543:2758  function transferOwnership(address newOwner) public virtual onlyOwner {... */\n    tag_23:\n      callvalue\n      dup1\n      iszero\n      tag_114\n      jumpi\n      0x00\n      dup1\n      revert\n    tag_114:\n      pop\n      tag_115\n      0x04\n      dup1\n      calldatasize\n      sub\n      dup2\n      add\n      swap1\n      tag_116\n      swap2\n      swap1\n      tag_43\n      jump\t// in\n    tag_116:\n      tag_117\n      jump\t// in\n    tag_115:\n      stop\n        /* \"src/Vault.sol\":12654:12896  function setMinimumStake(uint256 _mininmumStake) external onlyOwner {... */\n    tag_31:\n        /* \"lib/openzeppelin-contracts/contracts/access/Ownable.sol\":1531:1544  _checkOwner() */\n      tag_119\n        /* \"lib/openzeppelin-contracts/contracts/access/Ownable.sol\":1531:1542  _checkOwner */\n      tag_120\n        /* \"lib/openzeppelin-contracts/contracts/access/Ownable.sol\":1531:1544  _checkOwner() */\n      jump\t// in\n    tag_119:\n        /* \"src/Vault.sol\":12732:12761  uint256 previousMininmumStake */\n      0x00\n        /* \"src/Vault.sol\":12764:12777  mininmumStake */\n      sload(0x06)\n        /* \"src/Vault.sol\":12732:12777  uint256 previousMininmumStake = mininmumStake */\n      swap1\n      pop\n        /* \"src/Vault.sol\":12803:12817  _mininmumStake */\n      dup2\n        /* \"src/Vault.sol\":12787:12800  mininmumStake */\n      0x06\n        /* \"src/Vault.sol\":12787:12817  mininmumStake = _mininmumStake */\n      dup2\n      swap1\n      sstore\n      pop\n        /* \"src/Vault.sol\":12832:12889  MinimumStakeChanged(previousMininmumStake, mininmumStake) */\n      0xdc4a0b2dc1fa27da98de2ac6f8fa373b4be405e1bf69fc3976597b6d56b79abc\n        /* \"src/Vault.sol\":12852:12873  previousMininmumStake */\n      dup2\n        /* \"src/Vault.sol\":12875:12888  mininmumStake */\n      sload(0x06)\n        /* \"src/Vault.sol\":12832:12889  MinimumStakeChanged(previousMininmumStake, mininmumStake) */\n      mload(0x40)\n      tag_122\n      swap3\n      swap2\n      swap1\n      tag_73\n      jump\t// in\n    tag_122:\n      mload(0x40)\n      dup1\n      swap2\n      sub\n      swap1\n      log1\n        /* \"src/Vault.sol\":12722:12896  {... */\n      pop\n        /* \"src/Vault.sol\":12654:12896  function setMinimumStake(uint256 _mininmumStake) external onlyOwner {... */\n      pop\n      jump\t// out\n        /* \"src/Vault.sol\":13277:13371  function getEpochCount() external view returns (uint256) {... */\n    tag_34:\n        /* \"src/Vault.sol\":13325:13332  uint256 */\n      0x00\n        /* \"src/Vault.sol\":13351:13357  epochs */\n      0x03\n        /* \"src/Vault.sol\":13351:13364  epochs.length */\n      dup1\n      sload\n      swap1\n      pop\n        /* \"src/Vault.sol\":13344:13364  return epochs.length */\n      swap1\n      pop\n        /* \"src/Vault.sol\":13277:13371  function getEpochCount() external view returns (uint256) {... */\n      swap1\n      jump\t// out\n        /* \"src/Vault.sol\":7079:7293  function claimRewards() public IsLocked {... */\n    tag_39:\n        /* \"src/Vault.sol\":4909:4915  locked */\n      0x07\n      0x00\n      swap1\n      sload\n      swap1\n      0x0100\n      exp\n      swap1\n      div\n      0xff\n      and\n        /* \"src/Vault.sol\":4906:4940  if(locked) revert ContractLocked() */\n      iszero\n      tag_125\n      jumpi\n        /* \"src/Vault.sol\":4924:4940  ContractLocked() */\n      mload(0x40)\n      0x6f5ffb7e00000000000000000000000000000000000000000000000000000000\n      dup2\n      mstore\n      0x04\n      add\n      mload(0x40)\n      dup1\n      swap2\n      sub\n      swap1\n      revert\n        /* \"src/Vault.sol\":4906:4940  if(locked) revert ContractLocked() */\n    tag_125:\n        /* \"src/Vault.sol\":7134:7150  claimableRewards */\n      0x02\n      0x15\n      swap1\n      sload\n      swap1\n      0x0100\n      exp\n      swap1\n      div\n      0xff\n      and\n        /* \"src/Vault.sol\":7129:7179  if (!claimableRewards) revert UnClaimableRewards() */\n      tag_127\n      jumpi\n        /* \"src/Vault.sol\":7159:7179  UnClaimableRewards() */\n      mload(0x40)\n      0x01e9ef8a00000000000000000000000000000000000000000000000000000000\n      dup2\n      mstore\n      0x04\n      add\n      mload(0x40)\n      dup1\n      swap2\n      sub\n      swap1\n      revert\n        /* \"src/Vault.sol\":7129:7179  if (!claimableRewards) revert UnClaimableRewards() */\n    tag_127:\n        /* \"src/Vault.sol\":7194:7225  hasClaimableRewards(msg.sender) */\n      tag_128\n        /* \"src/Vault.sol\":7214:7224  msg.sender */\n      caller\n        /* \"src/Vault.sol\":7194:7213  hasClaimableRewards */\n      tag_87\n        /* \"src/Vault.sol\":7194:7225  hasClaimableRewards(msg.sender) */\n      jump\t// in\n    tag_128:\n        /* \"src/Vault.sol\":7189:7251  if (!hasClaimableRewards(msg.sender)) revert NoRewardToClaim() */\n      tag_129\n      jumpi\n        /* \"src/Vault.sol\":7234:7251  NoRewardToClaim() */\n      mload(0x40)\n      0x5aa9184d00000000000000000000000000000000000000000000000000000000\n      dup2\n      mstore\n      0x04\n      add\n      mload(0x40)\n      dup1\n      swap2\n      sub\n      swap1\n      revert\n        /* \"src/Vault.sol\":7189:7251  if (!hasClaimableRewards(msg.sender)) revert NoRewardToClaim() */\n    tag_129:\n        /* \"src/Vault.sol\":7261:7286  _claimRewards(msg.sender) */\n      tag_130\n        /* \"src/Vault.sol\":7275:7285  msg.sender */\n      caller\n        /* \"src/Vault.sol\":7261:7274  _claimRewards */\n      tag_131\n        /* \"src/Vault.sol\":7261:7286  _claimRewards(msg.sender) */\n      jump\t// in\n    tag_130:\n        /* \"src/Vault.sol\":7079:7293  function claimRewards() public IsLocked {... */\n      jump\t// out\n        /* \"src/Vault.sol\":12243:12460  function setFundWallet(address _fundWallet) external onlyOwner {... */\n    tag_44:\n        /* \"lib/openzeppelin-contracts/contracts/access/Ownable.sol\":1531:1544  _checkOwner() */\n      tag_133\n        /* \"lib/openzeppelin-contracts/contracts/access/Ownable.sol\":1531:1542  _checkOwner */\n      tag_120\n        /* \"lib/openzeppelin-contracts/contracts/access/Ownable.sol\":1531:1544  _checkOwner() */\n      jump\t// in\n    tag_133:\n        /* \"src/Vault.sol\":12316:12342  address previousFundWallet */\n      0x00\n        /* \"src/Vault.sol\":12345:12355  fundWallet */\n      0x02\n      0x01\n      swap1\n      sload\n      swap1\n      0x0100\n      exp\n      swap1\n      div\n      0xffffffffffffffffffffffffffffffffffffffff\n      and\n        /* \"src/Vault.sol\":12316:12355  address previousFundWallet = fundWallet */\n      swap1\n      pop\n        /* \"src/Vault.sol\":12378:12389  _fundWallet */\n      dup2\n        /* \"src/Vault.sol\":12365:12375  fundWallet */\n      0x02\n      0x01\n        /* \"src/Vault.sol\":12365:12389  fundWallet = _fundWallet */\n      0x0100\n      exp\n      dup2\n      sload\n      dup2\n      0xffffffffffffffffffffffffffffffffffffffff\n      mul\n      not\n      and\n      swap1\n      dup4\n      0xffffffffffffffffffffffffffffffffffffffff\n      and\n      mul\n      or\n      swap1\n      sstore\n      pop\n        /* \"src/Vault.sol\":12404:12453  FundWalletChanged(previousFundWallet, fundWallet) */\n      0x9c41a9a969e821894638b441dcdf78c0573277c91b8ac63440d790f5634a2b0b\n        /* \"src/Vault.sol\":12422:12440  previousFundWallet */\n      dup2\n        /* \"src/Vault.sol\":12442:12452  fundWallet */\n      0x02\n      0x01\n      swap1\n      sload\n      swap1\n      0x0100\n      exp\n      swap1\n      div\n      0xffffffffffffffffffffffffffffffffffffffff\n      and\n        /* \"src/Vault.sol\":12404:12453  FundWalletChanged(previousFundWallet, fundWallet) */\n      mload(0x40)\n      tag_135\n      swap3\n      swap2\n      swap1\n      tag_136\n      jump\t// in\n    tag_135:\n      mload(0x40)\n      dup1\n      swap2\n      sub\n      swap1\n      log1\n        /* \"src/Vault.sol\":12306:12460  {... */\n      pop\n        /* \"src/Vault.sol\":12243:12460  function setFundWallet(address _fundWallet) external onlyOwner {... */\n      pop\n      jump\t// out\n        /* \"src/Vault.sol\":9421:10358  function terminateCurrentAndOpenNextEpoch() external payable onlyOwner {... */\n    tag_46:\n        /* \"lib/openzeppelin-contracts/contracts/access/Ownable.sol\":1531:1544  _checkOwner() */\n      tag_138\n        /* \"lib/openzeppelin-contracts/contracts/access/Ownable.sol\":1531:1542  _checkOwner */\n      tag_120\n        /* \"lib/openzeppelin-contracts/contracts/access/Ownable.sol\":1531:1544  _checkOwner() */\n      jump\t// in\n    tag_138:\n        /* \"src/Vault.sol\":9528:9547  EpochStatus.Running */\n      0x01\n        /* \"src/Vault.sol\":9506:9547  currentEpochStatus != EpochStatus.Running */\n      dup1\n      dup2\n      gt\n      iszero\n      tag_140\n      jumpi\n      tag_141\n      tag_142\n      jump\t// in\n    tag_141:\n    tag_140:\n        /* \"src/Vault.sol\":9506:9524  currentEpochStatus */\n      0x02\n      0x00\n      swap1\n      sload\n      swap1\n      0x0100\n      exp\n      swap1\n      div\n      0xff\n      and\n        /* \"src/Vault.sol\":9506:9547  currentEpochStatus != EpochStatus.Running */\n      0x01\n      dup2\n      gt\n      iszero\n      tag_143\n      jumpi\n      tag_144\n      tag_142\n      jump\t// in\n    tag_144:\n    tag_143:\n      eq\n        /* \"src/Vault.sol\":9502:9609  if (currentEpochStatus != EpochStatus.Running) revert WrongPhase(\"END EPOCH: can only end a running epoch\") */\n      tag_145\n      jumpi\n        /* \"src/Vault.sol\":9556:9609  WrongPhase(\"END EPOCH: can only end a running epoch\") */\n      mload(0x40)\n      0xfcbfb2b100000000000000000000000000000000000000000000000000000000\n      dup2\n      mstore\n      0x04\n      add\n      tag_146\n      swap1\n      tag_147\n      jump\t// in\n    tag_146:\n      mload(0x40)\n      dup1\n      swap2\n      sub\n      swap1\n      revert\n        /* \"src/Vault.sol\":9502:9609  if (currentEpochStatus != EpochStatus.Running) revert WrongPhase(\"END EPOCH: can only end a running epoch\") */\n    tag_145:\n        /* \"src/Vault.sol\":9623:9639  claimableRewards */\n      0x02\n      0x15\n      swap1\n      sload\n      swap1\n      0x0100\n      exp\n      swap1\n      div\n      0xff\n      and\n        /* \"src/Vault.sol\":9619:9722  if(!claimableRewards) revert WrongPhase(\"END EPOCH: rewards must be allocated before ending the epoch\") */\n      tag_148\n      jumpi\n        /* \"src/Vault.sol\":9648:9722  WrongPhase(\"END EPOCH: rewards must be allocated before ending the epoch\") */\n      mload(0x40)\n      0xfcbfb2b100000000000000000000000000000000000000000000000000000000\n      dup2\n      mstore\n      0x04\n      add\n      tag_149\n      swap1\n      tag_150\n      jump\t// in\n    tag_149:\n      mload(0x40)\n      dup1\n      swap2\n      sub\n      swap1\n      revert\n        /* \"src/Vault.sol\":9619:9722  if(!claimableRewards) revert WrongPhase(\"END EPOCH: rewards must be allocated before ending the epoch\") */\n    tag_148:\n        /* \"src/Vault.sol\":9748:9754  epochs */\n      0x03\n        /* \"src/Vault.sol\":9755:9769  currentEpochId */\n      sload(0x04)\n        /* \"src/Vault.sol\":9748:9770  epochs[currentEpochId] */\n      dup2\n      sload\n      dup2\n      lt\n      tag_151\n      jumpi\n      tag_152\n      tag_153\n      jump\t// in\n    tag_152:\n    tag_151:\n      swap1\n      0x00\n      mstore\n      keccak256(0x00, 0x20)\n      swap1\n      0x02\n      mul\n      add\n        /* \"src/Vault.sol\":9748:9787  epochs[currentEpochId].totalValueLocked */\n      0x00\n      add\n      sload\n        /* \"src/Vault.sol\":9736:9745  msg.value */\n      callvalue\n        /* \"src/Vault.sol\":9736:9787  msg.value < epochs[currentEpochId].totalValueLocked */\n      lt\n        /* \"src/Vault.sol\":9732:9886  if (msg.value < epochs[currentEpochId].totalValueLocked) ... */\n      iszero\n      tag_155\n      jumpi\n        /* \"src/Vault.sol\":9835:9844  msg.value */\n      callvalue\n        /* \"src/Vault.sol\":9846:9852  epochs */\n      0x03\n        /* \"src/Vault.sol\":9853:9867  currentEpochId */\n      sload(0x04)\n        /* \"src/Vault.sol\":9846:9868  epochs[currentEpochId] */\n      dup2\n      sload\n      dup2\n      lt\n      tag_156\n      jumpi\n      tag_157\n      tag_153\n      jump\t// in\n    tag_157:\n    tag_156:\n      swap1\n      0x00\n      mstore\n      keccak256(0x00, 0x20)\n      swap1\n      0x02\n      mul\n      add\n        /* \"src/Vault.sol\":9846:9885  epochs[currentEpochId].totalValueLocked */\n      0x00\n      add\n      sload\n        /* \"src/Vault.sol\":9809:9886  InsufficientFundsReturned(msg.value, epochs[currentEpochId].totalValueLocked) */\n      mload(0x40)\n      0x41709d0800000000000000000000000000000000000000000000000000000000\n      dup2\n      mstore\n      0x04\n      add\n      tag_159\n      swap3\n      swap2\n      swap1\n      tag_73\n      jump\t// in\n    tag_159:\n      mload(0x40)\n      dup1\n      swap2\n      sub\n      swap1\n      revert\n        /* \"src/Vault.sol\":9732:9886  if (msg.value < epochs[currentEpochId].totalValueLocked) ... */\n    tag_155:\n        /* \"src/Vault.sol\":9897:9923  Epoch storage currentEpoch */\n      0x00\n        /* \"src/Vault.sol\":9926:9932  epochs */\n      0x03\n        /* \"src/Vault.sol\":9933:9947  currentEpochId */\n      sload(0x04)\n        /* \"src/Vault.sol\":9926:9948  epochs[currentEpochId] */\n      dup2\n      sload\n      dup2\n      lt\n      tag_160\n      jumpi\n      tag_161\n      tag_153\n      jump\t// in\n    tag_161:\n    tag_160:\n      swap1\n      0x00\n      mstore\n      keccak256(0x00, 0x20)\n      swap1\n      0x02\n      mul\n      add\n        /* \"src/Vault.sol\":9897:9948  Epoch storage currentEpoch = epochs[currentEpochId] */\n      swap1\n      pop\n        /* \"src/Vault.sol\":9959:9982  uint256 fundsToTransfer */\n      0x00\n        /* \"src/Vault.sol\":9985:9997  currentEpoch */\n      dup2\n        /* \"src/Vault.sol\":9985:10014  currentEpoch.totalValueLocked */\n      0x00\n      add\n      sload\n        /* \"src/Vault.sol\":9959:10014  uint256 fundsToTransfer = currentEpoch.totalValueLocked */\n      swap1\n      pop\n        /* \"src/Vault.sol\":10046:10060  currentEpochId */\n      sload(0x04)\n        /* \"src/Vault.sol\":10030:10078  EpochTerminated(currentEpochId, block.timestamp) */\n      0x64570abbb448406f773ac3a0c62178ed95f93e5465f64860899859bbe490fb42\n        /* \"src/Vault.sol\":10062:10077  block.timestamp */\n      timestamp\n        /* \"src/Vault.sol\":10030:10078  EpochTerminated(currentEpochId, block.timestamp) */\n      mload(0x40)\n      tag_163\n      swap2\n      swap1\n      tag_36\n      jump\t// in\n    tag_163:\n      mload(0x40)\n      dup1\n      swap2\n      sub\n      swap1\n      log2\n        /* \"src/Vault.sol\":10129:10143  currentEpochId */\n      0x04\n      0x00\n        /* \"src/Vault.sol\":10129:10145  currentEpochId++ */\n      dup2\n      sload\n      dup1\n      swap3\n      swap2\n      swap1\n      tag_164\n      swap1\n      tag_165\n      jump\t// in\n    tag_164:\n      swap2\n      swap1\n      pop\n      sstore\n      pop\n        /* \"src/Vault.sol\":10206:10212  epochs */\n      0x03\n        /* \"src/Vault.sol\":10218:10243  Epoch(fundsToTransfer, 0) */\n      mload(0x40)\n      dup1\n      0x40\n      add\n      0x40\n      mstore\n      dup1\n        /* \"src/Vault.sol\":10224:10239  fundsToTransfer */\n      dup4\n        /* \"src/Vault.sol\":10218:10243  Epoch(fundsToTransfer, 0) */\n      dup2\n      mstore\n      0x20\n      add\n        /* \"src/Vault.sol\":10241:10242  0 */\n      0x00\n        /* \"src/Vault.sol\":10218:10243  Epoch(fundsToTransfer, 0) */\n      dup2\n      mstore\n      pop\n        /* \"src/Vault.sol\":10206:10244  epochs.push(Epoch(fundsToTransfer, 0)) */\n      swap1\n      dup1\n      0x01\n      dup2\n      sload\n      add\n      dup1\n      dup3\n      sstore\n      dup1\n      swap2\n      pop\n      pop\n      0x01\n      swap1\n      sub\n      swap1\n      0x00\n      mstore\n      keccak256(0x00, 0x20)\n      swap1\n      0x02\n      mul\n      add\n      0x00\n      swap1\n      swap2\n      swap1\n      swap2\n      swap1\n      swap2\n      pop\n      0x00\n      dup3\n      add\n      mload\n      dup2\n      0x00\n      add\n      sstore\n      0x20\n      dup3\n      add\n      mload\n      dup2\n      0x01\n      add\n      sstore\n      pop\n      pop\n        /* \"src/Vault.sol\":10275:10291  EpochStatus.Open */\n      0x00\n        /* \"src/Vault.sol\":10254:10272  currentEpochStatus */\n      0x02\n      0x00\n        /* \"src/Vault.sol\":10254:10291  currentEpochStatus = EpochStatus.Open */\n      0x0100\n      exp\n      dup2\n      sload\n      dup2\n      0xff\n      mul\n      not\n      and\n      swap1\n      dup4\n      0x01\n      dup2\n      gt\n      iszero\n      tag_167\n      jumpi\n      tag_168\n      tag_142\n      jump\t// in\n    tag_168:\n    tag_167:\n      mul\n      or\n      swap1\n      sstore\n      pop\n        /* \"src/Vault.sol\":10319:10333  currentEpochId */\n      sload(0x04)\n        /* \"src/Vault.sol\":10307:10351  EpochOpened(currentEpochId, block.timestamp) */\n      0x3011a2cb7316f75847dafe7f596d9728f2bcb38e662b785f36bc7ea76e4e7142\n        /* \"src/Vault.sol\":10335:10350  block.timestamp */\n      timestamp\n        /* \"src/Vault.sol\":10307:10351  EpochOpened(currentEpochId, block.timestamp) */\n      mload(0x40)\n      tag_169\n      swap2\n      swap1\n      tag_36\n      jump\t// in\n    tag_169:\n      mload(0x40)\n      dup1\n      swap2\n      sub\n      swap1\n      log2\n        /* \"src/Vault.sol\":9492:10358  {... */\n      pop\n      pop\n        /* \"src/Vault.sol\":9421:10358  function terminateCurrentAndOpenNextEpoch() external payable onlyOwner {... */\n      jump\t// out\n        /* \"src/Vault.sol\":2304:2329  address public fundWallet */\n    tag_49:\n      0x02\n      0x01\n      swap1\n      sload\n      swap1\n      0x0100\n      exp\n      swap1\n      div\n      0xffffffffffffffffffffffffffffffffffffffff\n      and\n      dup2\n      jump\t// out\n        /* \"src/Vault.sol\":2396:2424  bool public claimableRewards */\n    tag_54:\n      0x02\n      0x15\n      swap1\n      sload\n      swap1\n      0x0100\n      exp\n      swap1\n      div\n      0xff\n      and\n      dup2\n      jump\t// out\n        /* \"lib/openzeppelin-contracts/contracts/access/Ownable.sol\":2293:2394  function renounceOwnership() public virtual onlyOwner {... */\n    tag_59:\n        /* \"lib/openzeppelin-contracts/contracts/access/Ownable.sol\":1531:1544  _checkOwner() */\n      tag_171\n        /* \"lib/openzeppelin-contracts/contracts/access/Ownable.sol\":1531:1542  _checkOwner */\n      tag_120\n        /* \"lib/openzeppelin-contracts/contracts/access/Ownable.sol\":1531:1544  _checkOwner() */\n      jump\t// in\n    tag_171:\n        /* \"lib/openzeppelin-contracts/contracts/access/Ownable.sol\":2357:2387  _transferOwnership(address(0)) */\n      tag_173\n        /* \"lib/openzeppelin-contracts/contracts/access/Ownable.sol\":2384:2385  0 */\n      0x00\n        /* \"lib/openzeppelin-contracts/contracts/access/Ownable.sol\":2357:2375  _transferOwnership */\n      tag_174\n        /* \"lib/openzeppelin-contracts/contracts/access/Ownable.sol\":2357:2387  _transferOwnership(address(0)) */\n      jump\t// in\n    tag_173:\n        /* \"lib/openzeppelin-contracts/contracts/access/Ownable.sol\":2293:2394  function renounceOwnership() public virtual onlyOwner {... */\n      jump\t// out\n        /* \"src/Vault.sol\":6130:6914  function exit(uint256 _amount) public nonReentrant IsLocked {... */\n    tag_63:\n        /* \"lib/openzeppelin-contracts/contracts/utils/ReentrancyGuard.sol\":2356:2377  _nonReentrantBefore() */\n      tag_176\n        /* \"lib/openzeppelin-contracts/contracts/utils/ReentrancyGuard.sol\":2356:2375  _nonReentrantBefore */\n      tag_177\n        /* \"lib/openzeppelin-contracts/contracts/utils/ReentrancyGuard.sol\":2356:2377  _nonReentrantBefore() */\n      jump\t// in\n    tag_176:\n        /* \"src/Vault.sol\":4909:4915  locked */\n      0x07\n      0x00\n      swap1\n      sload\n      swap1\n      0x0100\n      exp\n      swap1\n      div\n      0xff\n      and\n        /* \"src/Vault.sol\":4906:4940  if(locked) revert ContractLocked() */\n      iszero\n      tag_179\n      jumpi\n        /* \"src/Vault.sol\":4924:4940  ContractLocked() */\n      mload(0x40)\n      0x6f5ffb7e00000000000000000000000000000000000000000000000000000000\n      dup2\n      mstore\n      0x04\n      add\n      mload(0x40)\n      dup1\n      swap2\n      sub\n      swap1\n      revert\n        /* \"src/Vault.sol\":4906:4940  if(locked) revert ContractLocked() */\n    tag_179:\n        /* \"src/Vault.sol\":6226:6242  EpochStatus.Open */\n      0x00\n        /* \"src/Vault.sol\":6204:6242  currentEpochStatus != EpochStatus.Open */\n      0x01\n      dup2\n      gt\n      iszero\n      tag_181\n      jumpi\n      tag_182\n      tag_142\n      jump\t// in\n    tag_182:\n    tag_181:\n        /* \"src/Vault.sol\":6204:6222  currentEpochStatus */\n      0x02\n      0x00\n      swap1\n      sload\n      swap1\n      0x0100\n      exp\n      swap1\n      div\n      0xff\n      and\n        /* \"src/Vault.sol\":6204:6242  currentEpochStatus != EpochStatus.Open */\n      0x01\n      dup2\n      gt\n      iszero\n      tag_183\n      jumpi\n      tag_184\n      tag_142\n      jump\t// in\n    tag_184:\n    tag_183:\n      eq\n        /* \"src/Vault.sol\":6200:6301  if (currentEpochStatus != EpochStatus.Open) revert WrongPhase(\"EXIT: only allowed during open phase\") */\n      tag_185\n      jumpi\n        /* \"src/Vault.sol\":6251:6301  WrongPhase(\"EXIT: only allowed during open phase\") */\n      mload(0x40)\n      0xfcbfb2b100000000000000000000000000000000000000000000000000000000\n      dup2\n      mstore\n      0x04\n      add\n      tag_186\n      swap1\n      tag_187\n      jump\t// in\n    tag_186:\n      mload(0x40)\n      dup1\n      swap2\n      sub\n      swap1\n      revert\n        /* \"src/Vault.sol\":6200:6301  if (currentEpochStatus != EpochStatus.Open) revert WrongPhase(\"EXIT: only allowed during open phase\") */\n    tag_185:\n        /* \"src/Vault.sol\":6311:6338  UserStake storage userStake */\n      0x00\n        /* \"src/Vault.sol\":6341:6351  userStakes */\n      0x05\n        /* \"src/Vault.sol\":6341:6363  userStakes[msg.sender] */\n      0x00\n        /* \"src/Vault.sol\":6352:6362  msg.sender */\n      caller\n        /* \"src/Vault.sol\":6341:6363  userStakes[msg.sender] */\n      0xffffffffffffffffffffffffffffffffffffffff\n      and\n      0xffffffffffffffffffffffffffffffffffffffff\n      and\n      dup2\n      mstore\n      0x20\n      add\n      swap1\n      dup2\n      mstore\n      0x20\n      add\n      0x00\n      keccak256\n        /* \"src/Vault.sol\":6311:6363  UserStake storage userStake = userStakes[msg.sender] */\n      swap1\n      pop\n        /* \"src/Vault.sol\":6396:6403  _amount */\n      dup2\n        /* \"src/Vault.sol\":6377:6386  userStake */\n      dup2\n        /* \"src/Vault.sol\":6377:6393  userStake.amount */\n      0x00\n      add\n      sload\n        /* \"src/Vault.sol\":6377:6403  userStake.amount < _amount */\n      lt\n        /* \"src/Vault.sol\":6373:6458  if (userStake.amount < _amount) revert InsufficientBalance(_amount, userStake.amount) */\n      iszero\n      tag_188\n      jumpi\n        /* \"src/Vault.sol\":6432:6439  _amount */\n      dup2\n        /* \"src/Vault.sol\":6441:6450  userStake */\n      dup2\n        /* \"src/Vault.sol\":6441:6457  userStake.amount */\n      0x00\n      add\n      sload\n        /* \"src/Vault.sol\":6412:6458  InsufficientBalance(_amount, userStake.amount) */\n      mload(0x40)\n      0xcf47918100000000000000000000000000000000000000000000000000000000\n      dup2\n      mstore\n      0x04\n      add\n      tag_189\n      swap3\n      swap2\n      swap1\n      tag_73\n      jump\t// in\n    tag_189:\n      mload(0x40)\n      dup1\n      swap2\n      sub\n      swap1\n      revert\n        /* \"src/Vault.sol\":6373:6458  if (userStake.amount < _amount) revert InsufficientBalance(_amount, userStake.amount) */\n    tag_188:\n        /* \"src/Vault.sol\":6482:6483  0 */\n      0x00\n        /* \"src/Vault.sol\":6471:6478  _amount */\n      dup3\n        /* \"src/Vault.sol\":6471:6483  _amount == 0 */\n      sub\n        /* \"src/Vault.sol\":6468:6521  if(_amount == 0) revert AmountMustBeGreaterThanZero() */\n      tag_190\n      jumpi\n        /* \"src/Vault.sol\":6492:6521  AmountMustBeGreaterThanZero() */\n      mload(0x40)\n      0x5e85ae7300000000000000000000000000000000000000000000000000000000\n      dup2\n      mstore\n      0x04\n      add\n      mload(0x40)\n      dup1\n      swap2\n      sub\n      swap1\n      revert\n        /* \"src/Vault.sol\":6468:6521  if(_amount == 0) revert AmountMustBeGreaterThanZero() */\n    tag_190:\n        /* \"src/Vault.sol\":6575:6606  hasClaimableRewards(msg.sender) */\n      tag_191\n        /* \"src/Vault.sol\":6595:6605  msg.sender */\n      caller\n        /* \"src/Vault.sol\":6575:6594  hasClaimableRewards */\n      tag_87\n        /* \"src/Vault.sol\":6575:6606  hasClaimableRewards(msg.sender) */\n      jump\t// in\n    tag_191:\n        /* \"src/Vault.sol\":6572:6633  if(hasClaimableRewards(msg.sender)) _claimRewards(msg.sender) */\n      iszero\n      tag_192\n      jumpi\n        /* \"src/Vault.sol\":6608:6633  _claimRewards(msg.sender) */\n      tag_193\n        /* \"src/Vault.sol\":6622:6632  msg.sender */\n      caller\n        /* \"src/Vault.sol\":6608:6621  _claimRewards */\n      tag_131\n        /* \"src/Vault.sol\":6608:6633  _claimRewards(msg.sender) */\n      jump\t// in\n    tag_193:\n        /* \"src/Vault.sol\":6572:6633  if(hasClaimableRewards(msg.sender)) _claimRewards(msg.sender) */\n    tag_192:\n        /* \"src/Vault.sol\":6664:6671  _amount */\n      dup2\n        /* \"src/Vault.sol\":6644:6653  userStake */\n      dup2\n        /* \"src/Vault.sol\":6644:6660  userStake.amount */\n      0x00\n      add\n      0x00\n        /* \"src/Vault.sol\":6644:6671  userStake.amount -= _amount */\n      dup3\n      dup3\n      sload\n      tag_194\n      swap2\n      swap1\n      tag_195\n      jump\t// in\n    tag_194:\n      swap3\n      pop\n      pop\n      dup2\n      swap1\n      sstore\n      pop\n        /* \"src/Vault.sol\":6724:6731  _amount */\n      dup2\n        /* \"src/Vault.sol\":6681:6687  epochs */\n      0x03\n        /* \"src/Vault.sol\":6688:6702  currentEpochId */\n      sload(0x04)\n        /* \"src/Vault.sol\":6681:6703  epochs[currentEpochId] */\n      dup2\n      sload\n      dup2\n      lt\n      tag_196\n      jumpi\n      tag_197\n      tag_153\n      jump\t// in\n    tag_197:\n    tag_196:\n      swap1\n      0x00\n      mstore\n      keccak256(0x00, 0x20)\n      swap1\n      0x02\n      mul\n      add\n        /* \"src/Vault.sol\":6681:6720  epochs[currentEpochId].totalValueLocked */\n      0x00\n      add\n      0x00\n        /* \"src/Vault.sol\":6681:6731  epochs[currentEpochId].totalValueLocked -= _amount */\n      dup3\n      dup3\n      sload\n      tag_199\n      swap2\n      swap1\n      tag_195\n      jump\t// in\n    tag_199:\n      swap3\n      pop\n      pop\n      dup2\n      swap1\n      sstore\n      pop\n        /* \"src/Vault.sol\":6743:6755  bool success */\n      0x00\n        /* \"src/Vault.sol\":6760:6770  msg.sender */\n      caller\n        /* \"src/Vault.sol\":6760:6775  msg.sender.call */\n      0xffffffffffffffffffffffffffffffffffffffff\n      and\n        /* \"src/Vault.sol\":6783:6790  _amount */\n      dup4\n        /* \"src/Vault.sol\":6760:6795  msg.sender.call{value: _amount}(\"\") */\n      mload(0x40)\n      tag_200\n      swap1\n      tag_201\n      jump\t// in\n    tag_200:\n      0x00\n      mload(0x40)\n      dup1\n      dup4\n      sub\n      dup2\n      dup6\n      dup8\n      gas\n      call\n      swap3\n      pop\n      pop\n      pop\n      returndatasize\n      dup1\n      0x00\n      dup2\n      eq\n      tag_204\n      jumpi\n      mload(0x40)\n      swap2\n      pop\n      and(add(returndatasize, 0x3f), not(0x1f))\n      dup3\n      add\n      0x40\n      mstore\n      returndatasize\n      dup3\n      mstore\n      returndatasize\n      0x00\n      0x20\n      dup5\n      add\n      returndatacopy\n      jump(tag_203)\n    tag_204:\n      0x60\n      swap2\n      pop\n    tag_203:\n      pop\n        /* \"src/Vault.sol\":6742:6795  (bool success,) = msg.sender.call{value: _amount}(\"\") */\n      pop\n      swap1\n      pop\n        /* \"src/Vault.sol\":6810:6817  success */\n      dup1\n        /* \"src/Vault.sol\":6805:6842  if (!success) revert TransferFailed() */\n      tag_205\n      jumpi\n        /* \"src/Vault.sol\":6826:6842  TransferFailed() */\n      mload(0x40)\n      0x90b8ec1800000000000000000000000000000000000000000000000000000000\n      dup2\n      mstore\n      0x04\n      add\n      mload(0x40)\n      dup1\n      swap2\n      sub\n      swap1\n      revert\n        /* \"src/Vault.sol\":6805:6842  if (!success) revert TransferFailed() */\n    tag_205:\n        /* \"src/Vault.sol\":6871:6881  msg.sender */\n      caller\n        /* \"src/Vault.sol\":6858:6907  UserWithdraw(msg.sender, _amount, currentEpochId) */\n      0xffffffffffffffffffffffffffffffffffffffff\n      and\n      0xd2263e970e3552b8e14c013f4d6af030894ef3ae6f025607042368db047a4418\n        /* \"src/Vault.sol\":6883:6890  _amount */\n      dup5\n        /* \"src/Vault.sol\":6892:6906  currentEpochId */\n      sload(0x04)\n        /* \"src/Vault.sol\":6858:6907  UserWithdraw(msg.sender, _amount, currentEpochId) */\n      mload(0x40)\n      tag_206\n      swap3\n      swap2\n      swap1\n      tag_73\n      jump\t// in\n    tag_206:\n      mload(0x40)\n      dup1\n      swap2\n      sub\n      swap1\n      log2\n        /* \"src/Vault.sol\":6190:6914  {... */\n      pop\n      pop\n        /* \"lib/openzeppelin-contracts/contracts/utils/ReentrancyGuard.sol\":2398:2418  _nonReentrantAfter() */\n      tag_207\n        /* \"lib/openzeppelin-contracts/contracts/utils/ReentrancyGuard.sol\":2398:2416  _nonReentrantAfter */\n      tag_208\n        /* \"lib/openzeppelin-contracts/contracts/utils/ReentrancyGuard.sol\":2398:2418  _nonReentrantAfter() */\n      jump\t// in\n    tag_207:\n        /* \"src/Vault.sol\":6130:6914  function exit(uint256 _amount) public nonReentrant IsLocked {... */\n      pop\n      jump\t// out\n        /* \"lib/openzeppelin-contracts/contracts/access/Ownable.sol\":1638:1723  function owner() public view virtual returns (address) {... */\n    tag_66:\n        /* \"lib/openzeppelin-contracts/contracts/access/Ownable.sol\":1684:1691  address */\n      0x00\n        /* \"lib/openzeppelin-contracts/contracts/access/Ownable.sol\":1710:1716  _owner */\n      dup1\n      0x00\n      swap1\n      sload\n      swap1\n      0x0100\n      exp\n      swap1\n      div\n      0xffffffffffffffffffffffffffffffffffffffff\n      and\n        /* \"lib/openzeppelin-contracts/contracts/access/Ownable.sol\":1703:1716  return _owner */\n      swap1\n      pop\n        /* \"lib/openzeppelin-contracts/contracts/access/Ownable.sol\":1638:1723  function owner() public view virtual returns (address) {... */\n      swap1\n      jump\t// out\n        /* \"src/Vault.sol\":2630:2677  mapping(address => UserStake) public userStakes */\n    tag_71:\n      mstore(0x20, 0x05)\n      dup1\n      0x00\n      mstore\n      keccak256(0x00, 0x40)\n      0x00\n      swap2\n      pop\n      swap1\n      pop\n      dup1\n      0x00\n      add\n      sload\n      swap1\n      dup1\n      0x01\n      add\n      sload\n      swap1\n      pop\n      dup3\n      jump\t// out\n        /* \"src/Vault.sol\":11281:12054  function lockFundsAndRunCurrentEpoch() external onlyOwner {... */\n    tag_76:\n        /* \"lib/openzeppelin-contracts/contracts/access/Ownable.sol\":1531:1544  _checkOwner() */\n      tag_211\n        /* \"lib/openzeppelin-contracts/contracts/access/Ownable.sol\":1531:1542  _checkOwner */\n      tag_120\n        /* \"lib/openzeppelin-contracts/contracts/access/Ownable.sol\":1531:1544  _checkOwner() */\n      jump\t// in\n    tag_211:\n        /* \"src/Vault.sol\":11375:11391  EpochStatus.Open */\n      0x00\n        /* \"src/Vault.sol\":11353:11391  currentEpochStatus != EpochStatus.Open */\n      0x01\n      dup2\n      gt\n      iszero\n      tag_213\n      jumpi\n      tag_214\n      tag_142\n      jump\t// in\n    tag_214:\n    tag_213:\n        /* \"src/Vault.sol\":11353:11371  currentEpochStatus */\n      0x02\n      0x00\n      swap1\n      sload\n      swap1\n      0x0100\n      exp\n      swap1\n      div\n      0xff\n      and\n        /* \"src/Vault.sol\":11353:11391  currentEpochStatus != EpochStatus.Open */\n      0x01\n      dup2\n      gt\n      iszero\n      tag_215\n      jumpi\n      tag_216\n      tag_142\n      jump\t// in\n    tag_216:\n    tag_215:\n      eq\n        /* \"src/Vault.sol\":11349:11488  if (currentEpochStatus != EpochStatus.Open) {... */\n      tag_217\n      jumpi\n        /* \"src/Vault.sol\":11414:11477  WrongPhase(\"RUN EPOCH: can only start running from open phase\") */\n      mload(0x40)\n      0xfcbfb2b100000000000000000000000000000000000000000000000000000000\n      dup2\n      mstore\n      0x04\n      add\n      tag_218\n      swap1\n      tag_219\n      jump\t// in\n    tag_218:\n      mload(0x40)\n      dup1\n      swap2\n      sub\n      swap1\n      revert\n        /* \"src/Vault.sol\":11349:11488  if (currentEpochStatus != EpochStatus.Open) {... */\n    tag_217:\n        /* \"src/Vault.sol\":11519:11538  EpochStatus.Running */\n      0x01\n        /* \"src/Vault.sol\":11498:11516  currentEpochStatus */\n      0x02\n      0x00\n        /* \"src/Vault.sol\":11498:11538  currentEpochStatus = EpochStatus.Running */\n      0x0100\n      exp\n      dup2\n      sload\n      dup2\n      0xff\n      mul\n      not\n      and\n      swap1\n      dup4\n      0x01\n      dup2\n      gt\n      iszero\n      tag_220\n      jumpi\n      tag_221\n      tag_142\n      jump\t// in\n    tag_221:\n    tag_220:\n      mul\n      or\n      swap1\n      sstore\n      pop\n        /* \"src/Vault.sol\":11567:11572  false */\n      0x00\n        /* \"src/Vault.sol\":11548:11564  claimableRewards */\n      0x02\n      0x15\n        /* \"src/Vault.sol\":11548:11572  claimableRewards = false */\n      0x0100\n      exp\n      dup2\n      sload\n      dup2\n      0xff\n      mul\n      not\n      and\n      swap1\n      dup4\n      iszero\n      iszero\n      mul\n      or\n      swap1\n      sstore\n      pop\n        /* \"src/Vault.sol\":11649:11673  uint256 amountToTransfer */\n      0x00\n        /* \"src/Vault.sol\":11676:11682  epochs */\n      0x03\n        /* \"src/Vault.sol\":11683:11697  currentEpochId */\n      sload(0x04)\n        /* \"src/Vault.sol\":11676:11698  epochs[currentEpochId] */\n      dup2\n      sload\n      dup2\n      lt\n      tag_222\n      jumpi\n      tag_223\n      tag_153\n      jump\t// in\n    tag_223:\n    tag_222:\n      swap1\n      0x00\n      mstore\n      keccak256(0x00, 0x20)\n      swap1\n      0x02\n      mul\n      add\n        /* \"src/Vault.sol\":11676:11715  epochs[currentEpochId].totalValueLocked */\n      0x00\n      add\n      sload\n        /* \"src/Vault.sol\":11649:11715  uint256 amountToTransfer = epochs[currentEpochId].totalValueLocked */\n      swap1\n      pop\n        /* \"src/Vault.sol\":11726:11738  bool success */\n      0x00\n        /* \"src/Vault.sol\":11751:11761  fundWallet */\n      0x02\n      0x01\n      swap1\n      sload\n      swap1\n      0x0100\n      exp\n      swap1\n      div\n      0xffffffffffffffffffffffffffffffffffffffff\n      and\n        /* \"src/Vault.sol\":11743:11767  address(fundWallet).call */\n      0xffffffffffffffffffffffffffffffffffffffff\n      and\n        /* \"src/Vault.sol\":11775:11791  amountToTransfer */\n      dup3\n        /* \"src/Vault.sol\":11743:11796  address(fundWallet).call{value: amountToTransfer}(\"\") */\n      mload(0x40)\n      tag_225\n      swap1\n      tag_201\n      jump\t// in\n    tag_225:\n      0x00\n      mload(0x40)\n      dup1\n      dup4\n      sub\n      dup2\n      dup6\n      dup8\n      gas\n      call\n      swap3\n      pop\n      pop\n      pop\n      returndatasize\n      dup1\n      0x00\n      dup2\n      eq\n      tag_228\n      jumpi\n      mload(0x40)\n      swap2\n      pop\n      and(add(returndatasize, 0x3f), not(0x1f))\n      dup3\n      add\n      0x40\n      mstore\n      returndatasize\n      dup3\n      mstore\n      returndatasize\n      0x00\n      0x20\n      dup5\n      add\n      returndatacopy\n      jump(tag_227)\n    tag_228:\n      0x60\n      swap2\n      pop\n    tag_227:\n      pop\n        /* \"src/Vault.sol\":11725:11796  (bool success,) = address(fundWallet).call{value: amountToTransfer}(\"\") */\n      pop\n      swap1\n      pop\n        /* \"src/Vault.sol\":11811:11818  success */\n      dup1\n        /* \"src/Vault.sol\":11806:11843  if (!success) revert TransferFailed() */\n      tag_229\n      jumpi\n        /* \"src/Vault.sol\":11827:11843  TransferFailed() */\n      mload(0x40)\n      0x90b8ec1800000000000000000000000000000000000000000000000000000000\n      dup2\n      mstore\n      0x04\n      add\n      mload(0x40)\n      dup1\n      swap2\n      sub\n      swap1\n      revert\n        /* \"src/Vault.sol\":11806:11843  if (!success) revert TransferFailed() */\n    tag_229:\n        /* \"src/Vault.sol\":11859:11892  RewardsClaimabilityChanged(false) */\n      0xbba732616e420f73d99f0db8b286a4d23e682e7317282ff0723f9dc8daf98809\n        /* \"src/Vault.sol\":11886:11891  false */\n      0x00\n        /* \"src/Vault.sol\":11859:11892  RewardsClaimabilityChanged(false) */\n      mload(0x40)\n      tag_230\n      swap2\n      swap1\n      tag_56\n      jump\t// in\n    tag_230:\n      mload(0x40)\n      dup1\n      swap2\n      sub\n      swap1\n      log1\n        /* \"src/Vault.sol\":11954:11968  currentEpochId */\n      sload(0x04)\n        /* \"src/Vault.sol\":11907:11969  FundsTransferredToFundWallet(amountToTransfer, currentEpochId) */\n      0x04ded3f62ae2ab4717c7253fd9d8a4b3f253afc40fd5280a272755ce344d1cc6\n        /* \"src/Vault.sol\":11936:11952  amountToTransfer */\n      dup4\n        /* \"src/Vault.sol\":11907:11969  FundsTransferredToFundWallet(amountToTransfer, currentEpochId) */\n      mload(0x40)\n      tag_231\n      swap2\n      swap1\n      tag_36\n      jump\t// in\n    tag_231:\n      mload(0x40)\n      dup1\n      swap2\n      sub\n      swap1\n      log2\n        /* \"src/Vault.sol\":11997:12011  currentEpochId */\n      sload(0x04)\n        /* \"src/Vault.sol\":11984:12047  EpochRunning(currentEpochId, block.timestamp, amountToTransfer) */\n      0x52c5abe9e004b5b25ca01e93c14fc741f8f6f73683e7299cbb65a18b8c6296a2\n        /* \"src/Vault.sol\":12013:12028  block.timestamp */\n      timestamp\n        /* \"src/Vault.sol\":12030:12046  amountToTransfer */\n      dup5\n        /* \"src/Vault.sol\":11984:12047  EpochRunning(currentEpochId, block.timestamp, amountToTransfer) */\n      mload(0x40)\n      tag_232\n      swap3\n      swap2\n      swap1\n      tag_73\n      jump\t// in\n    tag_232:\n      mload(0x40)\n      dup1\n      swap2\n      sub\n      swap1\n      log2\n        /* \"src/Vault.sol\":11339:12054  {... */\n      pop\n      pop\n        /* \"src/Vault.sol\":11281:12054  function lockFundsAndRunCurrentEpoch() external onlyOwner {... */\n      jump\t// out\n        /* \"src/Vault.sol\":10528:11105  function allocateRewards() external payable onlyOwner {... */\n    tag_78:\n        /* \"lib/openzeppelin-contracts/contracts/access/Ownable.sol\":1531:1544  _checkOwner() */\n      tag_234\n        /* \"lib/openzeppelin-contracts/contracts/access/Ownable.sol\":1531:1542  _checkOwner */\n      tag_120\n        /* \"lib/openzeppelin-contracts/contracts/access/Ownable.sol\":1531:1544  _checkOwner() */\n      jump\t// in\n    tag_234:\n        /* \"src/Vault.sol\":10618:10637  EpochStatus.Running */\n      0x01\n        /* \"src/Vault.sol\":10596:10637  currentEpochStatus != EpochStatus.Running */\n      dup1\n      dup2\n      gt\n      iszero\n      tag_236\n      jumpi\n      tag_237\n      tag_142\n      jump\t// in\n    tag_237:\n    tag_236:\n        /* \"src/Vault.sol\":10596:10614  currentEpochStatus */\n      0x02\n      0x00\n      swap1\n      sload\n      swap1\n      0x0100\n      exp\n      swap1\n      div\n      0xff\n      and\n        /* \"src/Vault.sol\":10596:10637  currentEpochStatus != EpochStatus.Running */\n      0x01\n      dup2\n      gt\n      iszero\n      tag_238\n      jumpi\n      tag_239\n      tag_142\n      jump\t// in\n    tag_239:\n    tag_238:\n      eq\n        /* \"src/Vault.sol\":10592:10702  if (currentEpochStatus != EpochStatus.Running) revert WrongPhase(\"ALLOCATE REWARDS: must be in running phase\") */\n      tag_240\n      jumpi\n        /* \"src/Vault.sol\":10646:10702  WrongPhase(\"ALLOCATE REWARDS: must be in running phase\") */\n      mload(0x40)\n      0xfcbfb2b100000000000000000000000000000000000000000000000000000000\n      dup2\n      mstore\n      0x04\n      add\n      tag_241\n      swap1\n      tag_242\n      jump\t// in\n    tag_241:\n      mload(0x40)\n      dup1\n      swap2\n      sub\n      swap1\n      revert\n        /* \"src/Vault.sol\":10592:10702  if (currentEpochStatus != EpochStatus.Running) revert WrongPhase(\"ALLOCATE REWARDS: must be in running phase\") */\n    tag_240:\n        /* \"src/Vault.sol\":10729:10730  0 */\n      0x00\n        /* \"src/Vault.sol\":10716:10725  msg.value */\n      callvalue\n        /* \"src/Vault.sol\":10716:10730  msg.value == 0 */\n      sub\n        /* \"src/Vault.sol\":10712:10760  if (msg.value == 0) revert NoRewardsToAllocate() */\n      tag_243\n      jumpi\n        /* \"src/Vault.sol\":10739:10760  NoRewardsToAllocate() */\n      mload(0x40)\n      0x9123564a00000000000000000000000000000000000000000000000000000000\n      dup2\n      mstore\n      0x04\n      add\n      mload(0x40)\n      dup1\n      swap2\n      sub\n      swap1\n      revert\n        /* \"src/Vault.sol\":10712:10760  if (msg.value == 0) revert NoRewardsToAllocate() */\n    tag_243:\n        /* \"src/Vault.sol\":10771:10797  Epoch storage currentEpoch */\n      0x00\n        /* \"src/Vault.sol\":10800:10806  epochs */\n      0x03\n        /* \"src/Vault.sol\":10807:10821  currentEpochId */\n      sload(0x04)\n        /* \"src/Vault.sol\":10800:10822  epochs[currentEpochId] */\n      dup2\n      sload\n      dup2\n      lt\n      tag_244\n      jumpi\n      tag_245\n      tag_153\n      jump\t// in\n    tag_245:\n    tag_244:\n      swap1\n      0x00\n      mstore\n      keccak256(0x00, 0x20)\n      swap1\n      0x02\n      mul\n      add\n        /* \"src/Vault.sol\":10771:10822  Epoch storage currentEpoch = epochs[currentEpochId] */\n      swap1\n      pop\n        /* \"src/Vault.sol\":10870:10871  0 */\n      0x00\n        /* \"src/Vault.sol\":10836:10848  currentEpoch */\n      dup2\n        /* \"src/Vault.sol\":10836:10866  currentEpoch.totalEpochRewards */\n      0x01\n      add\n      sload\n        /* \"src/Vault.sol\":10836:10871  currentEpoch.totalEpochRewards != 0 */\n      eq\n        /* \"src/Vault.sol\":10832:10905  if (currentEpoch.totalEpochRewards != 0) revert RewardsAlreadyAllocated() */\n      tag_247\n      jumpi\n        /* \"src/Vault.sol\":10880:10905  RewardsAlreadyAllocated() */\n      mload(0x40)\n      0xec94ce5000000000000000000000000000000000000000000000000000000000\n      dup2\n      mstore\n      0x04\n      add\n      mload(0x40)\n      dup1\n      swap2\n      sub\n      swap1\n      revert\n        /* \"src/Vault.sol\":10832:10905  if (currentEpoch.totalEpochRewards != 0) revert RewardsAlreadyAllocated() */\n    tag_247:\n        /* \"src/Vault.sol\":10949:10958  msg.value */\n      callvalue\n        /* \"src/Vault.sol\":10916:10928  currentEpoch */\n      dup2\n        /* \"src/Vault.sol\":10916:10946  currentEpoch.totalEpochRewards */\n      0x01\n      add\n        /* \"src/Vault.sol\":10916:10958  currentEpoch.totalEpochRewards = msg.value */\n      dup2\n      swap1\n      sstore\n      pop\n        /* \"src/Vault.sol\":10988:10992  true */\n      0x01\n        /* \"src/Vault.sol\":10969:10985  claimableRewards */\n      0x02\n      0x15\n        /* \"src/Vault.sol\":10969:10992  claimableRewards = true */\n      0x0100\n      exp\n      dup2\n      sload\n      dup2\n      0xff\n      mul\n      not\n      and\n      swap1\n      dup4\n      iszero\n      iszero\n      mul\n      or\n      swap1\n      sstore\n      pop\n        /* \"src/Vault.sol\":11025:11039  currentEpochId */\n      sload(0x04)\n        /* \"src/Vault.sol\":11008:11051  RewardsAllocated(currentEpochId, msg.value) */\n      0xf9ecaf62687e41c2eb3b9f3bb3e5562b198859fda05aed70e3cc7e3a060e8c9d\n        /* \"src/Vault.sol\":11041:11050  msg.value */\n      callvalue\n        /* \"src/Vault.sol\":11008:11051  RewardsAllocated(currentEpochId, msg.value) */\n      mload(0x40)\n      tag_248\n      swap2\n      swap1\n      tag_36\n      jump\t// in\n    tag_248:\n      mload(0x40)\n      dup1\n      swap2\n      sub\n      swap1\n      log2\n        /* \"src/Vault.sol\":11066:11098  RewardsClaimabilityChanged(true) */\n      0xbba732616e420f73d99f0db8b286a4d23e682e7317282ff0723f9dc8daf98809\n        /* \"src/Vault.sol\":11093:11097  true */\n      0x01\n        /* \"src/Vault.sol\":11066:11098  RewardsClaimabilityChanged(true) */\n      mload(0x40)\n      tag_249\n      swap2\n      swap1\n      tag_56\n      jump\t// in\n    tag_249:\n      mload(0x40)\n      dup1\n      swap2\n      sub\n      swap1\n      log1\n        /* \"src/Vault.sol\":10582:11105  {... */\n      pop\n        /* \"src/Vault.sol\":10528:11105  function allocateRewards() external payable onlyOwner {... */\n      jump\t// out\n        /* \"src/Vault.sol\":2182:2219  EpochStatus public currentEpochStatus */\n    tag_81:\n      0x02\n      0x00\n      swap1\n      sload\n      swap1\n      0x0100\n      exp\n      swap1\n      div\n      0xff\n      and\n      dup2\n      jump\t// out\n        /* \"src/Vault.sol\":7492:7927  function hasClaimableRewards(address _user) public view returns (bool) {... */\n    tag_87:\n        /* \"src/Vault.sol\":7557:7561  bool */\n      0x00\n        /* \"src/Vault.sol\":7604:7605  0 */\n      dup1\n        /* \"src/Vault.sol\":7576:7586  userStakes */\n      0x05\n        /* \"src/Vault.sol\":7576:7593  userStakes[_user] */\n      0x00\n        /* \"src/Vault.sol\":7587:7592  _user */\n      dup5\n        /* \"src/Vault.sol\":7576:7593  userStakes[_user] */\n      0xffffffffffffffffffffffffffffffffffffffff\n      and\n      0xffffffffffffffffffffffffffffffffffffffff\n      and\n      dup2\n      mstore\n      0x20\n      add\n      swap1\n      dup2\n      mstore\n      0x20\n      add\n      0x00\n      keccak256\n        /* \"src/Vault.sol\":7576:7600  userStakes[_user].amount */\n      0x00\n      add\n      sload\n        /* \"src/Vault.sol\":7576:7605  userStakes[_user].amount == 0 */\n      sub\n        /* \"src/Vault.sol\":7573:7619  if(userStakes[_user].amount == 0) return false */\n      tag_251\n      jumpi\n        /* \"src/Vault.sol\":7614:7619  false */\n      0x00\n        /* \"src/Vault.sol\":7607:7619  return false */\n      swap1\n      pop\n      jump(tag_250)\n        /* \"src/Vault.sol\":7573:7619  if(userStakes[_user].amount == 0) return false */\n    tag_251:\n        /* \"src/Vault.sol\":7650:7651  1 */\n      0x01\n        /* \"src/Vault.sol\":7632:7646  currentEpochId */\n      sload(0x04)\n        /* \"src/Vault.sol\":7632:7651  currentEpochId == 1 */\n      eq\n        /* \"src/Vault.sol\":7632:7672  currentEpochId == 1 && !claimableRewards */\n      dup1\n      iszero\n      tag_252\n      jumpi\n      pop\n        /* \"src/Vault.sol\":7656:7672  claimableRewards */\n      0x02\n      0x15\n      swap1\n      sload\n      swap1\n      0x0100\n      exp\n      swap1\n      div\n      0xff\n      and\n        /* \"src/Vault.sol\":7655:7672  !claimableRewards */\n      iszero\n        /* \"src/Vault.sol\":7632:7672  currentEpochId == 1 && !claimableRewards */\n    tag_252:\n        /* \"src/Vault.sol\":7629:7686  if(currentEpochId == 1 && !claimableRewards) return false */\n      iszero\n      tag_253\n      jumpi\n        /* \"src/Vault.sol\":7681:7686  false */\n      0x00\n        /* \"src/Vault.sol\":7674:7686  return false */\n      swap1\n      pop\n      jump(tag_250)\n        /* \"src/Vault.sol\":7629:7686  if(currentEpochId == 1 && !claimableRewards) return false */\n    tag_253:\n        /* \"src/Vault.sol\":7721:7737  EpochStatus.Open */\n      0x00\n        /* \"src/Vault.sol\":7699:7737  currentEpochStatus == EpochStatus.Open */\n      0x01\n      dup2\n      gt\n      iszero\n      tag_254\n      jumpi\n      tag_255\n      tag_142\n      jump\t// in\n    tag_255:\n    tag_254:\n        /* \"src/Vault.sol\":7699:7717  currentEpochStatus */\n      0x02\n      0x00\n      swap1\n      sload\n      swap1\n      0x0100\n      exp\n      swap1\n      div\n      0xff\n      and\n        /* \"src/Vault.sol\":7699:7737  currentEpochStatus == EpochStatus.Open */\n      0x01\n      dup2\n      gt\n      iszero\n      tag_256\n      jumpi\n      tag_257\n      tag_142\n      jump\t// in\n    tag_257:\n    tag_256:\n      eq\n        /* \"src/Vault.sol\":7699:7799  currentEpochStatus == EpochStatus.Open && userStakes[_user].lastEpochClaimedAt == currentEpochId - 1 */\n      dup1\n      iszero\n      tag_258\n      jumpi\n      pop\n        /* \"src/Vault.sol\":7798:7799  1 */\n      0x01\n        /* \"src/Vault.sol\":7781:7795  currentEpochId */\n      sload(0x04)\n        /* \"src/Vault.sol\":7781:7799  currentEpochId - 1 */\n      tag_259\n      swap2\n      swap1\n      tag_195\n      jump\t// in\n    tag_259:\n        /* \"src/Vault.sol\":7741:7751  userStakes */\n      0x05\n        /* \"src/Vault.sol\":7741:7758  userStakes[_user] */\n      0x00\n        /* \"src/Vault.sol\":7752:7757  _user */\n      dup5\n        /* \"src/Vault.sol\":7741:7758  userStakes[_user] */\n      0xffffffffffffffffffffffffffffffffffffffff\n      and\n      0xffffffffffffffffffffffffffffffffffffffff\n      and\n      dup2\n      mstore\n      0x20\n      add\n      swap1\n      dup2\n      mstore\n      0x20\n      add\n      0x00\n      keccak256\n        /* \"src/Vault.sol\":7741:7777  userStakes[_user].lastEpochClaimedAt */\n      0x01\n      add\n      sload\n        /* \"src/Vault.sol\":7741:7799  userStakes[_user].lastEpochClaimedAt == currentEpochId - 1 */\n      eq\n        /* \"src/Vault.sol\":7699:7799  currentEpochStatus == EpochStatus.Open && userStakes[_user].lastEpochClaimedAt == currentEpochId - 1 */\n    tag_258:\n        /* \"src/Vault.sol\":7696:7813  if(currentEpochStatus == EpochStatus.Open && userStakes[_user].lastEpochClaimedAt == currentEpochId - 1) return false */\n      iszero\n      tag_260\n      jumpi\n        /* \"src/Vault.sol\":7808:7813  false */\n      0x00\n        /* \"src/Vault.sol\":7801:7813  return false */\n      swap1\n      pop\n      jump(tag_250)\n        /* \"src/Vault.sol\":7696:7813  if(currentEpochStatus == EpochStatus.Open && userStakes[_user].lastEpochClaimedAt == currentEpochId - 1) return false */\n    tag_260:\n        /* \"src/Vault.sol\":7866:7880  currentEpochId */\n      sload(0x04)\n        /* \"src/Vault.sol\":7826:7836  userStakes */\n      0x05\n        /* \"src/Vault.sol\":7826:7843  userStakes[_user] */\n      0x00\n        /* \"src/Vault.sol\":7837:7842  _user */\n      dup5\n        /* \"src/Vault.sol\":7826:7843  userStakes[_user] */\n      0xffffffffffffffffffffffffffffffffffffffff\n      and\n      0xffffffffffffffffffffffffffffffffffffffff\n      and\n      dup2\n      mstore\n      0x20\n      add\n      swap1\n      dup2\n      mstore\n      0x20\n      add\n      0x00\n      keccak256\n        /* \"src/Vault.sol\":7826:7862  userStakes[_user].lastEpochClaimedAt */\n      0x01\n      add\n      sload\n        /* \"src/Vault.sol\":7826:7880  userStakes[_user].lastEpochClaimedAt == currentEpochId */\n      sub\n        /* \"src/Vault.sol\":7823:7920  if(userStakes[_user].lastEpochClaimedAt == currentEpochId) return false;... */\n      tag_261\n      jumpi\n        /* \"src/Vault.sol\":7889:7894  false */\n      0x00\n        /* \"src/Vault.sol\":7882:7894  return false */\n      swap1\n      pop\n      jump(tag_250)\n        /* \"src/Vault.sol\":7823:7920  if(userStakes[_user].lastEpochClaimedAt == currentEpochId) return false;... */\n    tag_261:\n        /* \"src/Vault.sol\":7916:7920  true */\n      0x01\n        /* \"src/Vault.sol\":7909:7920  return true */\n      swap1\n      pop\n        /* \"src/Vault.sol\":7492:7927  function hasClaimableRewards(address _user) public view returns (bool) {... */\n    tag_250:\n      swap2\n      swap1\n      pop\n      jump\t// out\n        /* \"src/Vault.sol\":13030:13140  function getCurrentEpoch() external view returns (Epoch memory) {... */\n    tag_91:\n        /* \"src/Vault.sol\":13080:13092  Epoch memory */\n      tag_263\n      tag_264\n      jump\t// in\n    tag_263:\n        /* \"src/Vault.sol\":13111:13117  epochs */\n      0x03\n        /* \"src/Vault.sol\":13118:13132  currentEpochId */\n      sload(0x04)\n        /* \"src/Vault.sol\":13111:13133  epochs[currentEpochId] */\n      dup2\n      sload\n      dup2\n      lt\n      tag_266\n      jumpi\n      tag_267\n      tag_153\n      jump\t// in\n    tag_267:\n    tag_266:\n      swap1\n      0x00\n      mstore\n      keccak256(0x00, 0x20)\n      swap1\n      0x02\n      mul\n      add\n        /* \"src/Vault.sol\":13104:13133  return epochs[currentEpochId] */\n      mload(0x40)\n      dup1\n      0x40\n      add\n      0x40\n      mstore\n      swap1\n      dup2\n      0x00\n      dup3\n      add\n      sload\n      dup2\n      mstore\n      0x20\n      add\n      0x01\n      dup3\n      add\n      sload\n      dup2\n      mstore\n      pop\n      pop\n      swap1\n      pop\n        /* \"src/Vault.sol\":13030:13140  function getCurrentEpoch() external view returns (Epoch memory) {... */\n      swap1\n      jump\t// out\n        /* \"src/Vault.sol\":2466:2487  Epoch[] public epochs */\n    tag_97:\n      0x03\n      dup2\n      dup2\n      sload\n      dup2\n      lt\n      tag_269\n      jumpi\n      0x00\n      dup1\n      revert\n    tag_269:\n      swap1\n      0x00\n      mstore\n      keccak256(0x00, 0x20)\n      swap1\n      0x02\n      mul\n      add\n      0x00\n      swap2\n      pop\n      swap1\n      pop\n      dup1\n      0x00\n      add\n      sload\n      swap1\n      dup1\n      0x01\n      add\n      sload\n      swap1\n      pop\n      dup3\n      jump\t// out\n        /* \"src/Vault.sol\":13377:13586  function lockOrUnlockContract(bool _locked) external onlyOwner {... */\n    tag_103:\n        /* \"lib/openzeppelin-contracts/contracts/access/Ownable.sol\":1531:1544  _checkOwner() */\n      tag_272\n        /* \"lib/openzeppelin-contracts/contracts/access/Ownable.sol\":1531:1542  _checkOwner */\n      tag_120\n        /* \"lib/openzeppelin-contracts/contracts/access/Ownable.sol\":1531:1544  _checkOwner() */\n      jump\t// in\n    tag_272:\n        /* \"src/Vault.sol\":13468:13475  _locked */\n      dup1\n        /* \"src/Vault.sol\":13458:13475  locked != _locked */\n      iszero\n      iszero\n        /* \"src/Vault.sol\":13458:13464  locked */\n      0x07\n      0x00\n      swap1\n      sload\n      swap1\n      0x0100\n      exp\n      swap1\n      div\n      0xff\n      and\n        /* \"src/Vault.sol\":13458:13475  locked != _locked */\n      iszero\n      iszero\n      sub\n        /* \"src/Vault.sol\":13450:13515  require(locked != _locked, \"Contract already in requested state\") */\n      tag_274\n      jumpi\n      mload(0x40)\n      0x08c379a000000000000000000000000000000000000000000000000000000000\n      dup2\n      mstore\n      0x04\n      add\n      tag_275\n      swap1\n      tag_276\n      jump\t// in\n    tag_275:\n      mload(0x40)\n      dup1\n      swap2\n      sub\n      swap1\n      revert\n    tag_274:\n        /* \"src/Vault.sol\":13534:13541  _locked */\n      dup1\n        /* \"src/Vault.sol\":13525:13531  locked */\n      0x07\n      0x00\n        /* \"src/Vault.sol\":13525:13541  locked = _locked */\n      0x0100\n      exp\n      dup2\n      sload\n      dup2\n      0xff\n      mul\n      not\n      and\n      swap1\n      dup4\n      iszero\n      iszero\n      mul\n      or\n      swap1\n      sstore\n      pop\n        /* \"src/Vault.sol\":13556:13579  LockingContract(locked) */\n      0xe02150678eb6624ed499094e86e8c4a31d3b37225e9a835c9193964d5eb1eec7\n        /* \"src/Vault.sol\":13572:13578  locked */\n      0x07\n      0x00\n      swap1\n      sload\n      swap1\n      0x0100\n      exp\n      swap1\n      div\n      0xff\n      and\n        /* \"src/Vault.sol\":13556:13579  LockingContract(locked) */\n      mload(0x40)\n      tag_277\n      swap2\n      swap1\n      tag_56\n      jump\t// in\n    tag_277:\n      mload(0x40)\n      dup1\n      swap2\n      sub\n      swap1\n      log1\n        /* \"src/Vault.sol\":13377:13586  function lockOrUnlockContract(bool _locked) external onlyOwner {... */\n      pop\n      jump\t// out\n        /* \"src/Vault.sol\":2733:2761  uint256 public mininmumStake */\n    tag_106:\n      sload(0x06)\n      dup2\n      jump\t// out\n        /* \"src/Vault.sol\":5118:5918  function enter() public payable nonReentrant IsLocked {... */\n    tag_109:\n        /* \"lib/openzeppelin-contracts/contracts/utils/ReentrancyGuard.sol\":2356:2377  _nonReentrantBefore() */\n      tag_279\n        /* \"lib/openzeppelin-contracts/contracts/utils/ReentrancyGuard.sol\":2356:2375  _nonReentrantBefore */\n      tag_177\n        /* \"lib/openzeppelin-contracts/contracts/utils/ReentrancyGuard.sol\":2356:2377  _nonReentrantBefore() */\n      jump\t// in\n    tag_279:\n        /* \"src/Vault.sol\":4909:4915  locked */\n      0x07\n      0x00\n      swap1\n      sload\n      swap1\n      0x0100\n      exp\n      swap1\n      div\n      0xff\n      and\n        /* \"src/Vault.sol\":4906:4940  if(locked) revert ContractLocked() */\n      iszero\n      tag_281\n      jumpi\n        /* \"src/Vault.sol\":4924:4940  ContractLocked() */\n      mload(0x40)\n      0x6f5ffb7e00000000000000000000000000000000000000000000000000000000\n      dup2\n      mstore\n      0x04\n      add\n      mload(0x40)\n      dup1\n      swap2\n      sub\n      swap1\n      revert\n        /* \"src/Vault.sol\":4906:4940  if(locked) revert ContractLocked() */\n    tag_281:\n        /* \"src/Vault.sol\":5208:5224  EpochStatus.Open */\n      0x00\n        /* \"src/Vault.sol\":5186:5224  currentEpochStatus != EpochStatus.Open */\n      0x01\n      dup2\n      gt\n      iszero\n      tag_283\n      jumpi\n      tag_284\n      tag_142\n      jump\t// in\n    tag_284:\n    tag_283:\n        /* \"src/Vault.sol\":5186:5204  currentEpochStatus */\n      0x02\n      0x00\n      swap1\n      sload\n      swap1\n      0x0100\n      exp\n      swap1\n      div\n      0xff\n      and\n        /* \"src/Vault.sol\":5186:5224  currentEpochStatus != EpochStatus.Open */\n      0x01\n      dup2\n      gt\n      iszero\n      tag_285\n      jumpi\n      tag_286\n      tag_142\n      jump\t// in\n    tag_286:\n    tag_285:\n      eq\n        /* \"src/Vault.sol\":5182:5284  if (currentEpochStatus != EpochStatus.Open) revert WrongPhase(\"ENTER: only allowed during open phase\") */\n      tag_287\n      jumpi\n        /* \"src/Vault.sol\":5233:5284  WrongPhase(\"ENTER: only allowed during open phase\") */\n      mload(0x40)\n      0xfcbfb2b100000000000000000000000000000000000000000000000000000000\n      dup2\n      mstore\n      0x04\n      add\n      tag_288\n      swap1\n      tag_289\n      jump\t// in\n    tag_288:\n      mload(0x40)\n      dup1\n      swap2\n      sub\n      swap1\n      revert\n        /* \"src/Vault.sol\":5182:5284  if (currentEpochStatus != EpochStatus.Open) revert WrongPhase(\"ENTER: only allowed during open phase\") */\n    tag_287:\n        /* \"src/Vault.sol\":5310:5323  mininmumStake */\n      sload(0x06)\n        /* \"src/Vault.sol\":5298:5307  msg.value */\n      callvalue\n        /* \"src/Vault.sol\":5298:5323  msg.value < mininmumStake */\n      lt\n        /* \"src/Vault.sol\":5294:5375  if (msg.value < mininmumStake) revert InsufficientStake(msg.value, mininmumStake) */\n      iszero\n      tag_290\n      jumpi\n        /* \"src/Vault.sol\":5350:5359  msg.value */\n      callvalue\n        /* \"src/Vault.sol\":5361:5374  mininmumStake */\n      sload(0x06)\n        /* \"src/Vault.sol\":5332:5375  InsufficientStake(msg.value, mininmumStake) */\n      mload(0x40)\n      0x45be0a2600000000000000000000000000000000000000000000000000000000\n      dup2\n      mstore\n      0x04\n      add\n      tag_291\n      swap3\n      swap2\n      swap1\n      tag_73\n      jump\t// in\n    tag_291:\n      mload(0x40)\n      dup1\n      swap2\n      sub\n      swap1\n      revert\n        /* \"src/Vault.sol\":5294:5375  if (msg.value < mininmumStake) revert InsufficientStake(msg.value, mininmumStake) */\n    tag_290:\n        /* \"src/Vault.sol\":5386:5413  UserStake storage userStake */\n      0x00\n        /* \"src/Vault.sol\":5416:5426  userStakes */\n      0x05\n        /* \"src/Vault.sol\":5416:5438  userStakes[msg.sender] */\n      0x00\n        /* \"src/Vault.sol\":5427:5437  msg.sender */\n      caller\n        /* \"src/Vault.sol\":5416:5438  userStakes[msg.sender] */\n      0xffffffffffffffffffffffffffffffffffffffff\n      and\n      0xffffffffffffffffffffffffffffffffffffffff\n      and\n      dup2\n      mstore\n      0x20\n      add\n      swap1\n      dup2\n      mstore\n      0x20\n      add\n      0x00\n      keccak256\n        /* \"src/Vault.sol\":5386:5438  UserStake storage userStake = userStakes[msg.sender] */\n      swap1\n      pop\n        /* \"src/Vault.sol\":5453:5484  hasClaimableRewards(msg.sender) */\n      tag_292\n        /* \"src/Vault.sol\":5473:5483  msg.sender */\n      caller\n        /* \"src/Vault.sol\":5453:5472  hasClaimableRewards */\n      tag_87\n        /* \"src/Vault.sol\":5453:5484  hasClaimableRewards(msg.sender) */\n      jump\t// in\n    tag_292:\n        /* \"src/Vault.sol\":5449:5744  if (hasClaimableRewards(msg.sender)) {... */\n      iszero\n      tag_293\n      jumpi\n        /* \"src/Vault.sol\":5568:5593  _claimRewards(msg.sender) */\n      tag_294\n        /* \"src/Vault.sol\":5582:5592  msg.sender */\n      caller\n        /* \"src/Vault.sol\":5568:5581  _claimRewards */\n      tag_131\n        /* \"src/Vault.sol\":5568:5593  _claimRewards(msg.sender) */\n      jump\t// in\n    tag_294:\n        /* \"src/Vault.sol\":5449:5744  if (hasClaimableRewards(msg.sender)) {... */\n      jump(tag_295)\n    tag_293:\n        /* \"src/Vault.sol\":5732:5733  1 */\n      0x01\n        /* \"src/Vault.sol\":5715:5729  currentEpochId */\n      sload(0x04)\n        /* \"src/Vault.sol\":5715:5733  currentEpochId - 1 */\n      tag_296\n      swap2\n      swap1\n      tag_195\n      jump\t// in\n    tag_296:\n        /* \"src/Vault.sol\":5684:5693  userStake */\n      dup2\n        /* \"src/Vault.sol\":5684:5712  userStake.lastEpochClaimedAt */\n      0x01\n      add\n        /* \"src/Vault.sol\":5684:5733  userStake.lastEpochClaimedAt = currentEpochId - 1 */\n      dup2\n      swap1\n      sstore\n      pop\n        /* \"src/Vault.sol\":5449:5744  if (hasClaimableRewards(msg.sender)) {... */\n    tag_295:\n        /* \"src/Vault.sol\":5774:5783  msg.value */\n      callvalue\n        /* \"src/Vault.sol\":5754:5763  userStake */\n      dup2\n        /* \"src/Vault.sol\":5754:5770  userStake.amount */\n      0x00\n      add\n      0x00\n        /* \"src/Vault.sol\":5754:5783  userStake.amount += msg.value */\n      dup3\n      dup3\n      sload\n      tag_297\n      swap2\n      swap1\n      tag_298\n      jump\t// in\n    tag_297:\n      swap3\n      pop\n      pop\n      dup2\n      swap1\n      sstore\n      pop\n        /* \"src/Vault.sol\":5836:5845  msg.value */\n      callvalue\n        /* \"src/Vault.sol\":5793:5799  epochs */\n      0x03\n        /* \"src/Vault.sol\":5800:5814  currentEpochId */\n      sload(0x04)\n        /* \"src/Vault.sol\":5793:5815  epochs[currentEpochId] */\n      dup2\n      sload\n      dup2\n      lt\n      tag_299\n      jumpi\n      tag_300\n      tag_153\n      jump\t// in\n    tag_300:\n    tag_299:\n      swap1\n      0x00\n      mstore\n      keccak256(0x00, 0x20)\n      swap1\n      0x02\n      mul\n      add\n        /* \"src/Vault.sol\":5793:5832  epochs[currentEpochId].totalValueLocked */\n      0x00\n      add\n      0x00\n        /* \"src/Vault.sol\":5793:5845  epochs[currentEpochId].totalValueLocked += msg.value */\n      dup3\n      dup3\n      sload\n      tag_302\n      swap2\n      swap1\n      tag_298\n      jump\t// in\n    tag_302:\n      swap3\n      pop\n      pop\n      dup2\n      swap1\n      sstore\n      pop\n        /* \"src/Vault.sol\":5873:5883  msg.sender */\n      caller\n        /* \"src/Vault.sol\":5861:5911  UserDeposit(msg.sender, msg.value, currentEpochId) */\n      0xffffffffffffffffffffffffffffffffffffffff\n      and\n      0x2f1a7fda57b5fd5cb62770aebd7fc9a8a0a834c5ff558eb7562f85f2b28c4375\n        /* \"src/Vault.sol\":5885:5894  msg.value */\n      callvalue\n        /* \"src/Vault.sol\":5896:5910  currentEpochId */\n      sload(0x04)\n        /* \"src/Vault.sol\":5861:5911  UserDeposit(msg.sender, msg.value, currentEpochId) */\n      mload(0x40)\n      tag_303\n      swap3\n      swap2\n      swap1\n      tag_73\n      jump\t// in\n    tag_303:\n      mload(0x40)\n      dup1\n      swap2\n      sub\n      swap1\n      log2\n        /* \"src/Vault.sol\":5172:5918  {... */\n      pop\n        /* \"lib/openzeppelin-contracts/contracts/utils/ReentrancyGuard.sol\":2398:2418  _nonReentrantAfter() */\n      tag_304\n        /* \"lib/openzeppelin-contracts/contracts/utils/ReentrancyGuard.sol\":2398:2416  _nonReentrantAfter */\n      tag_208\n        /* \"lib/openzeppelin-contracts/contracts/utils/ReentrancyGuard.sol\":2398:2418  _nonReentrantAfter() */\n      jump\t// in\n    tag_304:\n        /* \"src/Vault.sol\":5118:5918  function enter() public payable nonReentrant IsLocked {... */\n      jump\t// out\n        /* \"src/Vault.sol\":2537:2566  uint256 public currentEpochId */\n    tag_112:\n      sload(0x04)\n      dup2\n      jump\t// out\n        /* \"lib/openzeppelin-contracts/contracts/access/Ownable.sol\":2543:2758  function transferOwnership(address newOwner) public virtual onlyOwner {... */\n    tag_117:\n        /* \"lib/openzeppelin-contracts/contracts/access/Ownable.sol\":1531:1544  _checkOwner() */\n      tag_306\n        /* \"lib/openzeppelin-contracts/contracts/access/Ownable.sol\":1531:1542  _checkOwner */\n      tag_120\n        /* \"lib/openzeppelin-contracts/contracts/access/Ownable.sol\":1531:1544  _checkOwner() */\n      jump\t// in\n    tag_306:\n        /* \"lib/openzeppelin-contracts/contracts/access/Ownable.sol\":2647:2648  0 */\n      0x00\n        /* \"lib/openzeppelin-contracts/contracts/access/Ownable.sol\":2627:2649  newOwner == address(0) */\n      0xffffffffffffffffffffffffffffffffffffffff\n      and\n        /* \"lib/openzeppelin-contracts/contracts/access/Ownable.sol\":2627:2635  newOwner */\n      dup2\n        /* \"lib/openzeppelin-contracts/contracts/access/Ownable.sol\":2627:2649  newOwner == address(0) */\n      0xffffffffffffffffffffffffffffffffffffffff\n      and\n      sub\n        /* \"lib/openzeppelin-contracts/contracts/access/Ownable.sol\":2623:2714  if (newOwner == address(0)) {... */\n      tag_308\n      jumpi\n        /* \"lib/openzeppelin-contracts/contracts/access/Ownable.sol\":2700:2701  0 */\n      0x00\n        /* \"lib/openzeppelin-contracts/contracts/access/Ownable.sol\":2672:2703  OwnableInvalidOwner(address(0)) */\n      mload(0x40)\n      0x1e4fbdf700000000000000000000000000000000000000000000000000000000\n      dup2\n      mstore\n      0x04\n      add\n      tag_309\n      swap2\n      swap1\n      tag_51\n      jump\t// in\n    tag_309:\n      mload(0x40)\n      dup1\n      swap2\n      sub\n      swap1\n      revert\n        /* \"lib/openzeppelin-contracts/contracts/access/Ownable.sol\":2623:2714  if (newOwner == address(0)) {... */\n    tag_308:\n        /* \"lib/openzeppelin-contracts/contracts/access/Ownable.sol\":2723:2751  _transferOwnership(newOwner) */\n      tag_310\n        /* \"lib/openzeppelin-contracts/contracts/access/Ownable.sol\":2742:2750  newOwner */\n      dup2\n        /* \"lib/openzeppelin-contracts/contracts/access/Ownable.sol\":2723:2741  _transferOwnership */\n      tag_174\n        /* \"lib/openzeppelin-contracts/contracts/access/Ownable.sol\":2723:2751  _transferOwnership(newOwner) */\n      jump\t// in\n    tag_310:\n        /* \"lib/openzeppelin-contracts/contracts/access/Ownable.sol\":2543:2758  function transferOwnership(address newOwner) public virtual onlyOwner {... */\n      pop\n      jump\t// out\n        /* \"lib/openzeppelin-contracts/contracts/access/Ownable.sol\":1796:1958  function _checkOwner() internal view virtual {... */\n    tag_120:\n        /* \"lib/openzeppelin-contracts/contracts/access/Ownable.sol\":1866:1878  _msgSender() */\n      tag_312\n        /* \"lib/openzeppelin-contracts/contracts/access/Ownable.sol\":1866:1876  _msgSender */\n      tag_313\n        /* \"lib/openzeppelin-contracts/contracts/access/Ownable.sol\":1866:1878  _msgSender() */\n      jump\t// in\n    tag_312:\n        /* \"lib/openzeppelin-contracts/contracts/access/Ownable.sol\":1855:1878  owner() != _msgSender() */\n      0xffffffffffffffffffffffffffffffffffffffff\n      and\n        /* \"lib/openzeppelin-contracts/contracts/access/Ownable.sol\":1855:1862  owner() */\n      tag_314\n        /* \"lib/openzeppelin-contracts/contracts/access/Ownable.sol\":1855:1860  owner */\n      tag_66\n        /* \"lib/openzeppelin-contracts/contracts/access/Ownable.sol\":1855:1862  owner() */\n      jump\t// in\n    tag_314:\n        /* \"lib/openzeppelin-contracts/contracts/access/Ownable.sol\":1855:1878  owner() != _msgSender() */\n      0xffffffffffffffffffffffffffffffffffffffff\n      and\n      eq\n        /* \"lib/openzeppelin-contracts/contracts/access/Ownable.sol\":1851:1952  if (owner() != _msgSender()) {... */\n      tag_315\n      jumpi\n        /* \"lib/openzeppelin-contracts/contracts/access/Ownable.sol\":1928:1940  _msgSender() */\n      tag_316\n        /* \"lib/openzeppelin-contracts/contracts/access/Ownable.sol\":1928:1938  _msgSender */\n      tag_313\n        /* \"lib/openzeppelin-contracts/contracts/access/Ownable.sol\":1928:1940  _msgSender() */\n      jump\t// in\n    tag_316:\n        /* \"lib/openzeppelin-contracts/contracts/access/Ownable.sol\":1901:1941  OwnableUnauthorizedAccount(_msgSender()) */\n      mload(0x40)\n      0x118cdaa700000000000000000000000000000000000000000000000000000000\n      dup2\n      mstore\n      0x04\n      add\n      tag_317\n      swap2\n      swap1\n      tag_51\n      jump\t// in\n    tag_317:\n      mload(0x40)\n      dup1\n      swap2\n      sub\n      swap1\n      revert\n        /* \"lib/openzeppelin-contracts/contracts/access/Ownable.sol\":1851:1952  if (owner() != _msgSender()) {... */\n    tag_315:\n        /* \"lib/openzeppelin-contracts/contracts/access/Ownable.sol\":1796:1958  function _checkOwner() internal view virtual {... */\n      jump\t// out\n        /* \"src/Vault.sol\":8067:9265  function _claimRewards(address _user) internal {... */\n    tag_131:\n        /* \"src/Vault.sol\":8125:8152  UserStake storage userStake */\n      0x00\n        /* \"src/Vault.sol\":8155:8165  userStakes */\n      0x05\n        /* \"src/Vault.sol\":8155:8172  userStakes[_user] */\n      0x00\n        /* \"src/Vault.sol\":8166:8171  _user */\n      dup4\n        /* \"src/Vault.sol\":8155:8172  userStakes[_user] */\n      0xffffffffffffffffffffffffffffffffffffffff\n      and\n      0xffffffffffffffffffffffffffffffffffffffff\n      and\n      dup2\n      mstore\n      0x20\n      add\n      swap1\n      dup2\n      mstore\n      0x20\n      add\n      0x00\n      keccak256\n        /* \"src/Vault.sol\":8125:8172  UserStake storage userStake = userStakes[_user] */\n      swap1\n      pop\n        /* \"src/Vault.sol\":8183:8203  uint256 totalRewards */\n      0x00\n        /* \"src/Vault.sol\":8213:8231  uint256 startEpoch */\n      dup1\n        /* \"src/Vault.sol\":8265:8266  1 */\n      0x01\n        /* \"src/Vault.sol\":8234:8243  userStake */\n      dup4\n        /* \"src/Vault.sol\":8234:8262  userStake.lastEpochClaimedAt */\n      0x01\n      add\n      sload\n        /* \"src/Vault.sol\":8234:8266  userStake.lastEpochClaimedAt + 1 */\n      tag_319\n      swap2\n      swap1\n      tag_298\n      jump\t// in\n    tag_319:\n        /* \"src/Vault.sol\":8213:8266  uint256 startEpoch = userStake.lastEpochClaimedAt + 1 */\n      swap1\n      pop\n        /* \"src/Vault.sol\":8276:8292  uint256 endEpoch */\n      0x00\n        /* \"src/Vault.sol\":8503:8519  EpochStatus.Open */\n      dup1\n        /* \"src/Vault.sol\":8481:8519  currentEpochStatus == EpochStatus.Open */\n      0x01\n      dup2\n      gt\n      iszero\n      tag_320\n      jumpi\n      tag_321\n      tag_142\n      jump\t// in\n    tag_321:\n    tag_320:\n        /* \"src/Vault.sol\":8481:8499  currentEpochStatus */\n      0x02\n      0x00\n      swap1\n      sload\n      swap1\n      0x0100\n      exp\n      swap1\n      div\n      0xff\n      and\n        /* \"src/Vault.sol\":8481:8519  currentEpochStatus == EpochStatus.Open */\n      0x01\n      dup2\n      gt\n      iszero\n      tag_322\n      jumpi\n      tag_323\n      tag_142\n      jump\t// in\n    tag_323:\n    tag_322:\n      sub\n        /* \"src/Vault.sol\":8478:8738  if(currentEpochStatus == EpochStatus.Open) {... */\n      tag_324\n      jumpi\n        /* \"src/Vault.sol\":8563:8564  1 */\n      0x01\n        /* \"src/Vault.sol\":8546:8560  currentEpochId */\n      sload(0x04)\n        /* \"src/Vault.sol\":8546:8564  currentEpochId - 1 */\n      tag_325\n      swap2\n      swap1\n      tag_195\n      jump\t// in\n    tag_325:\n        /* \"src/Vault.sol\":8535:8564  endEpoch = currentEpochId - 1 */\n      swap1\n      pop\n        /* \"src/Vault.sol\":8609:8617  endEpoch */\n      dup1\n        /* \"src/Vault.sol\":8578:8587  userStake */\n      dup5\n        /* \"src/Vault.sol\":8578:8606  userStake.lastEpochClaimedAt */\n      0x01\n      add\n        /* \"src/Vault.sol\":8578:8617  userStake.lastEpochClaimedAt = endEpoch */\n      dup2\n      swap1\n      sstore\n      pop\n        /* \"src/Vault.sol\":8478:8738  if(currentEpochStatus == EpochStatus.Open) {... */\n      jump(tag_326)\n    tag_324:\n        /* \"src/Vault.sol\":8659:8673  currentEpochId */\n      sload(0x04)\n        /* \"src/Vault.sol\":8648:8673  endEpoch = currentEpochId */\n      swap1\n      pop\n        /* \"src/Vault.sol\":8718:8726  endEpoch */\n      dup1\n        /* \"src/Vault.sol\":8687:8696  userStake */\n      dup5\n        /* \"src/Vault.sol\":8687:8715  userStake.lastEpochClaimedAt */\n      0x01\n      add\n        /* \"src/Vault.sol\":8687:8726  userStake.lastEpochClaimedAt = endEpoch */\n      dup2\n      swap1\n      sstore\n      pop\n        /* \"src/Vault.sol\":8478:8738  if(currentEpochStatus == EpochStatus.Open) {... */\n    tag_326:\n        /* \"src/Vault.sol\":8802:8811  uint256 i */\n      0x00\n        /* \"src/Vault.sol\":8814:8824  startEpoch */\n      dup3\n        /* \"src/Vault.sol\":8802:8824  uint256 i = startEpoch */\n      swap1\n      pop\n        /* \"src/Vault.sol\":8797:9070  for (uint256 i = startEpoch; i <= endEpoch; i++) {... */\n    tag_327:\n        /* \"src/Vault.sol\":8831:8839  endEpoch */\n      dup2\n        /* \"src/Vault.sol\":8826:8827  i */\n      dup2\n        /* \"src/Vault.sol\":8826:8839  i <= endEpoch */\n      gt\n        /* \"src/Vault.sol\":8797:9070  for (uint256 i = startEpoch; i <= endEpoch; i++) {... */\n      tag_328\n      jumpi\n        /* \"src/Vault.sol\":8860:8879  Epoch storage epoch */\n      0x00\n        /* \"src/Vault.sol\":8882:8888  epochs */\n      0x03\n        /* \"src/Vault.sol\":8889:8890  i */\n      dup3\n        /* \"src/Vault.sol\":8882:8891  epochs[i] */\n      dup2\n      sload\n      dup2\n      lt\n      tag_330\n      jumpi\n      tag_331\n      tag_153\n      jump\t// in\n    tag_331:\n    tag_330:\n      swap1\n      0x00\n      mstore\n      keccak256(0x00, 0x20)\n      swap1\n      0x02\n      mul\n      add\n        /* \"src/Vault.sol\":8860:8891  Epoch storage epoch = epochs[i] */\n      swap1\n      pop\n        /* \"src/Vault.sol\":8905:8924  uint256 epochReward */\n      0x00\n        /* \"src/Vault.sol\":8927:9018  FixedPointMathLib.mulDiv(userStake.amount, epoch.totalEpochRewards, epoch.totalValueLocked) */\n      tag_333\n        /* \"src/Vault.sol\":8952:8961  userStake */\n      dup8\n        /* \"src/Vault.sol\":8952:8968  userStake.amount */\n      0x00\n      add\n      sload\n        /* \"src/Vault.sol\":8970:8975  epoch */\n      dup4\n        /* \"src/Vault.sol\":8970:8993  epoch.totalEpochRewards */\n      0x01\n      add\n      sload\n        /* \"src/Vault.sol\":8995:9000  epoch */\n      dup5\n        /* \"src/Vault.sol\":8995:9017  epoch.totalValueLocked */\n      0x00\n      add\n      sload\n        /* \"src/Vault.sol\":8927:8951  FixedPointMathLib.mulDiv */\n      tag_334\n        /* \"src/Vault.sol\":8927:9018  FixedPointMathLib.mulDiv(userStake.amount, epoch.totalEpochRewards, epoch.totalValueLocked) */\n      jump\t// in\n    tag_333:\n        /* \"src/Vault.sol\":8905:9018  uint256 epochReward = FixedPointMathLib.mulDiv(userStake.amount, epoch.totalEpochRewards, epoch.totalValueLocked) */\n      swap1\n      pop\n        /* \"src/Vault.sol\":9048:9059  epochReward */\n      dup1\n        /* \"src/Vault.sol\":9032:9059  totalRewards += epochReward */\n      dup7\n      tag_335\n      swap2\n      swap1\n      tag_298\n      jump\t// in\n    tag_335:\n      swap6\n      pop\n        /* \"src/Vault.sol\":8846:9070  {... */\n      pop\n      pop\n        /* \"src/Vault.sol\":8841:8844  i++ */\n      dup1\n      dup1\n      tag_336\n      swap1\n      tag_165\n      jump\t// in\n    tag_336:\n      swap2\n      pop\n      pop\n        /* \"src/Vault.sol\":8797:9070  for (uint256 i = startEpoch; i <= endEpoch; i++) {... */\n      jump(tag_327)\n    tag_328:\n      pop\n        /* \"src/Vault.sol\":9081:9093  bool success */\n      0x00\n        /* \"src/Vault.sol\":9098:9108  msg.sender */\n      caller\n        /* \"src/Vault.sol\":9098:9113  msg.sender.call */\n      0xffffffffffffffffffffffffffffffffffffffff\n      and\n        /* \"src/Vault.sol\":9121:9133  totalRewards */\n      dup5\n        /* \"src/Vault.sol\":9098:9138  msg.sender.call{value: totalRewards}(\"\") */\n      mload(0x40)\n      tag_337\n      swap1\n      tag_201\n      jump\t// in\n    tag_337:\n      0x00\n      mload(0x40)\n      dup1\n      dup4\n      sub\n      dup2\n      dup6\n      dup8\n      gas\n      call\n      swap3\n      pop\n      pop\n      pop\n      returndatasize\n      dup1\n      0x00\n      dup2\n      eq\n      tag_340\n      jumpi\n      mload(0x40)\n      swap2\n      pop\n      and(add(returndatasize, 0x3f), not(0x1f))\n      dup3\n      add\n      0x40\n      mstore\n      returndatasize\n      dup3\n      mstore\n      returndatasize\n      0x00\n      0x20\n      dup5\n      add\n      returndatacopy\n      jump(tag_339)\n    tag_340:\n      0x60\n      swap2\n      pop\n    tag_339:\n      pop\n        /* \"src/Vault.sol\":9080:9138  (bool success,) = msg.sender.call{value: totalRewards}(\"\") */\n      pop\n      swap1\n      pop\n        /* \"src/Vault.sol\":9153:9160  success */\n      dup1\n        /* \"src/Vault.sol\":9148:9185  if (!success) revert TransferFailed() */\n      tag_341\n      jumpi\n        /* \"src/Vault.sol\":9169:9185  TransferFailed() */\n      mload(0x40)\n      0x90b8ec1800000000000000000000000000000000000000000000000000000000\n      dup2\n      mstore\n      0x04\n      add\n      mload(0x40)\n      dup1\n      swap2\n      sub\n      swap1\n      revert\n        /* \"src/Vault.sol\":9148:9185  if (!success) revert TransferFailed() */\n    tag_341:\n        /* \"src/Vault.sol\":9217:9227  msg.sender */\n      caller\n        /* \"src/Vault.sol\":9201:9258  UserRewardClaim(msg.sender, totalRewards, currentEpochId) */\n      0xffffffffffffffffffffffffffffffffffffffff\n      and\n      0xf0a79ba53601e311de7e03ea2c22463403a62c3d42cec4b256a0f74e1259dae5\n        /* \"src/Vault.sol\":9229:9241  totalRewards */\n      dup6\n        /* \"src/Vault.sol\":9243:9257  currentEpochId */\n      sload(0x04)\n        /* \"src/Vault.sol\":9201:9258  UserRewardClaim(msg.sender, totalRewards, currentEpochId) */\n      mload(0x40)\n      tag_342\n      swap3\n      swap2\n      swap1\n      tag_73\n      jump\t// in\n    tag_342:\n      mload(0x40)\n      dup1\n      swap2\n      sub\n      swap1\n      log2\n        /* \"src/Vault.sol\":8114:9265  {... */\n      pop\n      pop\n      pop\n      pop\n      pop\n        /* \"src/Vault.sol\":8067:9265  function _claimRewards(address _user) internal {... */\n      pop\n      jump\t// out\n        /* \"lib/openzeppelin-contracts/contracts/access/Ownable.sol\":2912:3099  function _transferOwnership(address newOwner) internal virtual {... */\n    tag_174:\n        /* \"lib/openzeppelin-contracts/contracts/access/Ownable.sol\":2985:3001  address oldOwner */\n      0x00\n        /* \"lib/openzeppelin-contracts/contracts/access/Ownable.sol\":3004:3010  _owner */\n      dup1\n      0x00\n      swap1\n      sload\n      swap1\n      0x0100\n      exp\n      swap1\n      div\n      0xffffffffffffffffffffffffffffffffffffffff\n      and\n        /* \"lib/openzeppelin-contracts/contracts/access/Ownable.sol\":2985:3010  address oldOwner = _owner */\n      swap1\n      pop\n        /* \"lib/openzeppelin-contracts/contracts/access/Ownable.sol\":3029:3037  newOwner */\n      dup2\n        /* \"lib/openzeppelin-contracts/contracts/access/Ownable.sol\":3020:3026  _owner */\n      0x00\n      dup1\n        /* \"lib/openzeppelin-contracts/contracts/access/Ownable.sol\":3020:3037  _owner = newOwner */\n      0x0100\n      exp\n      dup2\n      sload\n      dup2\n      0xffffffffffffffffffffffffffffffffffffffff\n      mul\n      not\n      and\n      swap1\n      dup4\n      0xffffffffffffffffffffffffffffffffffffffff\n      and\n      mul\n      or\n      swap1\n      sstore\n      pop\n        /* \"lib/openzeppelin-contracts/contracts/access/Ownable.sol\":3083:3091  newOwner */\n      dup2\n        /* \"lib/openzeppelin-contracts/contracts/access/Ownable.sol\":3052:3092  OwnershipTransferred(oldOwner, newOwner) */\n      0xffffffffffffffffffffffffffffffffffffffff\n      and\n        /* \"lib/openzeppelin-contracts/contracts/access/Ownable.sol\":3073:3081  oldOwner */\n      dup2\n        /* \"lib/openzeppelin-contracts/contracts/access/Ownable.sol\":3052:3092  OwnershipTransferred(oldOwner, newOwner) */\n      0xffffffffffffffffffffffffffffffffffffffff\n      and\n      0x8be0079c531659141344cd1fd0a4f28419497f9722a3daafe3b4186f6b6457e0\n      mload(0x40)\n      mload(0x40)\n      dup1\n      swap2\n      sub\n      swap1\n      log3\n        /* \"lib/openzeppelin-contracts/contracts/access/Ownable.sol\":2975:3099  {... */\n      pop\n        /* \"lib/openzeppelin-contracts/contracts/access/Ownable.sol\":2912:3099  function _transferOwnership(address newOwner) internal virtual {... */\n      pop\n      jump\t// out\n        /* \"lib/openzeppelin-contracts/contracts/utils/ReentrancyGuard.sol\":2431:2738  function _nonReentrantBefore() private {... */\n    tag_177:\n        /* \"lib/openzeppelin-contracts/contracts/utils/ReentrancyGuard.sol\":1755:1756  2 */\n      0x02\n        /* \"lib/openzeppelin-contracts/contracts/utils/ReentrancyGuard.sol\":2558:2565  _status */\n      sload(0x01)\n        /* \"lib/openzeppelin-contracts/contracts/utils/ReentrancyGuard.sol\":2558:2576  _status == ENTERED */\n      sub\n        /* \"lib/openzeppelin-contracts/contracts/utils/ReentrancyGuard.sol\":2554:2640  if (_status == ENTERED) {... */\n      tag_345\n      jumpi\n        /* \"lib/openzeppelin-contracts/contracts/utils/ReentrancyGuard.sol\":2599:2629  ReentrancyGuardReentrantCall() */\n      mload(0x40)\n      0x3ee5aeb500000000000000000000000000000000000000000000000000000000\n      dup2\n      mstore\n      0x04\n      add\n      mload(0x40)\n      dup1\n      swap2\n      sub\n      swap1\n      revert\n        /* \"lib/openzeppelin-contracts/contracts/utils/ReentrancyGuard.sol\":2554:2640  if (_status == ENTERED) {... */\n    tag_345:\n        /* \"lib/openzeppelin-contracts/contracts/utils/ReentrancyGuard.sol\":1755:1756  2 */\n      0x02\n        /* \"lib/openzeppelin-contracts/contracts/utils/ReentrancyGuard.sol\":2714:2721  _status */\n      0x01\n        /* \"lib/openzeppelin-contracts/contracts/utils/ReentrancyGuard.sol\":2714:2731  _status = ENTERED */\n      dup2\n      swap1\n      sstore\n      pop\n        /* \"lib/openzeppelin-contracts/contracts/utils/ReentrancyGuard.sol\":2431:2738  function _nonReentrantBefore() private {... */\n      jump\t// out\n        /* \"lib/openzeppelin-contracts/contracts/utils/ReentrancyGuard.sol\":2744:2952  function _nonReentrantAfter() private {... */\n    tag_208:\n        /* \"lib/openzeppelin-contracts/contracts/utils/ReentrancyGuard.sol\":1713:1714  1 */\n      0x01\n        /* \"lib/openzeppelin-contracts/contracts/utils/ReentrancyGuard.sol\":2924:2931  _status */\n      dup1\n        /* \"lib/openzeppelin-contracts/contracts/utils/ReentrancyGuard.sol\":2924:2945  _status = NOT_ENTERED */\n      dup2\n      swap1\n      sstore\n      pop\n        /* \"lib/openzeppelin-contracts/contracts/utils/ReentrancyGuard.sol\":2744:2952  function _nonReentrantAfter() private {... */\n      jump\t// out\n        /* \"lib/openzeppelin-contracts/contracts/utils/Context.sol\":656:752  function _msgSender() internal view virtual returns (address) {... */\n    tag_313:\n        /* \"lib/openzeppelin-contracts/contracts/utils/Context.sol\":709:716  address */\n      0x00\n        /* \"lib/openzeppelin-contracts/contracts/utils/Context.sol\":735:745  msg.sender */\n      caller\n        /* \"lib/openzeppelin-contracts/contracts/utils/Context.sol\":728:745  return msg.sender */\n      swap1\n      pop\n        /* \"lib/openzeppelin-contracts/contracts/utils/Context.sol\":656:752  function _msgSender() internal view virtual returns (address) {... */\n      swap1\n      jump\t// out\n        /* \"lib/solady/src/utils/FixedPointMathLib.sol\":26014:26496  function mulDiv(uint256 x, uint256 y, uint256 d) internal pure returns (uint256 z) {... */\n    tag_334:\n        /* \"lib/solady/src/utils/FixedPointMathLib.sol\":26086:26095  uint256 z */\n      0x00\n        /* \"lib/solady/src/utils/FixedPointMathLib.sol\":26185:26186  y */\n      dup3\n        /* \"lib/solady/src/utils/FixedPointMathLib.sol\":26182:26183  x */\n      dup5\n        /* \"lib/solady/src/utils/FixedPointMathLib.sol\":26178:26187  mul(x, y) */\n      mul\n        /* \"lib/solady/src/utils/FixedPointMathLib.sol\":26173:26187  z := mul(x, y) */\n      swap1\n      pop\n        /* \"lib/solady/src/utils/FixedPointMathLib.sol\":26337:26338  d */\n      dup2\n        /* \"lib/solady/src/utils/FixedPointMathLib.sol\":26332:26333  y */\n      dup4\n        /* \"lib/solady/src/utils/FixedPointMathLib.sol\":26328:26329  x */\n      dup6\n        /* \"lib/solady/src/utils/FixedPointMathLib.sol\":26325:26326  z */\n      dup4\n        /* \"lib/solady/src/utils/FixedPointMathLib.sol\":26321:26330  div(z, x) */\n      div\n        /* \"lib/solady/src/utils/FixedPointMathLib.sol\":26318:26334  eq(div(z, x), y) */\n      eq\n        /* \"lib/solady/src/utils/FixedPointMathLib.sol\":26314:26315  x */\n      dup6\n        /* \"lib/solady/src/utils/FixedPointMathLib.sol\":26307:26316  iszero(x) */\n      iszero\n        /* \"lib/solady/src/utils/FixedPointMathLib.sol\":26304:26335  or(iszero(x), eq(div(z, x), y)) */\n      or\n        /* \"lib/solady/src/utils/FixedPointMathLib.sol\":26300:26339  mul(or(iszero(x), eq(div(z, x), y)), d) */\n      mul\n        /* \"lib/solady/src/utils/FixedPointMathLib.sol\":26290:26453  if iszero(mul(or(iszero(x), eq(div(z, x), y)), d)) {... */\n      tag_349\n      jumpi\n        /* \"lib/solady/src/utils/FixedPointMathLib.sol\":26372:26382  0xad251c27 */\n      0xad251c27\n        /* \"lib/solady/src/utils/FixedPointMathLib.sol\":26366:26370  0x00 */\n      0x00\n        /* \"lib/solady/src/utils/FixedPointMathLib.sol\":26359:26383  mstore(0x00, 0xad251c27) */\n      mstore\n        /* \"lib/solady/src/utils/FixedPointMathLib.sol\":26434:26438  0x04 */\n      0x04\n        /* \"lib/solady/src/utils/FixedPointMathLib.sol\":26428:26432  0x1c */\n      0x1c\n        /* \"lib/solady/src/utils/FixedPointMathLib.sol\":26421:26439  revert(0x1c, 0x04) */\n      revert\n        /* \"lib/solady/src/utils/FixedPointMathLib.sol\":26290:26453  if iszero(mul(or(iszero(x), eq(div(z, x), y)), d)) {... */\n    tag_349:\n        /* \"lib/solady/src/utils/FixedPointMathLib.sol\":26478:26479  d */\n      dup2\n        /* \"lib/solady/src/utils/FixedPointMathLib.sol\":26475:26476  z */\n      dup2\n        /* \"lib/solady/src/utils/FixedPointMathLib.sol\":26471:26480  div(z, d) */\n      div\n        /* \"lib/solady/src/utils/FixedPointMathLib.sol\":26466:26480  z := div(z, d) */\n      swap1\n      pop\n        /* \"lib/solady/src/utils/FixedPointMathLib.sol\":26014:26496  function mulDiv(uint256 x, uint256 y, uint256 d) internal pure returns (uint256 z) {... */\n      swap4\n      swap3\n      pop\n      pop\n      pop\n      jump\t// out\n    tag_264:\n      mload(0x40)\n      dup1\n      0x40\n      add\n      0x40\n      mstore\n      dup1\n      0x00\n      dup2\n      mstore\n      0x20\n      add\n      0x00\n      dup2\n      mstore\n      pop\n      swap1\n      jump\t// out\n        /* \"#utility.yul\":88:205   */\n    tag_351:\n        /* \"#utility.yul\":197:198   */\n      0x00\n        /* \"#utility.yul\":194:195   */\n      dup1\n        /* \"#utility.yul\":187:199   */\n      revert\n        /* \"#utility.yul\":334:411   */\n    tag_353:\n        /* \"#utility.yul\":371:378   */\n      0x00\n        /* \"#utility.yul\":400:405   */\n      dup2\n        /* \"#utility.yul\":389:405   */\n      swap1\n      pop\n        /* \"#utility.yul\":334:411   */\n      swap2\n      swap1\n      pop\n      jump\t// out\n        /* \"#utility.yul\":417:539   */\n    tag_354:\n        /* \"#utility.yul\":490:514   */\n      tag_397\n        /* \"#utility.yul\":508:513   */\n      dup2\n        /* \"#utility.yul\":490:514   */\n      tag_353\n      jump\t// in\n    tag_397:\n        /* \"#utility.yul\":483:488   */\n      dup2\n        /* \"#utility.yul\":480:515   */\n      eq\n        /* \"#utility.yul\":470:533   */\n      tag_398\n      jumpi\n        /* \"#utility.yul\":529:530   */\n      0x00\n        /* \"#utility.yul\":526:527   */\n      dup1\n        /* \"#utility.yul\":519:531   */\n      revert\n        /* \"#utility.yul\":470:533   */\n    tag_398:\n        /* \"#utility.yul\":417:539   */\n      pop\n      jump\t// out\n        /* \"#utility.yul\":545:684   */\n    tag_355:\n        /* \"#utility.yul\":591:596   */\n      0x00\n        /* \"#utility.yul\":629:635   */\n      dup2\n        /* \"#utility.yul\":616:636   */\n      calldataload\n        /* \"#utility.yul\":607:636   */\n      swap1\n      pop\n        /* \"#utility.yul\":645:678   */\n      tag_400\n        /* \"#utility.yul\":672:677   */\n      dup2\n        /* \"#utility.yul\":645:678   */\n      tag_354\n      jump\t// in\n    tag_400:\n        /* \"#utility.yul\":545:684   */\n      swap3\n      swap2\n      pop\n      pop\n      jump\t// out\n        /* \"#utility.yul\":690:1019   */\n    tag_30:\n        /* \"#utility.yul\":749:755   */\n      0x00\n        /* \"#utility.yul\":798:800   */\n      0x20\n        /* \"#utility.yul\":786:795   */\n      dup3\n        /* \"#utility.yul\":777:784   */\n      dup5\n        /* \"#utility.yul\":773:796   */\n      sub\n        /* \"#utility.yul\":769:801   */\n      slt\n        /* \"#utility.yul\":766:885   */\n      iszero\n      tag_402\n      jumpi\n        /* \"#utility.yul\":804:883   */\n      tag_403\n      tag_351\n      jump\t// in\n    tag_403:\n        /* \"#utility.yul\":766:885   */\n    tag_402:\n        /* \"#utility.yul\":924:925   */\n      0x00\n        /* \"#utility.yul\":949:1002   */\n      tag_404\n        /* \"#utility.yul\":994:1001   */\n      dup5\n        /* \"#utility.yul\":985:991   */\n      dup3\n        /* \"#utility.yul\":974:983   */\n      dup6\n        /* \"#utility.yul\":970:992   */\n      add\n        /* \"#utility.yul\":949:1002   */\n      tag_355\n      jump\t// in\n    tag_404:\n        /* \"#utility.yul\":939:1002   */\n      swap2\n      pop\n        /* \"#utility.yul\":895:1012   */\n      pop\n        /* \"#utility.yul\":690:1019   */\n      swap3\n      swap2\n      pop\n      pop\n      jump\t// out\n        /* \"#utility.yul\":1025:1143   */\n    tag_356:\n        /* \"#utility.yul\":1112:1136   */\n      tag_406\n        /* \"#utility.yul\":1130:1135   */\n      dup2\n        /* \"#utility.yul\":1112:1136   */\n      tag_353\n      jump\t// in\n    tag_406:\n        /* \"#utility.yul\":1107:1110   */\n      dup3\n        /* \"#utility.yul\":1100:1137   */\n      mstore\n        /* \"#utility.yul\":1025:1143   */\n      pop\n      pop\n      jump\t// out\n        /* \"#utility.yul\":1149:1371   */\n    tag_36:\n        /* \"#utility.yul\":1242:1246   */\n      0x00\n        /* \"#utility.yul\":1280:1282   */\n      0x20\n        /* \"#utility.yul\":1269:1278   */\n      dup3\n        /* \"#utility.yul\":1265:1283   */\n      add\n        /* \"#utility.yul\":1257:1283   */\n      swap1\n      pop\n        /* \"#utility.yul\":1293:1364   */\n      tag_408\n        /* \"#utility.yul\":1361:1362   */\n      0x00\n        /* \"#utility.yul\":1350:1359   */\n      dup4\n        /* \"#utility.yul\":1346:1363   */\n      add\n        /* \"#utility.yul\":1337:1343   */\n      dup5\n        /* \"#utility.yul\":1293:1364   */\n      tag_356\n      jump\t// in\n    tag_408:\n        /* \"#utility.yul\":1149:1371   */\n      swap3\n      swap2\n      pop\n      pop\n      jump\t// out\n        /* \"#utility.yul\":1377:1503   */\n    tag_357:\n        /* \"#utility.yul\":1414:1421   */\n      0x00\n        /* \"#utility.yul\":1454:1496   */\n      0xffffffffffffffffffffffffffffffffffffffff\n        /* \"#utility.yul\":1447:1452   */\n      dup3\n        /* \"#utility.yul\":1443:1497   */\n      and\n        /* \"#utility.yul\":1432:1497   */\n      swap1\n      pop\n        /* \"#utility.yul\":1377:1503   */\n      swap2\n      swap1\n      pop\n      jump\t// out\n        /* \"#utility.yul\":1509:1605   */\n    tag_358:\n        /* \"#utility.yul\":1546:1553   */\n      0x00\n        /* \"#utility.yul\":1575:1599   */\n      tag_411\n        /* \"#utility.yul\":1593:1598   */\n      dup3\n        /* \"#utility.yul\":1575:1599   */\n      tag_357\n      jump\t// in\n    tag_411:\n        /* \"#utility.yul\":1564:1599   */\n      swap1\n      pop\n        /* \"#utility.yul\":1509:1605   */\n      swap2\n      swap1\n      pop\n      jump\t// out\n        /* \"#utility.yul\":1611:1733   */\n    tag_359:\n        /* \"#utility.yul\":1684:1708   */\n      tag_413\n        /* \"#utility.yul\":1702:1707   */\n      dup2\n        /* \"#utility.yul\":1684:1708   */\n      tag_358\n      jump\t// in\n    tag_413:\n        /* \"#utility.yul\":1677:1682   */\n      dup2\n        /* \"#utility.yul\":1674:1709   */\n      eq\n        /* \"#utility.yul\":1664:1727   */\n      tag_414\n      jumpi\n        /* \"#utility.yul\":1723:1724   */\n      0x00\n        /* \"#utility.yul\":1720:1721   */\n      dup1\n        /* \"#utility.yul\":1713:1725   */\n      revert\n        /* \"#utility.yul\":1664:1727   */\n    tag_414:\n        /* \"#utility.yul\":1611:1733   */\n      pop\n      jump\t// out\n        /* \"#utility.yul\":1739:1878   */\n    tag_360:\n        /* \"#utility.yul\":1785:1790   */\n      0x00\n        /* \"#utility.yul\":1823:1829   */\n      dup2\n        /* \"#utility.yul\":1810:1830   */\n      calldataload\n        /* \"#utility.yul\":1801:1830   */\n      swap1\n      pop\n        /* \"#utility.yul\":1839:1872   */\n      tag_416\n        /* \"#utility.yul\":1866:1871   */\n      dup2\n        /* \"#utility.yul\":1839:1872   */\n      tag_359\n      jump\t// in\n    tag_416:\n        /* \"#utility.yul\":1739:1878   */\n      swap3\n      swap2\n      pop\n      pop\n      jump\t// out\n        /* \"#utility.yul\":1884:2213   */\n    tag_43:\n        /* \"#utility.yul\":1943:1949   */\n      0x00\n        /* \"#utility.yul\":1992:1994   */\n      0x20\n        /* \"#utility.yul\":1980:1989   */\n      dup3\n        /* \"#utility.yul\":1971:1978   */\n      dup5\n        /* \"#utility.yul\":1967:1990   */\n      sub\n        /* \"#utility.yul\":1963:1995   */\n      slt\n        /* \"#utility.yul\":1960:2079   */\n      iszero\n      tag_418\n      jumpi\n        /* \"#utility.yul\":1998:2077   */\n      tag_419\n      tag_351\n      jump\t// in\n    tag_419:\n        /* \"#utility.yul\":1960:2079   */\n    tag_418:\n        /* \"#utility.yul\":2118:2119   */\n      0x00\n        /* \"#utility.yul\":2143:2196   */\n      tag_420\n        /* \"#utility.yul\":2188:2195   */\n      dup5\n        /* \"#utility.yul\":2179:2185   */\n      dup3\n        /* \"#utility.yul\":2168:2177   */\n      dup6\n        /* \"#utility.yul\":2164:2186   */\n      add\n        /* \"#utility.yul\":2143:2196   */\n      tag_360\n      jump\t// in\n    tag_420:\n        /* \"#utility.yul\":2133:2196   */\n      swap2\n      pop\n        /* \"#utility.yul\":2089:2206   */\n      pop\n        /* \"#utility.yul\":1884:2213   */\n      swap3\n      swap2\n      pop\n      pop\n      jump\t// out\n        /* \"#utility.yul\":2219:2337   */\n    tag_361:\n        /* \"#utility.yul\":2306:2330   */\n      tag_422\n        /* \"#utility.yul\":2324:2329   */\n      dup2\n        /* \"#utility.yul\":2306:2330   */\n      tag_358\n      jump\t// in\n    tag_422:\n        /* \"#utility.yul\":2301:2304   */\n      dup3\n        /* \"#utility.yul\":2294:2331   */\n      mstore\n        /* \"#utility.yul\":2219:2337   */\n      pop\n      pop\n      jump\t// out\n        /* \"#utility.yul\":2343:2565   */\n    tag_51:\n        /* \"#utility.yul\":2436:2440   */\n      0x00\n        /* \"#utility.yul\":2474:2476   */\n      0x20\n        /* \"#utility.yul\":2463:2472   */\n      dup3\n        /* \"#utility.yul\":2459:2477   */\n      add\n        /* \"#utility.yul\":2451:2477   */\n      swap1\n      pop\n        /* \"#utility.yul\":2487:2558   */\n      tag_424\n        /* \"#utility.yul\":2555:2556   */\n      0x00\n        /* \"#utility.yul\":2544:2553   */\n      dup4\n        /* \"#utility.yul\":2540:2557   */\n      add\n        /* \"#utility.yul\":2531:2537   */\n      dup5\n        /* \"#utility.yul\":2487:2558   */\n      tag_361\n      jump\t// in\n    tag_424:\n        /* \"#utility.yul\":2343:2565   */\n      swap3\n      swap2\n      pop\n      pop\n      jump\t// out\n        /* \"#utility.yul\":2571:2661   */\n    tag_362:\n        /* \"#utility.yul\":2605:2612   */\n      0x00\n        /* \"#utility.yul\":2648:2653   */\n      dup2\n        /* \"#utility.yul\":2641:2654   */\n      iszero\n        /* \"#utility.yul\":2634:2655   */\n      iszero\n        /* \"#utility.yul\":2623:2655   */\n      swap1\n      pop\n        /* \"#utility.yul\":2571:2661   */\n      swap2\n      swap1\n      pop\n      jump\t// out\n        /* \"#utility.yul\":2667:2776   */\n    tag_363:\n        /* \"#utility.yul\":2748:2769   */\n      tag_427\n        /* \"#utility.yul\":2763:2768   */\n      dup2\n        /* \"#utility.yul\":2748:2769   */\n      tag_362\n      jump\t// in\n    tag_427:\n        /* \"#utility.yul\":2743:2746   */\n      dup3\n        /* \"#utility.yul\":2736:2770   */\n      mstore\n        /* \"#utility.yul\":2667:2776   */\n      pop\n      pop\n      jump\t// out\n        /* \"#utility.yul\":2782:2992   */\n    tag_56:\n        /* \"#utility.yul\":2869:2873   */\n      0x00\n        /* \"#utility.yul\":2907:2909   */\n      0x20\n        /* \"#utility.yul\":2896:2905   */\n      dup3\n        /* \"#utility.yul\":2892:2910   */\n      add\n        /* \"#utility.yul\":2884:2910   */\n      swap1\n      pop\n        /* \"#utility.yul\":2920:2985   */\n      tag_429\n        /* \"#utility.yul\":2982:2983   */\n      0x00\n        /* \"#utility.yul\":2971:2980   */\n      dup4\n        /* \"#utility.yul\":2967:2984   */\n      add\n        /* \"#utility.yul\":2958:2964   */\n      dup5\n        /* \"#utility.yul\":2920:2985   */\n      tag_363\n      jump\t// in\n    tag_429:\n        /* \"#utility.yul\":2782:2992   */\n      swap3\n      swap2\n      pop\n      pop\n      jump\t// out\n        /* \"#utility.yul\":2998:3330   */\n    tag_73:\n        /* \"#utility.yul\":3119:3123   */\n      0x00\n        /* \"#utility.yul\":3157:3159   */\n      0x40\n        /* \"#utility.yul\":3146:3155   */\n      dup3\n        /* \"#utility.yul\":3142:3160   */\n      add\n        /* \"#utility.yul\":3134:3160   */\n      swap1\n      pop\n        /* \"#utility.yul\":3170:3241   */\n      tag_431\n        /* \"#utility.yul\":3238:3239   */\n      0x00\n        /* \"#utility.yul\":3227:3236   */\n      dup4\n        /* \"#utility.yul\":3223:3240   */\n      add\n        /* \"#utility.yul\":3214:3220   */\n      dup6\n        /* \"#utility.yul\":3170:3241   */\n      tag_356\n      jump\t// in\n    tag_431:\n        /* \"#utility.yul\":3251:3323   */\n      tag_432\n        /* \"#utility.yul\":3319:3321   */\n      0x20\n        /* \"#utility.yul\":3308:3317   */\n      dup4\n        /* \"#utility.yul\":3304:3322   */\n      add\n        /* \"#utility.yul\":3295:3301   */\n      dup5\n        /* \"#utility.yul\":3251:3323   */\n      tag_356\n      jump\t// in\n    tag_432:\n        /* \"#utility.yul\":2998:3330   */\n      swap4\n      swap3\n      pop\n      pop\n      pop\n      jump\t// out\n        /* \"#utility.yul\":3336:3516   */\n    tag_142:\n        /* \"#utility.yul\":3384:3461   */\n      0x4e487b7100000000000000000000000000000000000000000000000000000000\n        /* \"#utility.yul\":3381:3382   */\n      0x00\n        /* \"#utility.yul\":3374:3462   */\n      mstore\n        /* \"#utility.yul\":3481:3485   */\n      0x21\n        /* \"#utility.yul\":3478:3479   */\n      0x04\n        /* \"#utility.yul\":3471:3486   */\n      mstore\n        /* \"#utility.yul\":3505:3509   */\n      0x24\n        /* \"#utility.yul\":3502:3503   */\n      0x00\n        /* \"#utility.yul\":3495:3510   */\n      revert\n        /* \"#utility.yul\":3522:3643   */\n    tag_364:\n        /* \"#utility.yul\":3611:3612   */\n      0x02\n        /* \"#utility.yul\":3604:3609   */\n      dup2\n        /* \"#utility.yul\":3601:3613   */\n      lt\n        /* \"#utility.yul\":3591:3637   */\n      tag_435\n      jumpi\n        /* \"#utility.yul\":3617:3635   */\n      tag_436\n      tag_142\n      jump\t// in\n    tag_436:\n        /* \"#utility.yul\":3591:3637   */\n    tag_435:\n        /* \"#utility.yul\":3522:3643   */\n      pop\n      jump\t// out\n        /* \"#utility.yul\":3649:3792   */\n    tag_365:\n        /* \"#utility.yul\":3702:3709   */\n      0x00\n        /* \"#utility.yul\":3731:3736   */\n      dup2\n        /* \"#utility.yul\":3720:3736   */\n      swap1\n      pop\n        /* \"#utility.yul\":3737:3786   */\n      tag_438\n        /* \"#utility.yul\":3780:3785   */\n      dup3\n        /* \"#utility.yul\":3737:3786   */\n      tag_364\n      jump\t// in\n    tag_438:\n        /* \"#utility.yul\":3649:3792   */\n      swap2\n      swap1\n      pop\n      jump\t// out\n        /* \"#utility.yul\":3798:3941   */\n    tag_366:\n        /* \"#utility.yul\":3862:3871   */\n      0x00\n        /* \"#utility.yul\":3895:3935   */\n      tag_440\n        /* \"#utility.yul\":3929:3934   */\n      dup3\n        /* \"#utility.yul\":3895:3935   */\n      tag_365\n      jump\t// in\n    tag_440:\n        /* \"#utility.yul\":3882:3935   */\n      swap1\n      pop\n        /* \"#utility.yul\":3798:3941   */\n      swap2\n      swap1\n      pop\n      jump\t// out\n        /* \"#utility.yul\":3947:4106   */\n    tag_367:\n        /* \"#utility.yul\":4048:4099   */\n      tag_442\n        /* \"#utility.yul\":4093:4098   */\n      dup2\n        /* \"#utility.yul\":4048:4099   */\n      tag_366\n      jump\t// in\n    tag_442:\n        /* \"#utility.yul\":4043:4046   */\n      dup3\n        /* \"#utility.yul\":4036:4100   */\n      mstore\n        /* \"#utility.yul\":3947:4106   */\n      pop\n      pop\n      jump\t// out\n        /* \"#utility.yul\":4112:4362   */\n    tag_83:\n        /* \"#utility.yul\":4219:4223   */\n      0x00\n        /* \"#utility.yul\":4257:4259   */\n      0x20\n        /* \"#utility.yul\":4246:4255   */\n      dup3\n        /* \"#utility.yul\":4242:4260   */\n      add\n        /* \"#utility.yul\":4234:4260   */\n      swap1\n      pop\n        /* \"#utility.yul\":4270:4355   */\n      tag_444\n        /* \"#utility.yul\":4352:4353   */\n      0x00\n        /* \"#utility.yul\":4341:4350   */\n      dup4\n        /* \"#utility.yul\":4337:4354   */\n      add\n        /* \"#utility.yul\":4328:4334   */\n      dup5\n        /* \"#utility.yul\":4270:4355   */\n      tag_367\n      jump\t// in\n    tag_444:\n        /* \"#utility.yul\":4112:4362   */\n      swap3\n      swap2\n      pop\n      pop\n      jump\t// out\n        /* \"#utility.yul\":4368:4476   */\n    tag_368:\n        /* \"#utility.yul\":4445:4469   */\n      tag_446\n        /* \"#utility.yul\":4463:4468   */\n      dup2\n        /* \"#utility.yul\":4445:4469   */\n      tag_353\n      jump\t// in\n    tag_446:\n        /* \"#utility.yul\":4440:4443   */\n      dup3\n        /* \"#utility.yul\":4433:4470   */\n      mstore\n        /* \"#utility.yul\":4368:4476   */\n      pop\n      pop\n      jump\t// out\n        /* \"#utility.yul\":4530:5058   */\n    tag_369:\n        /* \"#utility.yul\":4673:4677   */\n      0x40\n        /* \"#utility.yul\":4668:4671   */\n      dup3\n        /* \"#utility.yul\":4664:4678   */\n      add\n        /* \"#utility.yul\":4772:4776   */\n      0x00\n        /* \"#utility.yul\":4765:4770   */\n      dup3\n        /* \"#utility.yul\":4761:4777   */\n      add\n        /* \"#utility.yul\":4755:4778   */\n      mload\n        /* \"#utility.yul\":4791:4854   */\n      tag_448\n        /* \"#utility.yul\":4848:4852   */\n      0x00\n        /* \"#utility.yul\":4843:4846   */\n      dup6\n        /* \"#utility.yul\":4839:4853   */\n      add\n        /* \"#utility.yul\":4825:4837   */\n      dup3\n        /* \"#utility.yul\":4791:4854   */\n      tag_368\n      jump\t// in\n    tag_448:\n        /* \"#utility.yul\":4688:4864   */\n      pop\n        /* \"#utility.yul\":4959:4963   */\n      0x20\n        /* \"#utility.yul\":4952:4957   */\n      dup3\n        /* \"#utility.yul\":4948:4964   */\n      add\n        /* \"#utility.yul\":4942:4965   */\n      mload\n        /* \"#utility.yul\":4978:5041   */\n      tag_449\n        /* \"#utility.yul\":5035:5039   */\n      0x20\n        /* \"#utility.yul\":5030:5033   */\n      dup6\n        /* \"#utility.yul\":5026:5040   */\n      add\n        /* \"#utility.yul\":5012:5024   */\n      dup3\n        /* \"#utility.yul\":4978:5041   */\n      tag_368\n      jump\t// in\n    tag_449:\n        /* \"#utility.yul\":4874:5051   */\n      pop\n        /* \"#utility.yul\":4642:5058   */\n      pop\n        /* \"#utility.yul\":4530:5058   */\n      pop\n      pop\n      jump\t// out\n        /* \"#utility.yul\":5064:5378   */\n    tag_93:\n        /* \"#utility.yul\":5203:5207   */\n      0x00\n        /* \"#utility.yul\":5241:5243   */\n      0x40\n        /* \"#utility.yul\":5230:5239   */\n      dup3\n        /* \"#utility.yul\":5226:5244   */\n      add\n        /* \"#utility.yul\":5218:5244   */\n      swap1\n      pop\n        /* \"#utility.yul\":5254:5371   */\n      tag_451\n        /* \"#utility.yul\":5368:5369   */\n      0x00\n        /* \"#utility.yul\":5357:5366   */\n      dup4\n        /* \"#utility.yul\":5353:5370   */\n      add\n        /* \"#utility.yul\":5344:5350   */\n      dup5\n        /* \"#utility.yul\":5254:5371   */\n      tag_369\n      jump\t// in\n    tag_451:\n        /* \"#utility.yul\":5064:5378   */\n      swap3\n      swap2\n      pop\n      pop\n      jump\t// out\n        /* \"#utility.yul\":5384:5500   */\n    tag_370:\n        /* \"#utility.yul\":5454:5475   */\n      tag_453\n        /* \"#utility.yul\":5469:5474   */\n      dup2\n        /* \"#utility.yul\":5454:5475   */\n      tag_362\n      jump\t// in\n    tag_453:\n        /* \"#utility.yul\":5447:5452   */\n      dup2\n        /* \"#utility.yul\":5444:5476   */\n      eq\n        /* \"#utility.yul\":5434:5494   */\n      tag_454\n      jumpi\n        /* \"#utility.yul\":5490:5491   */\n      0x00\n        /* \"#utility.yul\":5487:5488   */\n      dup1\n        /* \"#utility.yul\":5480:5492   */\n      revert\n        /* \"#utility.yul\":5434:5494   */\n    tag_454:\n        /* \"#utility.yul\":5384:5500   */\n      pop\n      jump\t// out\n        /* \"#utility.yul\":5506:5639   */\n    tag_371:\n        /* \"#utility.yul\":5549:5554   */\n      0x00\n        /* \"#utility.yul\":5587:5593   */\n      dup2\n        /* \"#utility.yul\":5574:5594   */\n      calldataload\n        /* \"#utility.yul\":5565:5594   */\n      swap1\n      pop\n        /* \"#utility.yul\":5603:5633   */\n      tag_456\n        /* \"#utility.yul\":5627:5632   */\n      dup2\n        /* \"#utility.yul\":5603:5633   */\n      tag_370\n      jump\t// in\n    tag_456:\n        /* \"#utility.yul\":5506:5639   */\n      swap3\n      swap2\n      pop\n      pop\n      jump\t// out\n        /* \"#utility.yul\":5645:5968   */\n    tag_102:\n        /* \"#utility.yul\":5701:5707   */\n      0x00\n        /* \"#utility.yul\":5750:5752   */\n      0x20\n        /* \"#utility.yul\":5738:5747   */\n      dup3\n        /* \"#utility.yul\":5729:5736   */\n      dup5\n        /* \"#utility.yul\":5725:5748   */\n      sub\n        /* \"#utility.yul\":5721:5753   */\n      slt\n        /* \"#utility.yul\":5718:5837   */\n      iszero\n      tag_458\n      jumpi\n        /* \"#utility.yul\":5756:5835   */\n      tag_459\n      tag_351\n      jump\t// in\n    tag_459:\n        /* \"#utility.yul\":5718:5837   */\n    tag_458:\n        /* \"#utility.yul\":5876:5877   */\n      0x00\n        /* \"#utility.yul\":5901:5951   */\n      tag_460\n        /* \"#utility.yul\":5943:5950   */\n      dup5\n        /* \"#utility.yul\":5934:5940   */\n      dup3\n        /* \"#utility.yul\":5923:5932   */\n      dup6\n        /* \"#utility.yul\":5919:5941   */\n      add\n        /* \"#utility.yul\":5901:5951   */\n      tag_371\n      jump\t// in\n    tag_460:\n        /* \"#utility.yul\":5891:5951   */\n      swap2\n      pop\n        /* \"#utility.yul\":5847:5961   */\n      pop\n        /* \"#utility.yul\":5645:5968   */\n      swap3\n      swap2\n      pop\n      pop\n      jump\t// out\n        /* \"#utility.yul\":5974:6306   */\n    tag_136:\n        /* \"#utility.yul\":6095:6099   */\n      0x00\n        /* \"#utility.yul\":6133:6135   */\n      0x40\n        /* \"#utility.yul\":6122:6131   */\n      dup3\n        /* \"#utility.yul\":6118:6136   */\n      add\n        /* \"#utility.yul\":6110:6136   */\n      swap1\n      pop\n        /* \"#utility.yul\":6146:6217   */\n      tag_462\n        /* \"#utility.yul\":6214:6215   */\n      0x00\n        /* \"#utility.yul\":6203:6212   */\n      dup4\n        /* \"#utility.yul\":6199:6216   */\n      add\n        /* \"#utility.yul\":6190:6196   */\n      dup6\n        /* \"#utility.yul\":6146:6217   */\n      tag_361\n      jump\t// in\n    tag_462:\n        /* \"#utility.yul\":6227:6299   */\n      tag_463\n        /* \"#utility.yul\":6295:6297   */\n      0x20\n        /* \"#utility.yul\":6284:6293   */\n      dup4\n        /* \"#utility.yul\":6280:6298   */\n      add\n        /* \"#utility.yul\":6271:6277   */\n      dup5\n        /* \"#utility.yul\":6227:6299   */\n      tag_361\n      jump\t// in\n    tag_463:\n        /* \"#utility.yul\":5974:6306   */\n      swap4\n      swap3\n      pop\n      pop\n      pop\n      jump\t// out\n        /* \"#utility.yul\":6312:6481   */\n    tag_372:\n        /* \"#utility.yul\":6396:6407   */\n      0x00\n        /* \"#utility.yul\":6430:6436   */\n      dup3\n        /* \"#utility.yul\":6425:6428   */\n      dup3\n        /* \"#utility.yul\":6418:6437   */\n      mstore\n        /* \"#utility.yul\":6470:6474   */\n      0x20\n        /* \"#utility.yul\":6465:6468   */\n      dup3\n        /* \"#utility.yul\":6461:6475   */\n      add\n        /* \"#utility.yul\":6446:6475   */\n      swap1\n      pop\n        /* \"#utility.yul\":6312:6481   */\n      swap3\n      swap2\n      pop\n      pop\n      jump\t// out\n        /* \"#utility.yul\":6487:6713   */\n    tag_373:\n        /* \"#utility.yul\":6627:6661   */\n      0x454e442045504f43483a2063616e206f6e6c7920656e6420612072756e6e696e\n        /* \"#utility.yul\":6623:6624   */\n      0x00\n        /* \"#utility.yul\":6615:6621   */\n      dup3\n        /* \"#utility.yul\":6611:6625   */\n      add\n        /* \"#utility.yul\":6604:6662   */\n      mstore\n        /* \"#utility.yul\":6696:6705   */\n      0x672065706f636800000000000000000000000000000000000000000000000000\n        /* \"#utility.yul\":6691:6693   */\n      0x20\n        /* \"#utility.yul\":6683:6689   */\n      dup3\n        /* \"#utility.yul\":6679:6694   */\n      add\n        /* \"#utility.yul\":6672:6706   */\n      mstore\n        /* \"#utility.yul\":6487:6713   */\n      pop\n      jump\t// out\n        /* \"#utility.yul\":6719:7085   */\n    tag_374:\n        /* \"#utility.yul\":6861:6864   */\n      0x00\n        /* \"#utility.yul\":6882:6949   */\n      tag_467\n        /* \"#utility.yul\":6946:6948   */\n      0x27\n        /* \"#utility.yul\":6941:6944   */\n      dup4\n        /* \"#utility.yul\":6882:6949   */\n      tag_372\n      jump\t// in\n    tag_467:\n        /* \"#utility.yul\":6875:6949   */\n      swap2\n      pop\n        /* \"#utility.yul\":6958:7051   */\n      tag_468\n        /* \"#utility.yul\":7047:7050   */\n      dup3\n        /* \"#utility.yul\":6958:7051   */\n      tag_373\n      jump\t// in\n    tag_468:\n        /* \"#utility.yul\":7076:7078   */\n      0x40\n        /* \"#utility.yul\":7071:7074   */\n      dup3\n        /* \"#utility.yul\":7067:7079   */\n      add\n        /* \"#utility.yul\":7060:7079   */\n      swap1\n      pop\n        /* \"#utility.yul\":6719:7085   */\n      swap2\n      swap1\n      pop\n      jump\t// out\n        /* \"#utility.yul\":7091:7510   */\n    tag_147:\n        /* \"#utility.yul\":7257:7261   */\n      0x00\n        /* \"#utility.yul\":7295:7297   */\n      0x20\n        /* \"#utility.yul\":7284:7293   */\n      dup3\n        /* \"#utility.yul\":7280:7298   */\n      add\n        /* \"#utility.yul\":7272:7298   */\n      swap1\n      pop\n        /* \"#utility.yul\":7344:7353   */\n      dup2\n        /* \"#utility.yul\":7338:7342   */\n      dup2\n        /* \"#utility.yul\":7334:7354   */\n      sub\n        /* \"#utility.yul\":7330:7331   */\n      0x00\n        /* \"#utility.yul\":7319:7328   */\n      dup4\n        /* \"#utility.yul\":7315:7332   */\n      add\n        /* \"#utility.yul\":7308:7355   */\n      mstore\n        /* \"#utility.yul\":7372:7503   */\n      tag_470\n        /* \"#utility.yul\":7498:7502   */\n      dup2\n        /* \"#utility.yul\":7372:7503   */\n      tag_374\n      jump\t// in\n    tag_470:\n        /* \"#utility.yul\":7364:7503   */\n      swap1\n      pop\n        /* \"#utility.yul\":7091:7510   */\n      swap2\n      swap1\n      pop\n      jump\t// out\n        /* \"#utility.yul\":7516:7763   */\n    tag_375:\n        /* \"#utility.yul\":7656:7690   */\n      0x454e442045504f43483a2072657761726473206d75737420626520616c6c6f63\n        /* \"#utility.yul\":7652:7653   */\n      0x00\n        /* \"#utility.yul\":7644:7650   */\n      dup3\n        /* \"#utility.yul\":7640:7654   */\n      add\n        /* \"#utility.yul\":7633:7691   */\n      mstore\n        /* \"#utility.yul\":7725:7755   */\n      0x61746564206265666f726520656e64696e67207468652065706f636800000000\n        /* \"#utility.yul\":7720:7722   */\n      0x20\n        /* \"#utility.yul\":7712:7718   */\n      dup3\n        /* \"#utility.yul\":7708:7723   */\n      add\n        /* \"#utility.yul\":7701:7756   */\n      mstore\n        /* \"#utility.yul\":7516:7763   */\n      pop\n      jump\t// out\n        /* \"#utility.yul\":7769:8135   */\n    tag_376:\n        /* \"#utility.yul\":7911:7914   */\n      0x00\n        /* \"#utility.yul\":7932:7999   */\n      tag_473\n        /* \"#utility.yul\":7996:7998   */\n      0x3c\n        /* \"#utility.yul\":7991:7994   */\n      dup4\n        /* \"#utility.yul\":7932:7999   */\n      tag_372\n      jump\t// in\n    tag_473:\n        /* \"#utility.yul\":7925:7999   */\n      swap2\n      pop\n        /* \"#utility.yul\":8008:8101   */\n      tag_474\n        /* \"#utility.yul\":8097:8100   */\n      dup3\n        /* \"#utility.yul\":8008:8101   */\n      tag_375\n      jump\t// in\n    tag_474:\n        /* \"#utility.yul\":8126:8128   */\n      0x40\n        /* \"#utility.yul\":8121:8124   */\n      dup3\n        /* \"#utility.yul\":8117:8129   */\n      add\n        /* \"#utility.yul\":8110:8129   */\n      swap1\n      pop\n        /* \"#utility.yul\":7769:8135   */\n      swap2\n      swap1\n      pop\n      jump\t// out\n        /* \"#utility.yul\":8141:8560   */\n    tag_150:\n        /* \"#utility.yul\":8307:8311   */\n      0x00\n        /* \"#utility.yul\":8345:8347   */\n      0x20\n        /* \"#utility.yul\":8334:8343   */\n      dup3\n        /* \"#utility.yul\":8330:8348   */\n      add\n        /* \"#utility.yul\":8322:8348   */\n      swap1\n      pop\n        /* \"#utility.yul\":8394:8403   */\n      dup2\n        /* \"#utility.yul\":8388:8392   */\n      dup2\n        /* \"#utility.yul\":8384:8404   */\n      sub\n        /* \"#utility.yul\":8380:8381   */\n      0x00\n        /* \"#utility.yul\":8369:8378   */\n      dup4\n        /* \"#utility.yul\":8365:8382   */\n      add\n        /* \"#utility.yul\":8358:8405   */\n      mstore\n        /* \"#utility.yul\":8422:8553   */\n      tag_476\n        /* \"#utility.yul\":8548:8552   */\n      dup2\n        /* \"#utility.yul\":8422:8553   */\n      tag_376\n      jump\t// in\n    tag_476:\n        /* \"#utility.yul\":8414:8553   */\n      swap1\n      pop\n        /* \"#utility.yul\":8141:8560   */\n      swap2\n      swap1\n      pop\n      jump\t// out\n        /* \"#utility.yul\":8566:8746   */\n    tag_153:\n        /* \"#utility.yul\":8614:8691   */\n      0x4e487b7100000000000000000000000000000000000000000000000000000000\n        /* \"#utility.yul\":8611:8612   */\n      0x00\n        /* \"#utility.yul\":8604:8692   */\n      mstore\n        /* \"#utility.yul\":8711:8715   */\n      0x32\n        /* \"#utility.yul\":8708:8709   */\n      0x04\n        /* \"#utility.yul\":8701:8716   */\n      mstore\n        /* \"#utility.yul\":8735:8739   */\n      0x24\n        /* \"#utility.yul\":8732:8733   */\n      0x00\n        /* \"#utility.yul\":8725:8740   */\n      revert\n        /* \"#utility.yul\":8752:8932   */\n    tag_377:\n        /* \"#utility.yul\":8800:8877   */\n      0x4e487b7100000000000000000000000000000000000000000000000000000000\n        /* \"#utility.yul\":8797:8798   */\n      0x00\n        /* \"#utility.yul\":8790:8878   */\n      mstore\n        /* \"#utility.yul\":8897:8901   */\n      0x11\n        /* \"#utility.yul\":8894:8895   */\n      0x04\n        /* \"#utility.yul\":8887:8902   */\n      mstore\n        /* \"#utility.yul\":8921:8925   */\n      0x24\n        /* \"#utility.yul\":8918:8919   */\n      0x00\n        /* \"#utility.yul\":8911:8926   */\n      revert\n        /* \"#utility.yul\":8938:9171   */\n    tag_165:\n        /* \"#utility.yul\":8977:8980   */\n      0x00\n        /* \"#utility.yul\":9000:9024   */\n      tag_480\n        /* \"#utility.yul\":9018:9023   */\n      dup3\n        /* \"#utility.yul\":9000:9024   */\n      tag_353\n      jump\t// in\n    tag_480:\n        /* \"#utility.yul\":8991:9024   */\n      swap2\n      pop\n        /* \"#utility.yul\":9046:9112   */\n      0xffffffffffffffffffffffffffffffffffffffffffffffffffffffffffffffff\n        /* \"#utility.yul\":9039:9044   */\n      dup3\n        /* \"#utility.yul\":9036:9113   */\n      sub\n        /* \"#utility.yul\":9033:9136   */\n      tag_481\n      jumpi\n        /* \"#utility.yul\":9116:9134   */\n      tag_482\n      tag_377\n      jump\t// in\n    tag_482:\n        /* \"#utility.yul\":9033:9136   */\n    tag_481:\n        /* \"#utility.yul\":9163:9164   */\n      0x01\n        /* \"#utility.yul\":9156:9161   */\n      dup3\n        /* \"#utility.yul\":9152:9165   */\n      add\n        /* \"#utility.yul\":9145:9165   */\n      swap1\n      pop\n        /* \"#utility.yul\":8938:9171   */\n      swap2\n      swap1\n      pop\n      jump\t// out\n        /* \"#utility.yul\":9177:9400   */\n    tag_378:\n        /* \"#utility.yul\":9317:9351   */\n      0x455849543a206f6e6c7920616c6c6f77656420647572696e67206f70656e2070\n        /* \"#utility.yul\":9313:9314   */\n      0x00\n        /* \"#utility.yul\":9305:9311   */\n      dup3\n        /* \"#utility.yul\":9301:9315   */\n      add\n        /* \"#utility.yul\":9294:9352   */\n      mstore\n        /* \"#utility.yul\":9386:9392   */\n      0x6861736500000000000000000000000000000000000000000000000000000000\n        /* \"#utility.yul\":9381:9383   */\n      0x20\n        /* \"#utility.yul\":9373:9379   */\n      dup3\n        /* \"#utility.yul\":9369:9384   */\n      add\n        /* \"#utility.yul\":9362:9393   */\n      mstore\n        /* \"#utility.yul\":9177:9400   */\n      pop\n      jump\t// out\n        /* \"#utility.yul\":9406:9772   */\n    tag_379:\n        /* \"#utility.yul\":9548:9551   */\n      0x00\n        /* \"#utility.yul\":9569:9636   */\n      tag_485\n        /* \"#utility.yul\":9633:9635   */\n      0x24\n        /* \"#utility.yul\":9628:9631   */\n      dup4\n        /* \"#utility.yul\":9569:9636   */\n      tag_372\n      jump\t// in\n    tag_485:\n        /* \"#utility.yul\":9562:9636   */\n      swap2\n      pop\n        /* \"#utility.yul\":9645:9738   */\n      tag_486\n        /* \"#utility.yul\":9734:9737   */\n      dup3\n        /* \"#utility.yul\":9645:9738   */\n      tag_378\n      jump\t// in\n    tag_486:\n        /* \"#utility.yul\":9763:9765   */\n      0x40\n        /* \"#utility.yul\":9758:9761   */\n      dup3\n        /* \"#utility.yul\":9754:9766   */\n      add\n        /* \"#utility.yul\":9747:9766   */\n      swap1\n      pop\n        /* \"#utility.yul\":9406:9772   */\n      swap2\n      swap1\n      pop\n      jump\t// out\n        /* \"#utility.yul\":9778:10197   */\n    tag_187:\n        /* \"#utility.yul\":9944:9948   */\n      0x00\n        /* \"#utility.yul\":9982:9984   */\n      0x20\n        /* \"#utility.yul\":9971:9980   */\n      dup3\n        /* \"#utility.yul\":9967:9985   */\n      add\n        /* \"#utility.yul\":9959:9985   */\n      swap1\n      pop\n        /* \"#utility.yul\":10031:10040   */\n      dup2\n        /* \"#utility.yul\":10025:10029   */\n      dup2\n        /* \"#utility.yul\":10021:10041   */\n      sub\n        /* \"#utility.yul\":10017:10018   */\n      0x00\n        /* \"#utility.yul\":10006:10015   */\n      dup4\n        /* \"#utility.yul\":10002:10019   */\n      add\n        /* \"#utility.yul\":9995:10042   */\n      mstore\n        /* \"#utility.yul\":10059:10190   */\n      tag_488\n        /* \"#utility.yul\":10185:10189   */\n      dup2\n        /* \"#utility.yul\":10059:10190   */\n      tag_379\n      jump\t// in\n    tag_488:\n        /* \"#utility.yul\":10051:10190   */\n      swap1\n      pop\n        /* \"#utility.yul\":9778:10197   */\n      swap2\n      swap1\n      pop\n      jump\t// out\n        /* \"#utility.yul\":10203:10397   */\n    tag_195:\n        /* \"#utility.yul\":10243:10247   */\n      0x00\n        /* \"#utility.yul\":10263:10283   */\n      tag_490\n        /* \"#utility.yul\":10281:10282   */\n      dup3\n        /* \"#utility.yul\":10263:10283   */\n      tag_353\n      jump\t// in\n    tag_490:\n        /* \"#utility.yul\":10258:10283   */\n      swap2\n      pop\n        /* \"#utility.yul\":10297:10317   */\n      tag_491\n        /* \"#utility.yul\":10315:10316   */\n      dup4\n        /* \"#utility.yul\":10297:10317   */\n      tag_353\n      jump\t// in\n    tag_491:\n        /* \"#utility.yul\":10292:10317   */\n      swap3\n      pop\n        /* \"#utility.yul\":10341:10342   */\n      dup3\n        /* \"#utility.yul\":10338:10339   */\n      dup3\n        /* \"#utility.yul\":10334:10343   */\n      sub\n        /* \"#utility.yul\":10326:10343   */\n      swap1\n      pop\n        /* \"#utility.yul\":10365:10366   */\n      dup2\n        /* \"#utility.yul\":10359:10363   */\n      dup2\n        /* \"#utility.yul\":10356:10367   */\n      gt\n        /* \"#utility.yul\":10353:10390   */\n      iszero\n      tag_492\n      jumpi\n        /* \"#utility.yul\":10370:10388   */\n      tag_493\n      tag_377\n      jump\t// in\n    tag_493:\n        /* \"#utility.yul\":10353:10390   */\n    tag_492:\n        /* \"#utility.yul\":10203:10397   */\n      swap3\n      swap2\n      pop\n      pop\n      jump\t// out\n        /* \"#utility.yul\":10403:10550   */\n    tag_380:\n        /* \"#utility.yul\":10504:10515   */\n      0x00\n        /* \"#utility.yul\":10541:10544   */\n      dup2\n        /* \"#utility.yul\":10526:10544   */\n      swap1\n      pop\n        /* \"#utility.yul\":10403:10550   */\n      swap3\n      swap2\n      pop\n      pop\n      jump\t// out\n        /* \"#utility.yul\":10556:10670   */\n    tag_381:\n      pop\n      jump\t// out\n        /* \"#utility.yul\":10676:11074   */\n    tag_382:\n        /* \"#utility.yul\":10835:10838   */\n      0x00\n        /* \"#utility.yul\":10856:10939   */\n      tag_497\n        /* \"#utility.yul\":10937:10938   */\n      0x00\n        /* \"#utility.yul\":10932:10935   */\n      dup4\n        /* \"#utility.yul\":10856:10939   */\n      tag_380\n      jump\t// in\n    tag_497:\n        /* \"#utility.yul\":10849:10939   */\n      swap2\n      pop\n        /* \"#utility.yul\":10948:11041   */\n      tag_498\n        /* \"#utility.yul\":11037:11040   */\n      dup3\n        /* \"#utility.yul\":10948:11041   */\n      tag_381\n      jump\t// in\n    tag_498:\n        /* \"#utility.yul\":11066:11067   */\n      0x00\n        /* \"#utility.yul\":11061:11064   */\n      dup3\n        /* \"#utility.yul\":11057:11068   */\n      add\n        /* \"#utility.yul\":11050:11068   */\n      swap1\n      pop\n        /* \"#utility.yul\":10676:11074   */\n      swap2\n      swap1\n      pop\n      jump\t// out\n        /* \"#utility.yul\":11080:11459   */\n    tag_201:\n        /* \"#utility.yul\":11264:11267   */\n      0x00\n        /* \"#utility.yul\":11286:11433   */\n      tag_500\n        /* \"#utility.yul\":11429:11432   */\n      dup3\n        /* \"#utility.yul\":11286:11433   */\n      tag_382\n      jump\t// in\n    tag_500:\n        /* \"#utility.yul\":11279:11433   */\n      swap2\n      pop\n        /* \"#utility.yul\":11450:11453   */\n      dup2\n        /* \"#utility.yul\":11443:11453   */\n      swap1\n      pop\n        /* \"#utility.yul\":11080:11459   */\n      swap2\n      swap1\n      pop\n      jump\t// out\n        /* \"#utility.yul\":11465:11701   */\n    tag_383:\n        /* \"#utility.yul\":11605:11639   */\n      0x52554e2045504f43483a2063616e206f6e6c792073746172742072756e6e696e\n        /* \"#utility.yul\":11601:11602   */\n      0x00\n        /* \"#utility.yul\":11593:11599   */\n      dup3\n        /* \"#utility.yul\":11589:11603   */\n      add\n        /* \"#utility.yul\":11582:11640   */\n      mstore\n        /* \"#utility.yul\":11674:11693   */\n      0x672066726f6d206f70656e207068617365000000000000000000000000000000\n        /* \"#utility.yul\":11669:11671   */\n      0x20\n        /* \"#utility.yul\":11661:11667   */\n      dup3\n        /* \"#utility.yul\":11657:11672   */\n      add\n        /* \"#utility.yul\":11650:11694   */\n      mstore\n        /* \"#utility.yul\":11465:11701   */\n      pop\n      jump\t// out\n        /* \"#utility.yul\":11707:12073   */\n    tag_384:\n        /* \"#utility.yul\":11849:11852   */\n      0x00\n        /* \"#utility.yul\":11870:11937   */\n      tag_503\n        /* \"#utility.yul\":11934:11936   */\n      0x31\n        /* \"#utility.yul\":11929:11932   */\n      dup4\n        /* \"#utility.yul\":11870:11937   */\n      tag_372\n      jump\t// in\n    tag_503:\n        /* \"#utility.yul\":11863:11937   */\n      swap2\n      pop\n        /* \"#utility.yul\":11946:12039   */\n      tag_504\n        /* \"#utility.yul\":12035:12038   */\n      dup3\n        /* \"#utility.yul\":11946:12039   */\n      tag_383\n      jump\t// in\n    tag_504:\n        /* \"#utility.yul\":12064:12066   */\n      0x40\n        /* \"#utility.yul\":12059:12062   */\n      dup3\n        /* \"#utility.yul\":12055:12067   */\n      add\n        /* \"#utility.yul\":12048:12067   */\n      swap1\n      pop\n        /* \"#utility.yul\":11707:12073   */\n      swap2\n      swap1\n      pop\n      jump\t// out\n        /* \"#utility.yul\":12079:12498   */\n    tag_219:\n        /* \"#utility.yul\":12245:12249   */\n      0x00\n        /* \"#utility.yul\":12283:12285   */\n      0x20\n        /* \"#utility.yul\":12272:12281   */\n      dup3\n        /* \"#utility.yul\":12268:12286   */\n      add\n        /* \"#utility.yul\":12260:12286   */\n      swap1\n      pop\n        /* \"#utility.yul\":12332:12341   */\n      dup2\n        /* \"#utility.yul\":12326:12330   */\n      dup2\n        /* \"#utility.yul\":12322:12342   */\n      sub\n        /* \"#utility.yul\":12318:12319   */\n      0x00\n        /* \"#utility.yul\":12307:12316   */\n      dup4\n        /* \"#utility.yul\":12303:12320   */\n      add\n        /* \"#utility.yul\":12296:12343   */\n      mstore\n        /* \"#utility.yul\":12360:12491   */\n      tag_506\n        /* \"#utility.yul\":12486:12490   */\n      dup2\n        /* \"#utility.yul\":12360:12491   */\n      tag_384\n      jump\t// in\n    tag_506:\n        /* \"#utility.yul\":12352:12491   */\n      swap1\n      pop\n        /* \"#utility.yul\":12079:12498   */\n      swap2\n      swap1\n      pop\n      jump\t// out\n        /* \"#utility.yul\":12504:12733   */\n    tag_385:\n        /* \"#utility.yul\":12644:12678   */\n      0x414c4c4f4341544520524557415244533a206d75737420626520696e2072756e\n        /* \"#utility.yul\":12640:12641   */\n      0x00\n        /* \"#utility.yul\":12632:12638   */\n      dup3\n        /* \"#utility.yul\":12628:12642   */\n      add\n        /* \"#utility.yul\":12621:12679   */\n      mstore\n        /* \"#utility.yul\":12713:12725   */\n      0x6e696e6720706861736500000000000000000000000000000000000000000000\n        /* \"#utility.yul\":12708:12710   */\n      0x20\n        /* \"#utility.yul\":12700:12706   */\n      dup3\n        /* \"#utility.yul\":12696:12711   */\n      add\n        /* \"#utility.yul\":12689:12726   */\n      mstore\n        /* \"#utility.yul\":12504:12733   */\n      pop\n      jump\t// out\n        /* \"#utility.yul\":12739:13105   */\n    tag_386:\n        /* \"#utility.yul\":12881:12884   */\n      0x00\n        /* \"#utility.yul\":12902:12969   */\n      tag_509\n        /* \"#utility.yul\":12966:12968   */\n      0x2a\n        /* \"#utility.yul\":12961:12964   */\n      dup4\n        /* \"#utility.yul\":12902:12969   */\n      tag_372\n      jump\t// in\n    tag_509:\n        /* \"#utility.yul\":12895:12969   */\n      swap2\n      pop\n        /* \"#utility.yul\":12978:13071   */\n      tag_510\n        /* \"#utility.yul\":13067:13070   */\n      dup3\n        /* \"#utility.yul\":12978:13071   */\n      tag_385\n      jump\t// in\n    tag_510:\n        /* \"#utility.yul\":13096:13098   */\n      0x40\n        /* \"#utility.yul\":13091:13094   */\n      dup3\n        /* \"#utility.yul\":13087:13099   */\n      add\n        /* \"#utility.yul\":13080:13099   */\n      swap1\n      pop\n        /* \"#utility.yul\":12739:13105   */\n      swap2\n      swap1\n      pop\n      jump\t// out\n        /* \"#utility.yul\":13111:13530   */\n    tag_242:\n        /* \"#utility.yul\":13277:13281   */\n      0x00\n        /* \"#utility.yul\":13315:13317   */\n      0x20\n        /* \"#utility.yul\":13304:13313   */\n      dup3\n        /* \"#utility.yul\":13300:13318   */\n      add\n        /* \"#utility.yul\":13292:13318   */\n      swap1\n      pop\n        /* \"#utility.yul\":13364:13373   */\n      dup2\n        /* \"#utility.yul\":13358:13362   */\n      dup2\n        /* \"#utility.yul\":13354:13374   */\n      sub\n        /* \"#utility.yul\":13350:13351   */\n      0x00\n        /* \"#utility.yul\":13339:13348   */\n      dup4\n        /* \"#utility.yul\":13335:13352   */\n      add\n        /* \"#utility.yul\":13328:13375   */\n      mstore\n        /* \"#utility.yul\":13392:13523   */\n      tag_512\n        /* \"#utility.yul\":13518:13522   */\n      dup2\n        /* \"#utility.yul\":13392:13523   */\n      tag_386\n      jump\t// in\n    tag_512:\n        /* \"#utility.yul\":13384:13523   */\n      swap1\n      pop\n        /* \"#utility.yul\":13111:13530   */\n      swap2\n      swap1\n      pop\n      jump\t// out\n        /* \"#utility.yul\":13536:13758   */\n    tag_387:\n        /* \"#utility.yul\":13676:13710   */\n      0x436f6e747261637420616c726561647920696e20726571756573746564207374\n        /* \"#utility.yul\":13672:13673   */\n      0x00\n        /* \"#utility.yul\":13664:13670   */\n      dup3\n        /* \"#utility.yul\":13660:13674   */\n      add\n        /* \"#utility.yul\":13653:13711   */\n      mstore\n        /* \"#utility.yul\":13745:13750   */\n      0x6174650000000000000000000000000000000000000000000000000000000000\n        /* \"#utility.yul\":13740:13742   */\n      0x20\n        /* \"#utility.yul\":13732:13738   */\n      dup3\n        /* \"#utility.yul\":13728:13743   */\n      add\n        /* \"#utility.yul\":13721:13751   */\n      mstore\n        /* \"#utility.yul\":13536:13758   */\n      pop\n      jump\t// out\n        /* \"#utility.yul\":13764:14130   */\n    tag_388:\n        /* \"#utility.yul\":13906:13909   */\n      0x00\n        /* \"#utility.yul\":13927:13994   */\n      tag_515\n        /* \"#utility.yul\":13991:13993   */\n      0x23\n        /* \"#utility.yul\":13986:13989   */\n      dup4\n        /* \"#utility.yul\":13927:13994   */\n      tag_372\n      jump\t// in\n    tag_515:\n        /* \"#utility.yul\":13920:13994   */\n      swap2\n      pop\n        /* \"#utility.yul\":14003:14096   */\n      tag_516\n        /* \"#utility.yul\":14092:14095   */\n      dup3\n        /* \"#utility.yul\":14003:14096   */\n      tag_387\n      jump\t// in\n    tag_516:\n        /* \"#utility.yul\":14121:14123   */\n      0x40\n        /* \"#utility.yul\":14116:14119   */\n      dup3\n        /* \"#utility.yul\":14112:14124   */\n      add\n        /* \"#utility.yul\":14105:14124   */\n      swap1\n      pop\n        /* \"#utility.yul\":13764:14130   */\n      swap2\n      swap1\n      pop\n      jump\t// out\n        /* \"#utility.yul\":14136:14555   */\n    tag_276:\n        /* \"#utility.yul\":14302:14306   */\n      0x00\n        /* \"#utility.yul\":14340:14342   */\n      0x20\n        /* \"#utility.yul\":14329:14338   */\n      dup3\n        /* \"#utility.yul\":14325:14343   */\n      add\n        /* \"#utility.yul\":14317:14343   */\n      swap1\n      pop\n        /* \"#utility.yul\":14389:14398   */\n      dup2\n        /* \"#utility.yul\":14383:14387   */\n      dup2\n        /* \"#utility.yul\":14379:14399   */\n      sub\n        /* \"#utility.yul\":14375:14376   */\n      0x00\n        /* \"#utility.yul\":14364:14373   */\n      dup4\n        /* \"#utility.yul\":14360:14377   */\n      add\n        /* \"#utility.yul\":14353:14400   */\n      mstore\n        /* \"#utility.yul\":14417:14548   */\n      tag_518\n        /* \"#utility.yul\":14543:14547   */\n      dup2\n        /* \"#utility.yul\":14417:14548   */\n      tag_388\n      jump\t// in\n    tag_518:\n        /* \"#utility.yul\":14409:14548   */\n      swap1\n      pop\n        /* \"#utility.yul\":14136:14555   */\n      swap2\n      swap1\n      pop\n      jump\t// out\n        /* \"#utility.yul\":14561:14785   */\n    tag_389:\n        /* \"#utility.yul\":14701:14735   */\n      0x454e5445523a206f6e6c7920616c6c6f77656420647572696e67206f70656e20\n        /* \"#utility.yul\":14697:14698   */\n      0x00\n        /* \"#utility.yul\":14689:14695   */\n      dup3\n        /* \"#utility.yul\":14685:14699   */\n      add\n        /* \"#utility.yul\":14678:14736   */\n      mstore\n        /* \"#utility.yul\":14770:14777   */\n      0x7068617365000000000000000000000000000000000000000000000000000000\n        /* \"#utility.yul\":14765:14767   */\n      0x20\n        /* \"#utility.yul\":14757:14763   */\n      dup3\n        /* \"#utility.yul\":14753:14768   */\n      add\n        /* \"#utility.yul\":14746:14778   */\n      mstore\n        /* \"#utility.yul\":14561:14785   */\n      pop\n      jump\t// out\n        /* \"#utility.yul\":14791:15157   */\n    tag_390:\n        /* \"#utility.yul\":14933:14936   */\n      0x00\n        /* \"#utility.yul\":14954:15021   */\n      tag_521\n        /* \"#utility.yul\":15018:15020   */\n      0x25\n        /* \"#utility.yul\":15013:15016   */\n      dup4\n        /* \"#utility.yul\":14954:15021   */\n      tag_372\n      jump\t// in\n    tag_521:\n        /* \"#utility.yul\":14947:15021   */\n      swap2\n      pop\n        /* \"#utility.yul\":15030:15123   */\n      tag_522\n        /* \"#utility.yul\":15119:15122   */\n      dup3\n        /* \"#utility.yul\":15030:15123   */\n      tag_389\n      jump\t// in\n    tag_522:\n        /* \"#utility.yul\":15148:15150   */\n      0x40\n        /* \"#utility.yul\":15143:15146   */\n      dup3\n        /* \"#utility.yul\":15139:15151   */\n      add\n        /* \"#utility.yul\":15132:15151   */\n      swap1\n      pop\n        /* \"#utility.yul\":14791:15157   */\n      swap2\n      swap1\n      pop\n      jump\t// out\n        /* \"#utility.yul\":15163:15582   */\n    tag_289:\n        /* \"#utility.yul\":15329:15333   */\n      0x00\n        /* \"#utility.yul\":15367:15369   */\n      0x20\n        /* \"#utility.yul\":15356:15365   */\n      dup3\n        /* \"#utility.yul\":15352:15370   */\n      add\n        /* \"#utility.yul\":15344:15370   */\n      swap1\n      pop\n        /* \"#utility.yul\":15416:15425   */\n      dup2\n        /* \"#utility.yul\":15410:15414   */\n      dup2\n        /* \"#utility.yul\":15406:15426   */\n      sub\n        /* \"#utility.yul\":15402:15403   */\n      0x00\n        /* \"#utility.yul\":15391:15400   */\n      dup4\n        /* \"#utility.yul\":15387:15404   */\n      add\n        /* \"#utility.yul\":15380:15427   */\n      mstore\n        /* \"#utility.yul\":15444:15575   */\n      tag_524\n        /* \"#utility.yul\":15570:15574   */\n      dup2\n        /* \"#utility.yul\":15444:15575   */\n      tag_390\n      jump\t// in\n    tag_524:\n        /* \"#utility.yul\":15436:15575   */\n      swap1\n      pop\n        /* \"#utility.yul\":15163:15582   */\n      swap2\n      swap1\n      pop\n      jump\t// out\n        /* \"#utility.yul\":15588:15779   */\n    tag_298:\n        /* \"#utility.yul\":15628:15631   */\n      0x00\n        /* \"#utility.yul\":15647:15667   */\n      tag_526\n        /* \"#utility.yul\":15665:15666   */\n      dup3\n        /* \"#utility.yul\":15647:15667   */\n      tag_353\n      jump\t// in\n    tag_526:\n        /* \"#utility.yul\":15642:15667   */\n      swap2\n      pop\n        /* \"#utility.yul\":15681:15701   */\n      tag_527\n        /* \"#utility.yul\":15699:15700   */\n      dup4\n        /* \"#utility.yul\":15681:15701   */\n      tag_353\n      jump\t// in\n    tag_527:\n        /* \"#utility.yul\":15676:15701   */\n      swap3\n      pop\n        /* \"#utility.yul\":15724:15725   */\n      dup3\n        /* \"#utility.yul\":15721:15722   */\n      dup3\n        /* \"#utility.yul\":15717:15726   */\n      add\n        /* \"#utility.yul\":15710:15726   */\n      swap1\n      pop\n        /* \"#utility.yul\":15745:15748   */\n      dup1\n        /* \"#utility.yul\":15742:15743   */\n      dup3\n        /* \"#utility.yul\":15739:15749   */\n      gt\n        /* \"#utility.yul\":15736:15772   */\n      iszero\n      tag_528\n      jumpi\n        /* \"#utility.yul\":15752:15770   */\n      tag_529\n      tag_377\n      jump\t// in\n    tag_529:\n        /* \"#utility.yul\":15736:15772   */\n    tag_528:\n        /* \"#utility.yul\":15588:15779   */\n      swap3\n      swap2\n      pop\n      pop\n      jump\t// out\n\n    auxdata: 0xa26469706673582212206884236a3824305813aea3ee672159098f32a517a1b13c70b13348f13f7e57de64736f6c634300081a0033\n}\n",
				"bytecode": {
					"linkReferences": {},
					"object": "608060405234801561000f575f80fd5b5060405161265e38038061265e8339818101604052810190610031919061033a565b335f73ffffffffffffffffffffffffffffffffffffffff168173ffffffffffffffffffffffffffffffffffffffff16036100a2575f6040517f1e4fbdf70000000000000000000000000000000000000000000000000000000081526004016100999190610374565b60405180910390fd5b6100b18161021b60201b60201c565b5060018081905550600360405180604001604052805f81526020015f815250908060018154018082558091505060019003905f5260205f2090600202015f909190919091505f820151815f0155602082015181600101555050600360405180604001604052805f81526020015f815250908060018154018082558091505060019003905f5260205f2090600202015f909190919091505f820151815f015560208201518160010155505080600260016101000a81548173ffffffffffffffffffffffffffffffffffffffff021916908373ffffffffffffffffffffffffffffffffffffffff1602179055505f60025f6101000a81548160ff021916908360018111156101c0576101bf61038d565b5b0217905550600160048190555066b1a2bc2ec500006006819055506004547f3011a2cb7316f75847dafe7f596d9728f2bcb38e662b785f36bc7ea76e4e71424260405161020d91906103d2565b60405180910390a2506103eb565b5f805f9054906101000a900473ffffffffffffffffffffffffffffffffffffffff169050815f806101000a81548173ffffffffffffffffffffffffffffffffffffffff021916908373ffffffffffffffffffffffffffffffffffffffff1602179055508173ffffffffffffffffffffffffffffffffffffffff168173ffffffffffffffffffffffffffffffffffffffff167f8be0079c531659141344cd1fd0a4f28419497f9722a3daafe3b4186f6b6457e060405160405180910390a35050565b5f80fd5b5f73ffffffffffffffffffffffffffffffffffffffff82169050919050565b5f610309826102e0565b9050919050565b610319816102ff565b8114610323575f80fd5b50565b5f8151905061033481610310565b92915050565b5f6020828403121561034f5761034e6102dc565b5b5f61035c84828501610326565b91505092915050565b61036e816102ff565b82525050565b5f6020820190506103875f830184610365565b92915050565b7f4e487b71000000000000000000000000000000000000000000000000000000005f52602160045260245ffd5b5f819050919050565b6103cc816103ba565b82525050565b5f6020820190506103e55f8301846103c3565b92915050565b612266806103f85f395ff3fe608060405260043610610134575f3560e01c8063a17d97f3116100aa578063c6b61e4c1161006e578063c6b61e4c1461037b578063cd237a41146103b8578063e6c47bc5146103e0578063e97dcb621461040a578063eacdc5ff14610414578063f2fde38b1461043e57610134565b8063a17d97f3146102cb578063a3bc61a5146102e1578063a72b05bc146102eb578063b6ff493414610315578063b97dd9e21461035157610134565b8063664a1ad6116100fc578063664a1ad6146101d25780636c003a9b146101fc578063715018a6146102265780637f8661a11461023c5780638da5cb5b146102645780638da7ad231461028e57610134565b8063233e9903146101385780632387d32c14610160578063372500ab1461018a57806355ce3b9a146101a05780635f75659f146101c8575b5f80fd5b348015610143575f80fd5b5061015e60048036038101906101599190611a3f565b610466565b005b34801561016b575f80fd5b506101746104ba565b6040516101819190611a79565b60405180910390f35b348015610195575f80fd5b5061019e6104c6565b005b3480156101ab575f80fd5b506101c660048036038101906101c19190611aec565b61059c565b005b6101d061066a565b005b3480156101dd575f80fd5b506101e66108f9565b6040516101f39190611b26565b60405180910390f35b348015610207575f80fd5b5061021061091f565b60405161021d9190611b59565b60405180910390f35b348015610231575f80fd5b5061023a610932565b005b348015610247575f80fd5b50610262600480360381019061025d9190611a3f565b610945565b005b34801561026f575f80fd5b50610278610c36565b6040516102859190611b26565b60405180910390f35b348015610299575f80fd5b506102b460048036038101906102af9190611aec565b610c5d565b6040516102c2929190611b72565b60405180910390f35b3480156102d6575f80fd5b506102df610c7d565b005b6102e9610ed7565b005b3480156102f6575f80fd5b506102ff611087565b60405161030c9190611c0c565b60405180910390f35b348015610320575f80fd5b5061033b60048036038101906103369190611aec565b611099565b6040516103489190611b59565b60405180910390f35b34801561035c575f80fd5b5061036561120a565b6040516103729190611c61565b60405180910390f35b348015610386575f80fd5b506103a1600480360381019061039c9190611a3f565b611257565b6040516103af929190611b72565b60405180910390f35b3480156103c3575f80fd5b506103de60048036038101906103d99190611ca4565b611286565b005b3480156103eb575f80fd5b506103f4611343565b6040516104019190611a79565b60405180910390f35b610412611349565b005b34801561041f575f80fd5b5061042861157a565b6040516104359190611a79565b60405180910390f35b348015610449575f80fd5b50610464600480360381019061045f9190611aec565b611580565b005b61046e611604565b5f6006549050816006819055507fdc4a0b2dc1fa27da98de2ac6f8fa373b4be405e1bf69fc3976597b6d56b79abc816006546040516104ae929190611b72565b60405180910390a15050565b5f600380549050905090565b60075f9054906101000a900460ff161561050c576040517f6f5ffb7e00000000000000000000000000000000000000000000000000000000815260040160405180910390fd5b600260159054906101000a900460ff16610552576040517f01e9ef8a00000000000000000000000000000000000000000000000000000000815260040160405180910390fd5b61055b33611099565b610591576040517f5aa9184d00000000000000000000000000000000000000000000000000000000815260040160405180910390fd5b61059a3361168b565b565b6105a4611604565b5f600260019054906101000a900473ffffffffffffffffffffffffffffffffffffffff16905081600260016101000a81548173ffffffffffffffffffffffffffffffffffffffff021916908373ffffffffffffffffffffffffffffffffffffffff1602179055507f9c41a9a969e821894638b441dcdf78c0573277c91b8ac63440d790f5634a2b0b81600260019054906101000a900473ffffffffffffffffffffffffffffffffffffffff1660405161065e929190611ccf565b60405180910390a15050565b610672611604565b60018081111561068557610684611b99565b5b60025f9054906101000a900460ff1660018111156106a6576106a5611b99565b5b146106e6576040517ffcbfb2b10000000000000000000000000000000000000000000000000000000081526004016106dd90611d76565b60405180910390fd5b600260159054906101000a900460ff16610735576040517ffcbfb2b100000000000000000000000000000000000000000000000000000000815260040161072c90611e04565b60405180910390fd5b60036004548154811061074b5761074a611e22565b5b905f5260205f2090600202015f01543410156107c4573460036004548154811061077857610777611e22565b5b905f5260205f2090600202015f01546040517f41709d080000000000000000000000000000000000000000000000000000000081526004016107bb929190611b72565b60405180910390fd5b5f6003600454815481106107db576107da611e22565b5b905f5260205f20906002020190505f815f015490506004547f64570abbb448406f773ac3a0c62178ed95f93e5465f64860899859bbe490fb42426040516108229190611a79565b60405180910390a260045f81548092919061083c90611e7c565b9190505550600360405180604001604052808381526020015f815250908060018154018082558091505060019003905f5260205f2090600202015f909190919091505f820151815f01556020820151816001015550505f60025f6101000a81548160ff021916908360018111156108b6576108b5611b99565b5b02179055506004547f3011a2cb7316f75847dafe7f596d9728f2bcb38e662b785f36bc7ea76e4e7142426040516108ed9190611a79565b60405180910390a25050565b600260019054906101000a900473ffffffffffffffffffffffffffffffffffffffff1681565b600260159054906101000a900460ff1681565b61093a611604565b6109435f6118ac565b565b61094d61196d565b60075f9054906101000a900460ff1615610993576040517f6f5ffb7e00000000000000000000000000000000000000000000000000000000815260040160405180910390fd5b5f60018111156109a6576109a5611b99565b5b60025f9054906101000a900460ff1660018111156109c7576109c6611b99565b5b14610a07576040517ffcbfb2b10000000000000000000000000000000000000000000000000000000081526004016109fe90611f33565b60405180910390fd5b5f60055f3373ffffffffffffffffffffffffffffffffffffffff1673ffffffffffffffffffffffffffffffffffffffff1681526020019081526020015f20905081815f01541015610a945781815f01546040517fcf479181000000000000000000000000000000000000000000000000000000008152600401610a8b929190611b72565b60405180910390fd5b5f8203610acd576040517f5e85ae7300000000000000000000000000000000000000000000000000000000815260040160405180910390fd5b610ad633611099565b15610ae557610ae43361168b565b5b81815f015f828254610af79190611f51565b9250508190555081600360045481548110610b1557610b14611e22565b5b905f5260205f2090600202015f015f828254610b319190611f51565b925050819055505f3373ffffffffffffffffffffffffffffffffffffffff1683604051610b5d90611fb1565b5f6040518083038185875af1925050503d805f8114610b97576040519150601f19603f3d011682016040523d82523d5f602084013e610b9c565b606091505b5050905080610bd7576040517f90b8ec1800000000000000000000000000000000000000000000000000000000815260040160405180910390fd5b3373ffffffffffffffffffffffffffffffffffffffff167fd2263e970e3552b8e14c013f4d6af030894ef3ae6f025607042368db047a441884600454604051610c21929190611b72565b60405180910390a25050610c336119b3565b50565b5f805f9054906101000a900473ffffffffffffffffffffffffffffffffffffffff16905090565b6005602052805f5260405f205f91509050805f0154908060010154905082565b610c85611604565b5f6001811115610c9857610c97611b99565b5b60025f9054906101000a900460ff166001811115610cb957610cb8611b99565b5b14610cf9576040517ffcbfb2b1000000000000000000000000000000000000000000000000000000008152600401610cf090612035565b60405180910390fd5b600160025f6101000a81548160ff02191690836001811115610d1e57610d1d611b99565b5b02179055505f600260156101000a81548160ff0219169083151502179055505f600360045481548110610d5457610d53611e22565b5b905f5260205f2090600202015f015490505f600260019054906101000a900473ffffffffffffffffffffffffffffffffffffffff1673ffffffffffffffffffffffffffffffffffffffff1682604051610dac90611fb1565b5f6040518083038185875af1925050503d805f8114610de6576040519150601f19603f3d011682016040523d82523d5f602084013e610deb565b606091505b5050905080610e26576040517f90b8ec1800000000000000000000000000000000000000000000000000000000815260040160405180910390fd5b7fbba732616e420f73d99f0db8b286a4d23e682e7317282ff0723f9dc8daf988095f604051610e559190611b59565b60405180910390a16004547f04ded3f62ae2ab4717c7253fd9d8a4b3f253afc40fd5280a272755ce344d1cc683604051610e8f9190611a79565b60405180910390a26004547f52c5abe9e004b5b25ca01e93c14fc741f8f6f73683e7299cbb65a18b8c6296a24284604051610ecb929190611b72565b60405180910390a25050565b610edf611604565b600180811115610ef257610ef1611b99565b5b60025f9054906101000a900460ff166001811115610f1357610f12611b99565b5b14610f53576040517ffcbfb2b1000000000000000000000000000000000000000000000000000000008152600401610f4a906120c3565b60405180910390fd5b5f3403610f8c576040517f9123564a00000000000000000000000000000000000000000000000000000000815260040160405180910390fd5b5f600360045481548110610fa357610fa2611e22565b5b905f5260205f20906002020190505f816001015414610fee576040517fec94ce5000000000000000000000000000000000000000000000000000000000815260040160405180910390fd5b3481600101819055506001600260156101000a81548160ff0219169083151502179055506004547ff9ecaf62687e41c2eb3b9f3bb3e5562b198859fda05aed70e3cc7e3a060e8c9d346040516110449190611a79565b60405180910390a27fbba732616e420f73d99f0db8b286a4d23e682e7317282ff0723f9dc8daf98809600160405161107c9190611b59565b60405180910390a150565b60025f9054906101000a900460ff1681565b5f8060055f8473ffffffffffffffffffffffffffffffffffffffff1673ffffffffffffffffffffffffffffffffffffffff1681526020019081526020015f205f0154036110e8575f9050611205565b60016004541480156111075750600260159054906101000a900460ff16155b15611114575f9050611205565b5f600181111561112757611126611b99565b5b60025f9054906101000a900460ff16600181111561114857611147611b99565b5b1480156111a25750600160045461115f9190611f51565b60055f8473ffffffffffffffffffffffffffffffffffffffff1673ffffffffffffffffffffffffffffffffffffffff1681526020019081526020015f2060010154145b156111af575f9050611205565b60045460055f8473ffffffffffffffffffffffffffffffffffffffff1673ffffffffffffffffffffffffffffffffffffffff1681526020019081526020015f206001015403611200575f9050611205565b600190505b919050565b6112126119f0565b60036004548154811061122857611227611e22565b5b905f5260205f2090600202016040518060400160405290815f8201548152602001600182015481525050905090565b60038181548110611266575f80fd5b905f5260205f2090600202015f91509050805f0154908060010154905082565b61128e611604565b80151560075f9054906101000a900460ff161515036112e2576040517f08c379a00000000000000000000000000000000000000000000000000000000081526004016112d990612151565b60405180910390fd5b8060075f6101000a81548160ff0219169083151502179055507fe02150678eb6624ed499094e86e8c4a31d3b37225e9a835c9193964d5eb1eec760075f9054906101000a900460ff166040516113389190611b59565b60405180910390a150565b60065481565b61135161196d565b60075f9054906101000a900460ff1615611397576040517f6f5ffb7e00000000000000000000000000000000000000000000000000000000815260040160405180910390fd5b5f60018111156113aa576113a9611b99565b5b60025f9054906101000a900460ff1660018111156113cb576113ca611b99565b5b1461140b576040517ffcbfb2b1000000000000000000000000000000000000000000000000000000008152600401611402906121df565b60405180910390fd5b60065434101561145657346006546040517f45be0a2600000000000000000000000000000000000000000000000000000000815260040161144d929190611b72565b60405180910390fd5b5f60055f3373ffffffffffffffffffffffffffffffffffffffff1673ffffffffffffffffffffffffffffffffffffffff1681526020019081526020015f20905061149f33611099565b156114b2576114ad3361168b565b6114ca565b60016004546114c19190611f51565b81600101819055505b34815f015f8282546114dc91906121fd565b92505081905550346003600454815481106114fa576114f9611e22565b5b905f5260205f2090600202015f015f82825461151691906121fd565b925050819055503373ffffffffffffffffffffffffffffffffffffffff167f2f1a7fda57b5fd5cb62770aebd7fc9a8a0a834c5ff558eb7562f85f2b28c437534600454604051611567929190611b72565b60405180910390a2506115786119b3565b565b60045481565b611588611604565b5f73ffffffffffffffffffffffffffffffffffffffff168173ffffffffffffffffffffffffffffffffffffffff16036115f8575f6040517f1e4fbdf70000000000000000000000000000000000000000000000000000000081526004016115ef9190611b26565b60405180910390fd5b611601816118ac565b50565b61160c6119bc565b73ffffffffffffffffffffffffffffffffffffffff1661162a610c36565b73ffffffffffffffffffffffffffffffffffffffff16146116895761164d6119bc565b6040517f118cdaa70000000000000000000000000000000000000000000000000000000081526004016116809190611b26565b60405180910390fd5b565b5f60055f8373ffffffffffffffffffffffffffffffffffffffff1673ffffffffffffffffffffffffffffffffffffffff1681526020019081526020015f2090505f80600183600101546116de91906121fd565b90505f8060018111156116f4576116f3611b99565b5b60025f9054906101000a900460ff16600181111561171557611714611b99565b5b036117395760016004546117299190611f51565b9050808460010181905550611748565b60045490508084600101819055505b5f8290505b8181116117b2575f6003828154811061176957611768611e22565b5b905f5260205f20906002020190505f61178d875f01548360010154845f01546119c3565b9050808661179b91906121fd565b9550505080806117aa90611e7c565b91505061174d565b505f3373ffffffffffffffffffffffffffffffffffffffff16846040516117d890611fb1565b5f6040518083038185875af1925050503d805f8114611812576040519150601f19603f3d011682016040523d82523d5f602084013e611817565b606091505b5050905080611852576040517f90b8ec1800000000000000000000000000000000000000000000000000000000815260040160405180910390fd5b3373ffffffffffffffffffffffffffffffffffffffff167ff0a79ba53601e311de7e03ea2c22463403a62c3d42cec4b256a0f74e1259dae58560045460405161189c929190611b72565b60405180910390a2505050505050565b5f805f9054906101000a900473ffffffffffffffffffffffffffffffffffffffff169050815f806101000a81548173ffffffffffffffffffffffffffffffffffffffff021916908373ffffffffffffffffffffffffffffffffffffffff1602179055508173ffffffffffffffffffffffffffffffffffffffff168173ffffffffffffffffffffffffffffffffffffffff167f8be0079c531659141344cd1fd0a4f28419497f9722a3daafe3b4186f6b6457e060405160405180910390a35050565b6002600154036119a9576040517f3ee5aeb500000000000000000000000000000000000000000000000000000000815260040160405180910390fd5b6002600181905550565b60018081905550565b5f33905090565b5f8284029050818385830414851517026119e45763ad251c275f526004601cfd5b81810490509392505050565b60405180604001604052805f81526020015f81525090565b5f80fd5b5f819050919050565b611a1e81611a0c565b8114611a28575f80fd5b50565b5f81359050611a3981611a15565b92915050565b5f60208284031215611a5457611a53611a08565b5b5f611a6184828501611a2b565b91505092915050565b611a7381611a0c565b82525050565b5f602082019050611a8c5f830184611a6a565b92915050565b5f73ffffffffffffffffffffffffffffffffffffffff82169050919050565b5f611abb82611a92565b9050919050565b611acb81611ab1565b8114611ad5575f80fd5b50565b5f81359050611ae681611ac2565b92915050565b5f60208284031215611b0157611b00611a08565b5b5f611b0e84828501611ad8565b91505092915050565b611b2081611ab1565b82525050565b5f602082019050611b395f830184611b17565b92915050565b5f8115159050919050565b611b5381611b3f565b82525050565b5f602082019050611b6c5f830184611b4a565b92915050565b5f604082019050611b855f830185611a6a565b611b926020830184611a6a565b9392505050565b7f4e487b71000000000000000000000000000000000000000000000000000000005f52602160045260245ffd5b60028110611bd757611bd6611b99565b5b50565b5f819050611be782611bc6565b919050565b5f611bf682611bda565b9050919050565b611c0681611bec565b82525050565b5f602082019050611c1f5f830184611bfd565b92915050565b611c2e81611a0c565b82525050565b604082015f820151611c485f850182611c25565b506020820151611c5b6020850182611c25565b50505050565b5f604082019050611c745f830184611c34565b92915050565b611c8381611b3f565b8114611c8d575f80fd5b50565b5f81359050611c9e81611c7a565b92915050565b5f60208284031215611cb957611cb8611a08565b5b5f611cc684828501611c90565b91505092915050565b5f604082019050611ce25f830185611b17565b611cef6020830184611b17565b9392505050565b5f82825260208201905092915050565b7f454e442045504f43483a2063616e206f6e6c7920656e6420612072756e6e696e5f8201527f672065706f636800000000000000000000000000000000000000000000000000602082015250565b5f611d60602783611cf6565b9150611d6b82611d06565b604082019050919050565b5f6020820190508181035f830152611d8d81611d54565b9050919050565b7f454e442045504f43483a2072657761726473206d75737420626520616c6c6f635f8201527f61746564206265666f726520656e64696e67207468652065706f636800000000602082015250565b5f611dee603c83611cf6565b9150611df982611d94565b604082019050919050565b5f6020820190508181035f830152611e1b81611de2565b9050919050565b7f4e487b71000000000000000000000000000000000000000000000000000000005f52603260045260245ffd5b7f4e487b71000000000000000000000000000000000000000000000000000000005f52601160045260245ffd5b5f611e8682611a0c565b91507fffffffffffffffffffffffffffffffffffffffffffffffffffffffffffffffff8203611eb857611eb7611e4f565b5b600182019050919050565b7f455849543a206f6e6c7920616c6c6f77656420647572696e67206f70656e20705f8201527f6861736500000000000000000000000000000000000000000000000000000000602082015250565b5f611f1d602483611cf6565b9150611f2882611ec3565b604082019050919050565b5f6020820190508181035f830152611f4a81611f11565b9050919050565b5f611f5b82611a0c565b9150611f6683611a0c565b9250828203905081811115611f7e57611f7d611e4f565b5b92915050565b5f81905092915050565b50565b5f611f9c5f83611f84565b9150611fa782611f8e565b5f82019050919050565b5f611fbb82611f91565b9150819050919050565b7f52554e2045504f43483a2063616e206f6e6c792073746172742072756e6e696e5f8201527f672066726f6d206f70656e207068617365000000000000000000000000000000602082015250565b5f61201f603183611cf6565b915061202a82611fc5565b604082019050919050565b5f6020820190508181035f83015261204c81612013565b9050919050565b7f414c4c4f4341544520524557415244533a206d75737420626520696e2072756e5f8201527f6e696e6720706861736500000000000000000000000000000000000000000000602082015250565b5f6120ad602a83611cf6565b91506120b882612053565b604082019050919050565b5f6020820190508181035f8301526120da816120a1565b9050919050565b7f436f6e747261637420616c726561647920696e207265717565737465642073745f8201527f6174650000000000000000000000000000000000000000000000000000000000602082015250565b5f61213b602383611cf6565b9150612146826120e1565b604082019050919050565b5f6020820190508181035f8301526121688161212f565b9050919050565b7f454e5445523a206f6e6c7920616c6c6f77656420647572696e67206f70656e205f8201527f7068617365000000000000000000000000000000000000000000000000000000602082015250565b5f6121c9602583611cf6565b91506121d48261216f565b604082019050919050565b5f6020820190508181035f8301526121f6816121bd565b9050919050565b5f61220782611a0c565b915061221283611a0c565b925082820190508082111561222a57612229611e4f565b5b9291505056fea26469706673582212206884236a3824305813aea3ee672159098f32a517a1b13c70b13348f13f7e57de64736f6c634300081a0033",
					"opcodes": "PUSH1 0x80 PUSH1 0x40 MSTORE CALLVALUE DUP1 ISZERO PUSH2 0xF JUMPI PUSH0 DUP1 REVERT JUMPDEST POP PUSH1 0x40 MLOAD PUSH2 0x265E CODESIZE SUB DUP1 PUSH2 0x265E DUP4 CODECOPY DUP2 DUP2 ADD PUSH1 0x40 MSTORE DUP2 ADD SWAP1 PUSH2 0x31 SWAP2 SWAP1 PUSH2 0x33A JUMP JUMPDEST CALLER PUSH0 PUSH20 0xFFFFFFFFFFFFFFFFFFFFFFFFFFFFFFFFFFFFFFFF AND DUP2 PUSH20 0xFFFFFFFFFFFFFFFFFFFFFFFFFFFFFFFFFFFFFFFF AND SUB PUSH2 0xA2 JUMPI PUSH0 PUSH1 0x40 MLOAD PUSH32 0x1E4FBDF700000000000000000000000000000000000000000000000000000000 DUP2 MSTORE PUSH1 0x4 ADD PUSH2 0x99 SWAP2 SWAP1 PUSH2 0x374 JUMP JUMPDEST PUSH1 0x40 MLOAD DUP1 SWAP2 SUB SWAP1 REVERT JUMPDEST PUSH2 0xB1 DUP2 PUSH2 0x21B PUSH1 0x20 SHL PUSH1 0x20 SHR JUMP JUMPDEST POP PUSH1 0x1 DUP1 DUP2 SWAP1 SSTORE POP PUSH1 0x3 PUSH1 0x40 MLOAD DUP1 PUSH1 0x40 ADD PUSH1 0x40 MSTORE DUP1 PUSH0 DUP2 MSTORE PUSH1 0x20 ADD PUSH0 DUP2 MSTORE POP SWAP1 DUP1 PUSH1 0x1 DUP2 SLOAD ADD DUP1 DUP3 SSTORE DUP1 SWAP2 POP POP PUSH1 0x1 SWAP1 SUB SWAP1 PUSH0 MSTORE PUSH1 0x20 PUSH0 KECCAK256 SWAP1 PUSH1 0x2 MUL ADD PUSH0 SWAP1 SWAP2 SWAP1 SWAP2 SWAP1 SWAP2 POP PUSH0 DUP3 ADD MLOAD DUP2 PUSH0 ADD SSTORE PUSH1 0x20 DUP3 ADD MLOAD DUP2 PUSH1 0x1 ADD SSTORE POP POP PUSH1 0x3 PUSH1 0x40 MLOAD DUP1 PUSH1 0x40 ADD PUSH1 0x40 MSTORE DUP1 PUSH0 DUP2 MSTORE PUSH1 0x20 ADD PUSH0 DUP2 MSTORE POP SWAP1 DUP1 PUSH1 0x1 DUP2 SLOAD ADD DUP1 DUP3 SSTORE DUP1 SWAP2 POP POP PUSH1 0x1 SWAP1 SUB SWAP1 PUSH0 MSTORE PUSH1 0x20 PUSH0 KECCAK256 SWAP1 PUSH1 0x2 MUL ADD PUSH0 SWAP1 SWAP2 SWAP1 SWAP2 SWAP1 SWAP2 POP PUSH0 DUP3 ADD MLOAD DUP2 PUSH0 ADD SSTORE PUSH1 0x20 DUP3 ADD MLOAD DUP2 PUSH1 0x1 ADD SSTORE POP POP DUP1 PUSH1 0x2 PUSH1 0x1 PUSH2 0x100 EXP DUP2 SLOAD DUP2 PUSH20 0xFFFFFFFFFFFFFFFFFFFFFFFFFFFFFFFFFFFFFFFF MUL NOT AND SWAP1 DUP4 PUSH20 0xFFFFFFFFFFFFFFFFFFFFFFFFFFFFFFFFFFFFFFFF AND MUL OR SWAP1 SSTORE POP PUSH0 PUSH1 0x2 PUSH0 PUSH2 0x100 EXP DUP2 SLOAD DUP2 PUSH1 0xFF MUL NOT AND SWAP1 DUP4 PUSH1 0x1 DUP2 GT ISZERO PUSH2 0x1C0 JUMPI PUSH2 0x1BF PUSH2 0x38D JUMP JUMPDEST JUMPDEST MUL OR SWAP1 SSTORE POP PUSH1 0x1 PUSH1 0x4 DUP2 SWAP1 SSTORE POP PUSH7 0xB1A2BC2EC50000 PUSH1 0x6 DUP2 SWAP1 SSTORE POP PUSH1 0x4 SLOAD PUSH32 0x3011A2CB7316F75847DAFE7F596D9728F2BCB38E662B785F36BC7EA76E4E7142 TIMESTAMP PUSH1 0x40 MLOAD PUSH2 0x20D SWAP2 SWAP1 PUSH2 0x3D2 JUMP JUMPDEST PUSH1 0x40 MLOAD DUP1 SWAP2 SUB SWAP1 LOG2 POP PUSH2 0x3EB JUMP JUMPDEST PUSH0 DUP1 PUSH0 SWAP1 SLOAD SWAP1 PUSH2 0x100 EXP SWAP1 DIV PUSH20 0xFFFFFFFFFFFFFFFFFFFFFFFFFFFFFFFFFFFFFFFF AND SWAP1 POP DUP2 PUSH0 DUP1 PUSH2 0x100 EXP DUP2 SLOAD DUP2 PUSH20 0xFFFFFFFFFFFFFFFFFFFFFFFFFFFFFFFFFFFFFFFF MUL NOT AND SWAP1 DUP4 PUSH20 0xFFFFFFFFFFFFFFFFFFFFFFFFFFFFFFFFFFFFFFFF AND MUL OR SWAP1 SSTORE POP DUP2 PUSH20 0xFFFFFFFFFFFFFFFFFFFFFFFFFFFFFFFFFFFFFFFF AND DUP2 PUSH20 0xFFFFFFFFFFFFFFFFFFFFFFFFFFFFFFFFFFFFFFFF AND PUSH32 0x8BE0079C531659141344CD1FD0A4F28419497F9722A3DAAFE3B4186F6B6457E0 PUSH1 0x40 MLOAD PUSH1 0x40 MLOAD DUP1 SWAP2 SUB SWAP1 LOG3 POP POP JUMP JUMPDEST PUSH0 DUP1 REVERT JUMPDEST PUSH0 PUSH20 0xFFFFFFFFFFFFFFFFFFFFFFFFFFFFFFFFFFFFFFFF DUP3 AND SWAP1 POP SWAP2 SWAP1 POP JUMP JUMPDEST PUSH0 PUSH2 0x309 DUP3 PUSH2 0x2E0 JUMP JUMPDEST SWAP1 POP SWAP2 SWAP1 POP JUMP JUMPDEST PUSH2 0x319 DUP2 PUSH2 0x2FF JUMP JUMPDEST DUP2 EQ PUSH2 0x323 JUMPI PUSH0 DUP1 REVERT JUMPDEST POP JUMP JUMPDEST PUSH0 DUP2 MLOAD SWAP1 POP PUSH2 0x334 DUP2 PUSH2 0x310 JUMP JUMPDEST SWAP3 SWAP2 POP POP JUMP JUMPDEST PUSH0 PUSH1 0x20 DUP3 DUP5 SUB SLT ISZERO PUSH2 0x34F JUMPI PUSH2 0x34E PUSH2 0x2DC JUMP JUMPDEST JUMPDEST PUSH0 PUSH2 0x35C DUP5 DUP3 DUP6 ADD PUSH2 0x326 JUMP JUMPDEST SWAP2 POP POP SWAP3 SWAP2 POP POP JUMP JUMPDEST PUSH2 0x36E DUP2 PUSH2 0x2FF JUMP JUMPDEST DUP3 MSTORE POP POP JUMP JUMPDEST PUSH0 PUSH1 0x20 DUP3 ADD SWAP1 POP PUSH2 0x387 PUSH0 DUP4 ADD DUP5 PUSH2 0x365 JUMP JUMPDEST SWAP3 SWAP2 POP POP JUMP JUMPDEST PUSH32 0x4E487B7100000000000000000000000000000000000000000000000000000000 PUSH0 MSTORE PUSH1 0x21 PUSH1 0x4 MSTORE PUSH1 0x24 PUSH0 REVERT JUMPDEST PUSH0 DUP2 SWAP1 POP SWAP2 SWAP1 POP JUMP JUMPDEST PUSH2 0x3CC DUP2 PUSH2 0x3BA JUMP JUMPDEST DUP3 MSTORE POP POP JUMP JUMPDEST PUSH0 PUSH1 0x20 DUP3 ADD SWAP1 POP PUSH2 0x3E5 PUSH0 DUP4 ADD DUP5 PUSH2 0x3C3 JUMP JUMPDEST SWAP3 SWAP2 POP POP JUMP JUMPDEST PUSH2 0x2266 DUP1 PUSH2 0x3F8 PUSH0 CODECOPY PUSH0 RETURN INVALID PUSH1 0x80 PUSH1 0x40 MSTORE PUSH1 0x4 CALLDATASIZE LT PUSH2 0x134 JUMPI PUSH0 CALLDATALOAD PUSH1 0xE0 SHR DUP1 PUSH4 0xA17D97F3 GT PUSH2 0xAA JUMPI DUP1 PUSH4 0xC6B61E4C GT PUSH2 0x6E JUMPI DUP1 PUSH4 0xC6B61E4C EQ PUSH2 0x37B JUMPI DUP1 PUSH4 0xCD237A41 EQ PUSH2 0x3B8 JUMPI DUP1 PUSH4 0xE6C47BC5 EQ PUSH2 0x3E0 JUMPI DUP1 PUSH4 0xE97DCB62 EQ PUSH2 0x40A JUMPI DUP1 PUSH4 0xEACDC5FF EQ PUSH2 0x414 JUMPI DUP1 PUSH4 0xF2FDE38B EQ PUSH2 0x43E JUMPI PUSH2 0x134 JUMP JUMPDEST DUP1 PUSH4 0xA17D97F3 EQ PUSH2 0x2CB JUMPI DUP1 PUSH4 0xA3BC61A5 EQ PUSH2 0x2E1 JUMPI DUP1 PUSH4 0xA72B05BC EQ PUSH2 0x2EB JUMPI DUP1 PUSH4 0xB6FF4934 EQ PUSH2 0x315 JUMPI DUP1 PUSH4 0xB97DD9E2 EQ PUSH2 0x351 JUMPI PUSH2 0x134 JUMP JUMPDEST DUP1 PUSH4 0x664A1AD6 GT PUSH2 0xFC JUMPI DUP1 PUSH4 0x664A1AD6 EQ PUSH2 0x1D2 JUMPI DUP1 PUSH4 0x6C003A9B EQ PUSH2 0x1FC JUMPI DUP1 PUSH4 0x715018A6 EQ PUSH2 0x226 JUMPI DUP1 PUSH4 0x7F8661A1 EQ PUSH2 0x23C JUMPI DUP1 PUSH4 0x8DA5CB5B EQ PUSH2 0x264 JUMPI DUP1 PUSH4 0x8DA7AD23 EQ PUSH2 0x28E JUMPI PUSH2 0x134 JUMP JUMPDEST DUP1 PUSH4 0x233E9903 EQ PUSH2 0x138 JUMPI DUP1 PUSH4 0x2387D32C EQ PUSH2 0x160 JUMPI DUP1 PUSH4 0x372500AB EQ PUSH2 0x18A JUMPI DUP1 PUSH4 0x55CE3B9A EQ PUSH2 0x1A0 JUMPI DUP1 PUSH4 0x5F75659F EQ PUSH2 0x1C8 JUMPI JUMPDEST PUSH0 DUP1 REVERT JUMPDEST CALLVALUE DUP1 ISZERO PUSH2 0x143 JUMPI PUSH0 DUP1 REVERT JUMPDEST POP PUSH2 0x15E PUSH1 0x4 DUP1 CALLDATASIZE SUB DUP2 ADD SWAP1 PUSH2 0x159 SWAP2 SWAP1 PUSH2 0x1A3F JUMP JUMPDEST PUSH2 0x466 JUMP JUMPDEST STOP JUMPDEST CALLVALUE DUP1 ISZERO PUSH2 0x16B JUMPI PUSH0 DUP1 REVERT JUMPDEST POP PUSH2 0x174 PUSH2 0x4BA JUMP JUMPDEST PUSH1 0x40 MLOAD PUSH2 0x181 SWAP2 SWAP1 PUSH2 0x1A79 JUMP JUMPDEST PUSH1 0x40 MLOAD DUP1 SWAP2 SUB SWAP1 RETURN JUMPDEST CALLVALUE DUP1 ISZERO PUSH2 0x195 JUMPI PUSH0 DUP1 REVERT JUMPDEST POP PUSH2 0x19E PUSH2 0x4C6 JUMP JUMPDEST STOP JUMPDEST CALLVALUE DUP1 ISZERO PUSH2 0x1AB JUMPI PUSH0 DUP1 REVERT JUMPDEST POP PUSH2 0x1C6 PUSH1 0x4 DUP1 CALLDATASIZE SUB DUP2 ADD SWAP1 PUSH2 0x1C1 SWAP2 SWAP1 PUSH2 0x1AEC JUMP JUMPDEST PUSH2 0x59C JUMP JUMPDEST STOP JUMPDEST PUSH2 0x1D0 PUSH2 0x66A JUMP JUMPDEST STOP JUMPDEST CALLVALUE DUP1 ISZERO PUSH2 0x1DD JUMPI PUSH0 DUP1 REVERT JUMPDEST POP PUSH2 0x1E6 PUSH2 0x8F9 JUMP JUMPDEST PUSH1 0x40 MLOAD PUSH2 0x1F3 SWAP2 SWAP1 PUSH2 0x1B26 JUMP JUMPDEST PUSH1 0x40 MLOAD DUP1 SWAP2 SUB SWAP1 RETURN JUMPDEST CALLVALUE DUP1 ISZERO PUSH2 0x207 JUMPI PUSH0 DUP1 REVERT JUMPDEST POP PUSH2 0x210 PUSH2 0x91F JUMP JUMPDEST PUSH1 0x40 MLOAD PUSH2 0x21D SWAP2 SWAP1 PUSH2 0x1B59 JUMP JUMPDEST PUSH1 0x40 MLOAD DUP1 SWAP2 SUB SWAP1 RETURN JUMPDEST CALLVALUE DUP1 ISZERO PUSH2 0x231 JUMPI PUSH0 DUP1 REVERT JUMPDEST POP PUSH2 0x23A PUSH2 0x932 JUMP JUMPDEST STOP JUMPDEST CALLVALUE DUP1 ISZERO PUSH2 0x247 JUMPI PUSH0 DUP1 REVERT JUMPDEST POP PUSH2 0x262 PUSH1 0x4 DUP1 CALLDATASIZE SUB DUP2 ADD SWAP1 PUSH2 0x25D SWAP2 SWAP1 PUSH2 0x1A3F JUMP JUMPDEST PUSH2 0x945 JUMP JUMPDEST STOP JUMPDEST CALLVALUE DUP1 ISZERO PUSH2 0x26F JUMPI PUSH0 DUP1 REVERT JUMPDEST POP PUSH2 0x278 PUSH2 0xC36 JUMP JUMPDEST PUSH1 0x40 MLOAD PUSH2 0x285 SWAP2 SWAP1 PUSH2 0x1B26 JUMP JUMPDEST PUSH1 0x40 MLOAD DUP1 SWAP2 SUB SWAP1 RETURN JUMPDEST CALLVALUE DUP1 ISZERO PUSH2 0x299 JUMPI PUSH0 DUP1 REVERT JUMPDEST POP PUSH2 0x2B4 PUSH1 0x4 DUP1 CALLDATASIZE SUB DUP2 ADD SWAP1 PUSH2 0x2AF SWAP2 SWAP1 PUSH2 0x1AEC JUMP JUMPDEST PUSH2 0xC5D JUMP JUMPDEST PUSH1 0x40 MLOAD PUSH2 0x2C2 SWAP3 SWAP2 SWAP1 PUSH2 0x1B72 JUMP JUMPDEST PUSH1 0x40 MLOAD DUP1 SWAP2 SUB SWAP1 RETURN JUMPDEST CALLVALUE DUP1 ISZERO PUSH2 0x2D6 JUMPI PUSH0 DUP1 REVERT JUMPDEST POP PUSH2 0x2DF PUSH2 0xC7D JUMP JUMPDEST STOP JUMPDEST PUSH2 0x2E9 PUSH2 0xED7 JUMP JUMPDEST STOP JUMPDEST CALLVALUE DUP1 ISZERO PUSH2 0x2F6 JUMPI PUSH0 DUP1 REVERT JUMPDEST POP PUSH2 0x2FF PUSH2 0x1087 JUMP JUMPDEST PUSH1 0x40 MLOAD PUSH2 0x30C SWAP2 SWAP1 PUSH2 0x1C0C JUMP JUMPDEST PUSH1 0x40 MLOAD DUP1 SWAP2 SUB SWAP1 RETURN JUMPDEST CALLVALUE DUP1 ISZERO PUSH2 0x320 JUMPI PUSH0 DUP1 REVERT JUMPDEST POP PUSH2 0x33B PUSH1 0x4 DUP1 CALLDATASIZE SUB DUP2 ADD SWAP1 PUSH2 0x336 SWAP2 SWAP1 PUSH2 0x1AEC JUMP JUMPDEST PUSH2 0x1099 JUMP JUMPDEST PUSH1 0x40 MLOAD PUSH2 0x348 SWAP2 SWAP1 PUSH2 0x1B59 JUMP JUMPDEST PUSH1 0x40 MLOAD DUP1 SWAP2 SUB SWAP1 RETURN JUMPDEST CALLVALUE DUP1 ISZERO PUSH2 0x35C JUMPI PUSH0 DUP1 REVERT JUMPDEST POP PUSH2 0x365 PUSH2 0x120A JUMP JUMPDEST PUSH1 0x40 MLOAD PUSH2 0x372 SWAP2 SWAP1 PUSH2 0x1C61 JUMP JUMPDEST PUSH1 0x40 MLOAD DUP1 SWAP2 SUB SWAP1 RETURN JUMPDEST CALLVALUE DUP1 ISZERO PUSH2 0x386 JUMPI PUSH0 DUP1 REVERT JUMPDEST POP PUSH2 0x3A1 PUSH1 0x4 DUP1 CALLDATASIZE SUB DUP2 ADD SWAP1 PUSH2 0x39C SWAP2 SWAP1 PUSH2 0x1A3F JUMP JUMPDEST PUSH2 0x1257 JUMP JUMPDEST PUSH1 0x40 MLOAD PUSH2 0x3AF SWAP3 SWAP2 SWAP1 PUSH2 0x1B72 JUMP JUMPDEST PUSH1 0x40 MLOAD DUP1 SWAP2 SUB SWAP1 RETURN JUMPDEST CALLVALUE DUP1 ISZERO PUSH2 0x3C3 JUMPI PUSH0 DUP1 REVERT JUMPDEST POP PUSH2 0x3DE PUSH1 0x4 DUP1 CALLDATASIZE SUB DUP2 ADD SWAP1 PUSH2 0x3D9 SWAP2 SWAP1 PUSH2 0x1CA4 JUMP JUMPDEST PUSH2 0x1286 JUMP JUMPDEST STOP JUMPDEST CALLVALUE DUP1 ISZERO PUSH2 0x3EB JUMPI PUSH0 DUP1 REVERT JUMPDEST POP PUSH2 0x3F4 PUSH2 0x1343 JUMP JUMPDEST PUSH1 0x40 MLOAD PUSH2 0x401 SWAP2 SWAP1 PUSH2 0x1A79 JUMP JUMPDEST PUSH1 0x40 MLOAD DUP1 SWAP2 SUB SWAP1 RETURN JUMPDEST PUSH2 0x412 PUSH2 0x1349 JUMP JUMPDEST STOP JUMPDEST CALLVALUE DUP1 ISZERO PUSH2 0x41F JUMPI PUSH0 DUP1 REVERT JUMPDEST POP PUSH2 0x428 PUSH2 0x157A JUMP JUMPDEST PUSH1 0x40 MLOAD PUSH2 0x435 SWAP2 SWAP1 PUSH2 0x1A79 JUMP JUMPDEST PUSH1 0x40 MLOAD DUP1 SWAP2 SUB SWAP1 RETURN JUMPDEST CALLVALUE DUP1 ISZERO PUSH2 0x449 JUMPI PUSH0 DUP1 REVERT JUMPDEST POP PUSH2 0x464 PUSH1 0x4 DUP1 CALLDATASIZE SUB DUP2 ADD SWAP1 PUSH2 0x45F SWAP2 SWAP1 PUSH2 0x1AEC JUMP JUMPDEST PUSH2 0x1580 JUMP JUMPDEST STOP JUMPDEST PUSH2 0x46E PUSH2 0x1604 JUMP JUMPDEST PUSH0 PUSH1 0x6 SLOAD SWAP1 POP DUP2 PUSH1 0x6 DUP2 SWAP1 SSTORE POP PUSH32 0xDC4A0B2DC1FA27DA98DE2AC6F8FA373B4BE405E1BF69FC3976597B6D56B79ABC DUP2 PUSH1 0x6 SLOAD PUSH1 0x40 MLOAD PUSH2 0x4AE SWAP3 SWAP2 SWAP1 PUSH2 0x1B72 JUMP JUMPDEST PUSH1 0x40 MLOAD DUP1 SWAP2 SUB SWAP1 LOG1 POP POP JUMP JUMPDEST PUSH0 PUSH1 0x3 DUP1 SLOAD SWAP1 POP SWAP1 POP SWAP1 JUMP JUMPDEST PUSH1 0x7 PUSH0 SWAP1 SLOAD SWAP1 PUSH2 0x100 EXP SWAP1 DIV PUSH1 0xFF AND ISZERO PUSH2 0x50C JUMPI PUSH1 0x40 MLOAD PUSH32 0x6F5FFB7E00000000000000000000000000000000000000000000000000000000 DUP2 MSTORE PUSH1 0x4 ADD PUSH1 0x40 MLOAD DUP1 SWAP2 SUB SWAP1 REVERT JUMPDEST PUSH1 0x2 PUSH1 0x15 SWAP1 SLOAD SWAP1 PUSH2 0x100 EXP SWAP1 DIV PUSH1 0xFF AND PUSH2 0x552 JUMPI PUSH1 0x40 MLOAD PUSH32 0x1E9EF8A00000000000000000000000000000000000000000000000000000000 DUP2 MSTORE PUSH1 0x4 ADD PUSH1 0x40 MLOAD DUP1 SWAP2 SUB SWAP1 REVERT JUMPDEST PUSH2 0x55B CALLER PUSH2 0x1099 JUMP JUMPDEST PUSH2 0x591 JUMPI PUSH1 0x40 MLOAD PUSH32 0x5AA9184D00000000000000000000000000000000000000000000000000000000 DUP2 MSTORE PUSH1 0x4 ADD PUSH1 0x40 MLOAD DUP1 SWAP2 SUB SWAP1 REVERT JUMPDEST PUSH2 0x59A CALLER PUSH2 0x168B JUMP JUMPDEST JUMP JUMPDEST PUSH2 0x5A4 PUSH2 0x1604 JUMP JUMPDEST PUSH0 PUSH1 0x2 PUSH1 0x1 SWAP1 SLOAD SWAP1 PUSH2 0x100 EXP SWAP1 DIV PUSH20 0xFFFFFFFFFFFFFFFFFFFFFFFFFFFFFFFFFFFFFFFF AND SWAP1 POP DUP2 PUSH1 0x2 PUSH1 0x1 PUSH2 0x100 EXP DUP2 SLOAD DUP2 PUSH20 0xFFFFFFFFFFFFFFFFFFFFFFFFFFFFFFFFFFFFFFFF MUL NOT AND SWAP1 DUP4 PUSH20 0xFFFFFFFFFFFFFFFFFFFFFFFFFFFFFFFFFFFFFFFF AND MUL OR SWAP1 SSTORE POP PUSH32 0x9C41A9A969E821894638B441DCDF78C0573277C91B8AC63440D790F5634A2B0B DUP2 PUSH1 0x2 PUSH1 0x1 SWAP1 SLOAD SWAP1 PUSH2 0x100 EXP SWAP1 DIV PUSH20 0xFFFFFFFFFFFFFFFFFFFFFFFFFFFFFFFFFFFFFFFF AND PUSH1 0x40 MLOAD PUSH2 0x65E SWAP3 SWAP2 SWAP1 PUSH2 0x1CCF JUMP JUMPDEST PUSH1 0x40 MLOAD DUP1 SWAP2 SUB SWAP1 LOG1 POP POP JUMP JUMPDEST PUSH2 0x672 PUSH2 0x1604 JUMP JUMPDEST PUSH1 0x1 DUP1 DUP2 GT ISZERO PUSH2 0x685 JUMPI PUSH2 0x684 PUSH2 0x1B99 JUMP JUMPDEST JUMPDEST PUSH1 0x2 PUSH0 SWAP1 SLOAD SWAP1 PUSH2 0x100 EXP SWAP1 DIV PUSH1 0xFF AND PUSH1 0x1 DUP2 GT ISZERO PUSH2 0x6A6 JUMPI PUSH2 0x6A5 PUSH2 0x1B99 JUMP JUMPDEST JUMPDEST EQ PUSH2 0x6E6 JUMPI PUSH1 0x40 MLOAD PUSH32 0xFCBFB2B100000000000000000000000000000000000000000000000000000000 DUP2 MSTORE PUSH1 0x4 ADD PUSH2 0x6DD SWAP1 PUSH2 0x1D76 JUMP JUMPDEST PUSH1 0x40 MLOAD DUP1 SWAP2 SUB SWAP1 REVERT JUMPDEST PUSH1 0x2 PUSH1 0x15 SWAP1 SLOAD SWAP1 PUSH2 0x100 EXP SWAP1 DIV PUSH1 0xFF AND PUSH2 0x735 JUMPI PUSH1 0x40 MLOAD PUSH32 0xFCBFB2B100000000000000000000000000000000000000000000000000000000 DUP2 MSTORE PUSH1 0x4 ADD PUSH2 0x72C SWAP1 PUSH2 0x1E04 JUMP JUMPDEST PUSH1 0x40 MLOAD DUP1 SWAP2 SUB SWAP1 REVERT JUMPDEST PUSH1 0x3 PUSH1 0x4 SLOAD DUP2 SLOAD DUP2 LT PUSH2 0x74B JUMPI PUSH2 0x74A PUSH2 0x1E22 JUMP JUMPDEST JUMPDEST SWAP1 PUSH0 MSTORE PUSH1 0x20 PUSH0 KECCAK256 SWAP1 PUSH1 0x2 MUL ADD PUSH0 ADD SLOAD CALLVALUE LT ISZERO PUSH2 0x7C4 JUMPI CALLVALUE PUSH1 0x3 PUSH1 0x4 SLOAD DUP2 SLOAD DUP2 LT PUSH2 0x778 JUMPI PUSH2 0x777 PUSH2 0x1E22 JUMP JUMPDEST JUMPDEST SWAP1 PUSH0 MSTORE PUSH1 0x20 PUSH0 KECCAK256 SWAP1 PUSH1 0x2 MUL ADD PUSH0 ADD SLOAD PUSH1 0x40 MLOAD PUSH32 0x41709D0800000000000000000000000000000000000000000000000000000000 DUP2 MSTORE PUSH1 0x4 ADD PUSH2 0x7BB SWAP3 SWAP2 SWAP1 PUSH2 0x1B72 JUMP JUMPDEST PUSH1 0x40 MLOAD DUP1 SWAP2 SUB SWAP1 REVERT JUMPDEST PUSH0 PUSH1 0x3 PUSH1 0x4 SLOAD DUP2 SLOAD DUP2 LT PUSH2 0x7DB JUMPI PUSH2 0x7DA PUSH2 0x1E22 JUMP JUMPDEST JUMPDEST SWAP1 PUSH0 MSTORE PUSH1 0x20 PUSH0 KECCAK256 SWAP1 PUSH1 0x2 MUL ADD SWAP1 POP PUSH0 DUP2 PUSH0 ADD SLOAD SWAP1 POP PUSH1 0x4 SLOAD PUSH32 0x64570ABBB448406F773AC3A0C62178ED95F93E5465F64860899859BBE490FB42 TIMESTAMP PUSH1 0x40 MLOAD PUSH2 0x822 SWAP2 SWAP1 PUSH2 0x1A79 JUMP JUMPDEST PUSH1 0x40 MLOAD DUP1 SWAP2 SUB SWAP1 LOG2 PUSH1 0x4 PUSH0 DUP2 SLOAD DUP1 SWAP3 SWAP2 SWAP1 PUSH2 0x83C SWAP1 PUSH2 0x1E7C JUMP JUMPDEST SWAP2 SWAP1 POP SSTORE POP PUSH1 0x3 PUSH1 0x40 MLOAD DUP1 PUSH1 0x40 ADD PUSH1 0x40 MSTORE DUP1 DUP4 DUP2 MSTORE PUSH1 0x20 ADD PUSH0 DUP2 MSTORE POP SWAP1 DUP1 PUSH1 0x1 DUP2 SLOAD ADD DUP1 DUP3 SSTORE DUP1 SWAP2 POP POP PUSH1 0x1 SWAP1 SUB SWAP1 PUSH0 MSTORE PUSH1 0x20 PUSH0 KECCAK256 SWAP1 PUSH1 0x2 MUL ADD PUSH0 SWAP1 SWAP2 SWAP1 SWAP2 SWAP1 SWAP2 POP PUSH0 DUP3 ADD MLOAD DUP2 PUSH0 ADD SSTORE PUSH1 0x20 DUP3 ADD MLOAD DUP2 PUSH1 0x1 ADD SSTORE POP POP PUSH0 PUSH1 0x2 PUSH0 PUSH2 0x100 EXP DUP2 SLOAD DUP2 PUSH1 0xFF MUL NOT AND SWAP1 DUP4 PUSH1 0x1 DUP2 GT ISZERO PUSH2 0x8B6 JUMPI PUSH2 0x8B5 PUSH2 0x1B99 JUMP JUMPDEST JUMPDEST MUL OR SWAP1 SSTORE POP PUSH1 0x4 SLOAD PUSH32 0x3011A2CB7316F75847DAFE7F596D9728F2BCB38E662B785F36BC7EA76E4E7142 TIMESTAMP PUSH1 0x40 MLOAD PUSH2 0x8ED SWAP2 SWAP1 PUSH2 0x1A79 JUMP JUMPDEST PUSH1 0x40 MLOAD DUP1 SWAP2 SUB SWAP1 LOG2 POP POP JUMP JUMPDEST PUSH1 0x2 PUSH1 0x1 SWAP1 SLOAD SWAP1 PUSH2 0x100 EXP SWAP1 DIV PUSH20 0xFFFFFFFFFFFFFFFFFFFFFFFFFFFFFFFFFFFFFFFF AND DUP2 JUMP JUMPDEST PUSH1 0x2 PUSH1 0x15 SWAP1 SLOAD SWAP1 PUSH2 0x100 EXP SWAP1 DIV PUSH1 0xFF AND DUP2 JUMP JUMPDEST PUSH2 0x93A PUSH2 0x1604 JUMP JUMPDEST PUSH2 0x943 PUSH0 PUSH2 0x18AC JUMP JUMPDEST JUMP JUMPDEST PUSH2 0x94D PUSH2 0x196D JUMP JUMPDEST PUSH1 0x7 PUSH0 SWAP1 SLOAD SWAP1 PUSH2 0x100 EXP SWAP1 DIV PUSH1 0xFF AND ISZERO PUSH2 0x993 JUMPI PUSH1 0x40 MLOAD PUSH32 0x6F5FFB7E00000000000000000000000000000000000000000000000000000000 DUP2 MSTORE PUSH1 0x4 ADD PUSH1 0x40 MLOAD DUP1 SWAP2 SUB SWAP1 REVERT JUMPDEST PUSH0 PUSH1 0x1 DUP2 GT ISZERO PUSH2 0x9A6 JUMPI PUSH2 0x9A5 PUSH2 0x1B99 JUMP JUMPDEST JUMPDEST PUSH1 0x2 PUSH0 SWAP1 SLOAD SWAP1 PUSH2 0x100 EXP SWAP1 DIV PUSH1 0xFF AND PUSH1 0x1 DUP2 GT ISZERO PUSH2 0x9C7 JUMPI PUSH2 0x9C6 PUSH2 0x1B99 JUMP JUMPDEST JUMPDEST EQ PUSH2 0xA07 JUMPI PUSH1 0x40 MLOAD PUSH32 0xFCBFB2B100000000000000000000000000000000000000000000000000000000 DUP2 MSTORE PUSH1 0x4 ADD PUSH2 0x9FE SWAP1 PUSH2 0x1F33 JUMP JUMPDEST PUSH1 0x40 MLOAD DUP1 SWAP2 SUB SWAP1 REVERT JUMPDEST PUSH0 PUSH1 0x5 PUSH0 CALLER PUSH20 0xFFFFFFFFFFFFFFFFFFFFFFFFFFFFFFFFFFFFFFFF AND PUSH20 0xFFFFFFFFFFFFFFFFFFFFFFFFFFFFFFFFFFFFFFFF AND DUP2 MSTORE PUSH1 0x20 ADD SWAP1 DUP2 MSTORE PUSH1 0x20 ADD PUSH0 KECCAK256 SWAP1 POP DUP2 DUP2 PUSH0 ADD SLOAD LT ISZERO PUSH2 0xA94 JUMPI DUP2 DUP2 PUSH0 ADD SLOAD PUSH1 0x40 MLOAD PUSH32 0xCF47918100000000000000000000000000000000000000000000000000000000 DUP2 MSTORE PUSH1 0x4 ADD PUSH2 0xA8B SWAP3 SWAP2 SWAP1 PUSH2 0x1B72 JUMP JUMPDEST PUSH1 0x40 MLOAD DUP1 SWAP2 SUB SWAP1 REVERT JUMPDEST PUSH0 DUP3 SUB PUSH2 0xACD JUMPI PUSH1 0x40 MLOAD PUSH32 0x5E85AE7300000000000000000000000000000000000000000000000000000000 DUP2 MSTORE PUSH1 0x4 ADD PUSH1 0x40 MLOAD DUP1 SWAP2 SUB SWAP1 REVERT JUMPDEST PUSH2 0xAD6 CALLER PUSH2 0x1099 JUMP JUMPDEST ISZERO PUSH2 0xAE5 JUMPI PUSH2 0xAE4 CALLER PUSH2 0x168B JUMP JUMPDEST JUMPDEST DUP2 DUP2 PUSH0 ADD PUSH0 DUP3 DUP3 SLOAD PUSH2 0xAF7 SWAP2 SWAP1 PUSH2 0x1F51 JUMP JUMPDEST SWAP3 POP POP DUP2 SWAP1 SSTORE POP DUP2 PUSH1 0x3 PUSH1 0x4 SLOAD DUP2 SLOAD DUP2 LT PUSH2 0xB15 JUMPI PUSH2 0xB14 PUSH2 0x1E22 JUMP JUMPDEST JUMPDEST SWAP1 PUSH0 MSTORE PUSH1 0x20 PUSH0 KECCAK256 SWAP1 PUSH1 0x2 MUL ADD PUSH0 ADD PUSH0 DUP3 DUP3 SLOAD PUSH2 0xB31 SWAP2 SWAP1 PUSH2 0x1F51 JUMP JUMPDEST SWAP3 POP POP DUP2 SWAP1 SSTORE POP PUSH0 CALLER PUSH20 0xFFFFFFFFFFFFFFFFFFFFFFFFFFFFFFFFFFFFFFFF AND DUP4 PUSH1 0x40 MLOAD PUSH2 0xB5D SWAP1 PUSH2 0x1FB1 JUMP JUMPDEST PUSH0 PUSH1 0x40 MLOAD DUP1 DUP4 SUB DUP2 DUP6 DUP8 GAS CALL SWAP3 POP POP POP RETURNDATASIZE DUP1 PUSH0 DUP2 EQ PUSH2 0xB97 JUMPI PUSH1 0x40 MLOAD SWAP2 POP PUSH1 0x1F NOT PUSH1 0x3F RETURNDATASIZE ADD AND DUP3 ADD PUSH1 0x40 MSTORE RETURNDATASIZE DUP3 MSTORE RETURNDATASIZE PUSH0 PUSH1 0x20 DUP5 ADD RETURNDATACOPY PUSH2 0xB9C JUMP JUMPDEST PUSH1 0x60 SWAP2 POP JUMPDEST POP POP SWAP1 POP DUP1 PUSH2 0xBD7 JUMPI PUSH1 0x40 MLOAD PUSH32 0x90B8EC1800000000000000000000000000000000000000000000000000000000 DUP2 MSTORE PUSH1 0x4 ADD PUSH1 0x40 MLOAD DUP1 SWAP2 SUB SWAP1 REVERT JUMPDEST CALLER PUSH20 0xFFFFFFFFFFFFFFFFFFFFFFFFFFFFFFFFFFFFFFFF AND PUSH32 0xD2263E970E3552B8E14C013F4D6AF030894EF3AE6F025607042368DB047A4418 DUP5 PUSH1 0x4 SLOAD PUSH1 0x40 MLOAD PUSH2 0xC21 SWAP3 SWAP2 SWAP1 PUSH2 0x1B72 JUMP JUMPDEST PUSH1 0x40 MLOAD DUP1 SWAP2 SUB SWAP1 LOG2 POP POP PUSH2 0xC33 PUSH2 0x19B3 JUMP JUMPDEST POP JUMP JUMPDEST PUSH0 DUP1 PUSH0 SWAP1 SLOAD SWAP1 PUSH2 0x100 EXP SWAP1 DIV PUSH20 0xFFFFFFFFFFFFFFFFFFFFFFFFFFFFFFFFFFFFFFFF AND SWAP1 POP SWAP1 JUMP JUMPDEST PUSH1 0x5 PUSH1 0x20 MSTORE DUP1 PUSH0 MSTORE PUSH1 0x40 PUSH0 KECCAK256 PUSH0 SWAP2 POP SWAP1 POP DUP1 PUSH0 ADD SLOAD SWAP1 DUP1 PUSH1 0x1 ADD SLOAD SWAP1 POP DUP3 JUMP JUMPDEST PUSH2 0xC85 PUSH2 0x1604 JUMP JUMPDEST PUSH0 PUSH1 0x1 DUP2 GT ISZERO PUSH2 0xC98 JUMPI PUSH2 0xC97 PUSH2 0x1B99 JUMP JUMPDEST JUMPDEST PUSH1 0x2 PUSH0 SWAP1 SLOAD SWAP1 PUSH2 0x100 EXP SWAP1 DIV PUSH1 0xFF AND PUSH1 0x1 DUP2 GT ISZERO PUSH2 0xCB9 JUMPI PUSH2 0xCB8 PUSH2 0x1B99 JUMP JUMPDEST JUMPDEST EQ PUSH2 0xCF9 JUMPI PUSH1 0x40 MLOAD PUSH32 0xFCBFB2B100000000000000000000000000000000000000000000000000000000 DUP2 MSTORE PUSH1 0x4 ADD PUSH2 0xCF0 SWAP1 PUSH2 0x2035 JUMP JUMPDEST PUSH1 0x40 MLOAD DUP1 SWAP2 SUB SWAP1 REVERT JUMPDEST PUSH1 0x1 PUSH1 0x2 PUSH0 PUSH2 0x100 EXP DUP2 SLOAD DUP2 PUSH1 0xFF MUL NOT AND SWAP1 DUP4 PUSH1 0x1 DUP2 GT ISZERO PUSH2 0xD1E JUMPI PUSH2 0xD1D PUSH2 0x1B99 JUMP JUMPDEST JUMPDEST MUL OR SWAP1 SSTORE POP PUSH0 PUSH1 0x2 PUSH1 0x15 PUSH2 0x100 EXP DUP2 SLOAD DUP2 PUSH1 0xFF MUL NOT AND SWAP1 DUP4 ISZERO ISZERO MUL OR SWAP1 SSTORE POP PUSH0 PUSH1 0x3 PUSH1 0x4 SLOAD DUP2 SLOAD DUP2 LT PUSH2 0xD54 JUMPI PUSH2 0xD53 PUSH2 0x1E22 JUMP JUMPDEST JUMPDEST SWAP1 PUSH0 MSTORE PUSH1 0x20 PUSH0 KECCAK256 SWAP1 PUSH1 0x2 MUL ADD PUSH0 ADD SLOAD SWAP1 POP PUSH0 PUSH1 0x2 PUSH1 0x1 SWAP1 SLOAD SWAP1 PUSH2 0x100 EXP SWAP1 DIV PUSH20 0xFFFFFFFFFFFFFFFFFFFFFFFFFFFFFFFFFFFFFFFF AND PUSH20 0xFFFFFFFFFFFFFFFFFFFFFFFFFFFFFFFFFFFFFFFF AND DUP3 PUSH1 0x40 MLOAD PUSH2 0xDAC SWAP1 PUSH2 0x1FB1 JUMP JUMPDEST PUSH0 PUSH1 0x40 MLOAD DUP1 DUP4 SUB DUP2 DUP6 DUP8 GAS CALL SWAP3 POP POP POP RETURNDATASIZE DUP1 PUSH0 DUP2 EQ PUSH2 0xDE6 JUMPI PUSH1 0x40 MLOAD SWAP2 POP PUSH1 0x1F NOT PUSH1 0x3F RETURNDATASIZE ADD AND DUP3 ADD PUSH1 0x40 MSTORE RETURNDATASIZE DUP3 MSTORE RETURNDATASIZE PUSH0 PUSH1 0x20 DUP5 ADD RETURNDATACOPY PUSH2 0xDEB JUMP JUMPDEST PUSH1 0x60 SWAP2 POP JUMPDEST POP POP SWAP1 POP DUP1 PUSH2 0xE26 JUMPI PUSH1 0x40 MLOAD PUSH32 0x90B8EC1800000000000000000000000000000000000000000000000000000000 DUP2 MSTORE PUSH1 0x4 ADD PUSH1 0x40 MLOAD DUP1 SWAP2 SUB SWAP1 REVERT JUMPDEST PUSH32 0xBBA732616E420F73D99F0DB8B286A4D23E682E7317282FF0723F9DC8DAF98809 PUSH0 PUSH1 0x40 MLOAD PUSH2 0xE55 SWAP2 SWAP1 PUSH2 0x1B59 JUMP JUMPDEST PUSH1 0x40 MLOAD DUP1 SWAP2 SUB SWAP1 LOG1 PUSH1 0x4 SLOAD PUSH32 0x4DED3F62AE2AB4717C7253FD9D8A4B3F253AFC40FD5280A272755CE344D1CC6 DUP4 PUSH1 0x40 MLOAD PUSH2 0xE8F SWAP2 SWAP1 PUSH2 0x1A79 JUMP JUMPDEST PUSH1 0x40 MLOAD DUP1 SWAP2 SUB SWAP1 LOG2 PUSH1 0x4 SLOAD PUSH32 0x52C5ABE9E004B5B25CA01E93C14FC741F8F6F73683E7299CBB65A18B8C6296A2 TIMESTAMP DUP5 PUSH1 0x40 MLOAD PUSH2 0xECB SWAP3 SWAP2 SWAP1 PUSH2 0x1B72 JUMP JUMPDEST PUSH1 0x40 MLOAD DUP1 SWAP2 SUB SWAP1 LOG2 POP POP JUMP JUMPDEST PUSH2 0xEDF PUSH2 0x1604 JUMP JUMPDEST PUSH1 0x1 DUP1 DUP2 GT ISZERO PUSH2 0xEF2 JUMPI PUSH2 0xEF1 PUSH2 0x1B99 JUMP JUMPDEST JUMPDEST PUSH1 0x2 PUSH0 SWAP1 SLOAD SWAP1 PUSH2 0x100 EXP SWAP1 DIV PUSH1 0xFF AND PUSH1 0x1 DUP2 GT ISZERO PUSH2 0xF13 JUMPI PUSH2 0xF12 PUSH2 0x1B99 JUMP JUMPDEST JUMPDEST EQ PUSH2 0xF53 JUMPI PUSH1 0x40 MLOAD PUSH32 0xFCBFB2B100000000000000000000000000000000000000000000000000000000 DUP2 MSTORE PUSH1 0x4 ADD PUSH2 0xF4A SWAP1 PUSH2 0x20C3 JUMP JUMPDEST PUSH1 0x40 MLOAD DUP1 SWAP2 SUB SWAP1 REVERT JUMPDEST PUSH0 CALLVALUE SUB PUSH2 0xF8C JUMPI PUSH1 0x40 MLOAD PUSH32 0x9123564A00000000000000000000000000000000000000000000000000000000 DUP2 MSTORE PUSH1 0x4 ADD PUSH1 0x40 MLOAD DUP1 SWAP2 SUB SWAP1 REVERT JUMPDEST PUSH0 PUSH1 0x3 PUSH1 0x4 SLOAD DUP2 SLOAD DUP2 LT PUSH2 0xFA3 JUMPI PUSH2 0xFA2 PUSH2 0x1E22 JUMP JUMPDEST JUMPDEST SWAP1 PUSH0 MSTORE PUSH1 0x20 PUSH0 KECCAK256 SWAP1 PUSH1 0x2 MUL ADD SWAP1 POP PUSH0 DUP2 PUSH1 0x1 ADD SLOAD EQ PUSH2 0xFEE JUMPI PUSH1 0x40 MLOAD PUSH32 0xEC94CE5000000000000000000000000000000000000000000000000000000000 DUP2 MSTORE PUSH1 0x4 ADD PUSH1 0x40 MLOAD DUP1 SWAP2 SUB SWAP1 REVERT JUMPDEST CALLVALUE DUP2 PUSH1 0x1 ADD DUP2 SWAP1 SSTORE POP PUSH1 0x1 PUSH1 0x2 PUSH1 0x15 PUSH2 0x100 EXP DUP2 SLOAD DUP2 PUSH1 0xFF MUL NOT AND SWAP1 DUP4 ISZERO ISZERO MUL OR SWAP1 SSTORE POP PUSH1 0x4 SLOAD PUSH32 0xF9ECAF62687E41C2EB3B9F3BB3E5562B198859FDA05AED70E3CC7E3A060E8C9D CALLVALUE PUSH1 0x40 MLOAD PUSH2 0x1044 SWAP2 SWAP1 PUSH2 0x1A79 JUMP JUMPDEST PUSH1 0x40 MLOAD DUP1 SWAP2 SUB SWAP1 LOG2 PUSH32 0xBBA732616E420F73D99F0DB8B286A4D23E682E7317282FF0723F9DC8DAF98809 PUSH1 0x1 PUSH1 0x40 MLOAD PUSH2 0x107C SWAP2 SWAP1 PUSH2 0x1B59 JUMP JUMPDEST PUSH1 0x40 MLOAD DUP1 SWAP2 SUB SWAP1 LOG1 POP JUMP JUMPDEST PUSH1 0x2 PUSH0 SWAP1 SLOAD SWAP1 PUSH2 0x100 EXP SWAP1 DIV PUSH1 0xFF AND DUP2 JUMP JUMPDEST PUSH0 DUP1 PUSH1 0x5 PUSH0 DUP5 PUSH20 0xFFFFFFFFFFFFFFFFFFFFFFFFFFFFFFFFFFFFFFFF AND PUSH20 0xFFFFFFFFFFFFFFFFFFFFFFFFFFFFFFFFFFFFFFFF AND DUP2 MSTORE PUSH1 0x20 ADD SWAP1 DUP2 MSTORE PUSH1 0x20 ADD PUSH0 KECCAK256 PUSH0 ADD SLOAD SUB PUSH2 0x10E8 JUMPI PUSH0 SWAP1 POP PUSH2 0x1205 JUMP JUMPDEST PUSH1 0x1 PUSH1 0x4 SLOAD EQ DUP1 ISZERO PUSH2 0x1107 JUMPI POP PUSH1 0x2 PUSH1 0x15 SWAP1 SLOAD SWAP1 PUSH2 0x100 EXP SWAP1 DIV PUSH1 0xFF AND ISZERO JUMPDEST ISZERO PUSH2 0x1114 JUMPI PUSH0 SWAP1 POP PUSH2 0x1205 JUMP JUMPDEST PUSH0 PUSH1 0x1 DUP2 GT ISZERO PUSH2 0x1127 JUMPI PUSH2 0x1126 PUSH2 0x1B99 JUMP JUMPDEST JUMPDEST PUSH1 0x2 PUSH0 SWAP1 SLOAD SWAP1 PUSH2 0x100 EXP SWAP1 DIV PUSH1 0xFF AND PUSH1 0x1 DUP2 GT ISZERO PUSH2 0x1148 JUMPI PUSH2 0x1147 PUSH2 0x1B99 JUMP JUMPDEST JUMPDEST EQ DUP1 ISZERO PUSH2 0x11A2 JUMPI POP PUSH1 0x1 PUSH1 0x4 SLOAD PUSH2 0x115F SWAP2 SWAP1 PUSH2 0x1F51 JUMP JUMPDEST PUSH1 0x5 PUSH0 DUP5 PUSH20 0xFFFFFFFFFFFFFFFFFFFFFFFFFFFFFFFFFFFFFFFF AND PUSH20 0xFFFFFFFFFFFFFFFFFFFFFFFFFFFFFFFFFFFFFFFF AND DUP2 MSTORE PUSH1 0x20 ADD SWAP1 DUP2 MSTORE PUSH1 0x20 ADD PUSH0 KECCAK256 PUSH1 0x1 ADD SLOAD EQ JUMPDEST ISZERO PUSH2 0x11AF JUMPI PUSH0 SWAP1 POP PUSH2 0x1205 JUMP JUMPDEST PUSH1 0x4 SLOAD PUSH1 0x5 PUSH0 DUP5 PUSH20 0xFFFFFFFFFFFFFFFFFFFFFFFFFFFFFFFFFFFFFFFF AND PUSH20 0xFFFFFFFFFFFFFFFFFFFFFFFFFFFFFFFFFFFFFFFF AND DUP2 MSTORE PUSH1 0x20 ADD SWAP1 DUP2 MSTORE PUSH1 0x20 ADD PUSH0 KECCAK256 PUSH1 0x1 ADD SLOAD SUB PUSH2 0x1200 JUMPI PUSH0 SWAP1 POP PUSH2 0x1205 JUMP JUMPDEST PUSH1 0x1 SWAP1 POP JUMPDEST SWAP2 SWAP1 POP JUMP JUMPDEST PUSH2 0x1212 PUSH2 0x19F0 JUMP JUMPDEST PUSH1 0x3 PUSH1 0x4 SLOAD DUP2 SLOAD DUP2 LT PUSH2 0x1228 JUMPI PUSH2 0x1227 PUSH2 0x1E22 JUMP JUMPDEST JUMPDEST SWAP1 PUSH0 MSTORE PUSH1 0x20 PUSH0 KECCAK256 SWAP1 PUSH1 0x2 MUL ADD PUSH1 0x40 MLOAD DUP1 PUSH1 0x40 ADD PUSH1 0x40 MSTORE SWAP1 DUP2 PUSH0 DUP3 ADD SLOAD DUP2 MSTORE PUSH1 0x20 ADD PUSH1 0x1 DUP3 ADD SLOAD DUP2 MSTORE POP POP SWAP1 POP SWAP1 JUMP JUMPDEST PUSH1 0x3 DUP2 DUP2 SLOAD DUP2 LT PUSH2 0x1266 JUMPI PUSH0 DUP1 REVERT JUMPDEST SWAP1 PUSH0 MSTORE PUSH1 0x20 PUSH0 KECCAK256 SWAP1 PUSH1 0x2 MUL ADD PUSH0 SWAP2 POP SWAP1 POP DUP1 PUSH0 ADD SLOAD SWAP1 DUP1 PUSH1 0x1 ADD SLOAD SWAP1 POP DUP3 JUMP JUMPDEST PUSH2 0x128E PUSH2 0x1604 JUMP JUMPDEST DUP1 ISZERO ISZERO PUSH1 0x7 PUSH0 SWAP1 SLOAD SWAP1 PUSH2 0x100 EXP SWAP1 DIV PUSH1 0xFF AND ISZERO ISZERO SUB PUSH2 0x12E2 JUMPI PUSH1 0x40 MLOAD PUSH32 0x8C379A000000000000000000000000000000000000000000000000000000000 DUP2 MSTORE PUSH1 0x4 ADD PUSH2 0x12D9 SWAP1 PUSH2 0x2151 JUMP JUMPDEST PUSH1 0x40 MLOAD DUP1 SWAP2 SUB SWAP1 REVERT JUMPDEST DUP1 PUSH1 0x7 PUSH0 PUSH2 0x100 EXP DUP2 SLOAD DUP2 PUSH1 0xFF MUL NOT AND SWAP1 DUP4 ISZERO ISZERO MUL OR SWAP1 SSTORE POP PUSH32 0xE02150678EB6624ED499094E86E8C4A31D3B37225E9A835C9193964D5EB1EEC7 PUSH1 0x7 PUSH0 SWAP1 SLOAD SWAP1 PUSH2 0x100 EXP SWAP1 DIV PUSH1 0xFF AND PUSH1 0x40 MLOAD PUSH2 0x1338 SWAP2 SWAP1 PUSH2 0x1B59 JUMP JUMPDEST PUSH1 0x40 MLOAD DUP1 SWAP2 SUB SWAP1 LOG1 POP JUMP JUMPDEST PUSH1 0x6 SLOAD DUP2 JUMP JUMPDEST PUSH2 0x1351 PUSH2 0x196D JUMP JUMPDEST PUSH1 0x7 PUSH0 SWAP1 SLOAD SWAP1 PUSH2 0x100 EXP SWAP1 DIV PUSH1 0xFF AND ISZERO PUSH2 0x1397 JUMPI PUSH1 0x40 MLOAD PUSH32 0x6F5FFB7E00000000000000000000000000000000000000000000000000000000 DUP2 MSTORE PUSH1 0x4 ADD PUSH1 0x40 MLOAD DUP1 SWAP2 SUB SWAP1 REVERT JUMPDEST PUSH0 PUSH1 0x1 DUP2 GT ISZERO PUSH2 0x13AA JUMPI PUSH2 0x13A9 PUSH2 0x1B99 JUMP JUMPDEST JUMPDEST PUSH1 0x2 PUSH0 SWAP1 SLOAD SWAP1 PUSH2 0x100 EXP SWAP1 DIV PUSH1 0xFF AND PUSH1 0x1 DUP2 GT ISZERO PUSH2 0x13CB JUMPI PUSH2 0x13CA PUSH2 0x1B99 JUMP JUMPDEST JUMPDEST EQ PUSH2 0x140B JUMPI PUSH1 0x40 MLOAD PUSH32 0xFCBFB2B100000000000000000000000000000000000000000000000000000000 DUP2 MSTORE PUSH1 0x4 ADD PUSH2 0x1402 SWAP1 PUSH2 0x21DF JUMP JUMPDEST PUSH1 0x40 MLOAD DUP1 SWAP2 SUB SWAP1 REVERT JUMPDEST PUSH1 0x6 SLOAD CALLVALUE LT ISZERO PUSH2 0x1456 JUMPI CALLVALUE PUSH1 0x6 SLOAD PUSH1 0x40 MLOAD PUSH32 0x45BE0A2600000000000000000000000000000000000000000000000000000000 DUP2 MSTORE PUSH1 0x4 ADD PUSH2 0x144D SWAP3 SWAP2 SWAP1 PUSH2 0x1B72 JUMP JUMPDEST PUSH1 0x40 MLOAD DUP1 SWAP2 SUB SWAP1 REVERT JUMPDEST PUSH0 PUSH1 0x5 PUSH0 CALLER PUSH20 0xFFFFFFFFFFFFFFFFFFFFFFFFFFFFFFFFFFFFFFFF AND PUSH20 0xFFFFFFFFFFFFFFFFFFFFFFFFFFFFFFFFFFFFFFFF AND DUP2 MSTORE PUSH1 0x20 ADD SWAP1 DUP2 MSTORE PUSH1 0x20 ADD PUSH0 KECCAK256 SWAP1 POP PUSH2 0x149F CALLER PUSH2 0x1099 JUMP JUMPDEST ISZERO PUSH2 0x14B2 JUMPI PUSH2 0x14AD CALLER PUSH2 0x168B JUMP JUMPDEST PUSH2 0x14CA JUMP JUMPDEST PUSH1 0x1 PUSH1 0x4 SLOAD PUSH2 0x14C1 SWAP2 SWAP1 PUSH2 0x1F51 JUMP JUMPDEST DUP2 PUSH1 0x1 ADD DUP2 SWAP1 SSTORE POP JUMPDEST CALLVALUE DUP2 PUSH0 ADD PUSH0 DUP3 DUP3 SLOAD PUSH2 0x14DC SWAP2 SWAP1 PUSH2 0x21FD JUMP JUMPDEST SWAP3 POP POP DUP2 SWAP1 SSTORE POP CALLVALUE PUSH1 0x3 PUSH1 0x4 SLOAD DUP2 SLOAD DUP2 LT PUSH2 0x14FA JUMPI PUSH2 0x14F9 PUSH2 0x1E22 JUMP JUMPDEST JUMPDEST SWAP1 PUSH0 MSTORE PUSH1 0x20 PUSH0 KECCAK256 SWAP1 PUSH1 0x2 MUL ADD PUSH0 ADD PUSH0 DUP3 DUP3 SLOAD PUSH2 0x1516 SWAP2 SWAP1 PUSH2 0x21FD JUMP JUMPDEST SWAP3 POP POP DUP2 SWAP1 SSTORE POP CALLER PUSH20 0xFFFFFFFFFFFFFFFFFFFFFFFFFFFFFFFFFFFFFFFF AND PUSH32 0x2F1A7FDA57B5FD5CB62770AEBD7FC9A8A0A834C5FF558EB7562F85F2B28C4375 CALLVALUE PUSH1 0x4 SLOAD PUSH1 0x40 MLOAD PUSH2 0x1567 SWAP3 SWAP2 SWAP1 PUSH2 0x1B72 JUMP JUMPDEST PUSH1 0x40 MLOAD DUP1 SWAP2 SUB SWAP1 LOG2 POP PUSH2 0x1578 PUSH2 0x19B3 JUMP JUMPDEST JUMP JUMPDEST PUSH1 0x4 SLOAD DUP2 JUMP JUMPDEST PUSH2 0x1588 PUSH2 0x1604 JUMP JUMPDEST PUSH0 PUSH20 0xFFFFFFFFFFFFFFFFFFFFFFFFFFFFFFFFFFFFFFFF AND DUP2 PUSH20 0xFFFFFFFFFFFFFFFFFFFFFFFFFFFFFFFFFFFFFFFF AND SUB PUSH2 0x15F8 JUMPI PUSH0 PUSH1 0x40 MLOAD PUSH32 0x1E4FBDF700000000000000000000000000000000000000000000000000000000 DUP2 MSTORE PUSH1 0x4 ADD PUSH2 0x15EF SWAP2 SWAP1 PUSH2 0x1B26 JUMP JUMPDEST PUSH1 0x40 MLOAD DUP1 SWAP2 SUB SWAP1 REVERT JUMPDEST PUSH2 0x1601 DUP2 PUSH2 0x18AC JUMP JUMPDEST POP JUMP JUMPDEST PUSH2 0x160C PUSH2 0x19BC JUMP JUMPDEST PUSH20 0xFFFFFFFFFFFFFFFFFFFFFFFFFFFFFFFFFFFFFFFF AND PUSH2 0x162A PUSH2 0xC36 JUMP JUMPDEST PUSH20 0xFFFFFFFFFFFFFFFFFFFFFFFFFFFFFFFFFFFFFFFF AND EQ PUSH2 0x1689 JUMPI PUSH2 0x164D PUSH2 0x19BC JUMP JUMPDEST PUSH1 0x40 MLOAD PUSH32 0x118CDAA700000000000000000000000000000000000000000000000000000000 DUP2 MSTORE PUSH1 0x4 ADD PUSH2 0x1680 SWAP2 SWAP1 PUSH2 0x1B26 JUMP JUMPDEST PUSH1 0x40 MLOAD DUP1 SWAP2 SUB SWAP1 REVERT JUMPDEST JUMP JUMPDEST PUSH0 PUSH1 0x5 PUSH0 DUP4 PUSH20 0xFFFFFFFFFFFFFFFFFFFFFFFFFFFFFFFFFFFFFFFF AND PUSH20 0xFFFFFFFFFFFFFFFFFFFFFFFFFFFFFFFFFFFFFFFF AND DUP2 MSTORE PUSH1 0x20 ADD SWAP1 DUP2 MSTORE PUSH1 0x20 ADD PUSH0 KECCAK256 SWAP1 POP PUSH0 DUP1 PUSH1 0x1 DUP4 PUSH1 0x1 ADD SLOAD PUSH2 0x16DE SWAP2 SWAP1 PUSH2 0x21FD JUMP JUMPDEST SWAP1 POP PUSH0 DUP1 PUSH1 0x1 DUP2 GT ISZERO PUSH2 0x16F4 JUMPI PUSH2 0x16F3 PUSH2 0x1B99 JUMP JUMPDEST JUMPDEST PUSH1 0x2 PUSH0 SWAP1 SLOAD SWAP1 PUSH2 0x100 EXP SWAP1 DIV PUSH1 0xFF AND PUSH1 0x1 DUP2 GT ISZERO PUSH2 0x1715 JUMPI PUSH2 0x1714 PUSH2 0x1B99 JUMP JUMPDEST JUMPDEST SUB PUSH2 0x1739 JUMPI PUSH1 0x1 PUSH1 0x4 SLOAD PUSH2 0x1729 SWAP2 SWAP1 PUSH2 0x1F51 JUMP JUMPDEST SWAP1 POP DUP1 DUP5 PUSH1 0x1 ADD DUP2 SWAP1 SSTORE POP PUSH2 0x1748 JUMP JUMPDEST PUSH1 0x4 SLOAD SWAP1 POP DUP1 DUP5 PUSH1 0x1 ADD DUP2 SWAP1 SSTORE POP JUMPDEST PUSH0 DUP3 SWAP1 POP JUMPDEST DUP2 DUP2 GT PUSH2 0x17B2 JUMPI PUSH0 PUSH1 0x3 DUP3 DUP2 SLOAD DUP2 LT PUSH2 0x1769 JUMPI PUSH2 0x1768 PUSH2 0x1E22 JUMP JUMPDEST JUMPDEST SWAP1 PUSH0 MSTORE PUSH1 0x20 PUSH0 KECCAK256 SWAP1 PUSH1 0x2 MUL ADD SWAP1 POP PUSH0 PUSH2 0x178D DUP8 PUSH0 ADD SLOAD DUP4 PUSH1 0x1 ADD SLOAD DUP5 PUSH0 ADD SLOAD PUSH2 0x19C3 JUMP JUMPDEST SWAP1 POP DUP1 DUP7 PUSH2 0x179B SWAP2 SWAP1 PUSH2 0x21FD JUMP JUMPDEST SWAP6 POP POP POP DUP1 DUP1 PUSH2 0x17AA SWAP1 PUSH2 0x1E7C JUMP JUMPDEST SWAP2 POP POP PUSH2 0x174D JUMP JUMPDEST POP PUSH0 CALLER PUSH20 0xFFFFFFFFFFFFFFFFFFFFFFFFFFFFFFFFFFFFFFFF AND DUP5 PUSH1 0x40 MLOAD PUSH2 0x17D8 SWAP1 PUSH2 0x1FB1 JUMP JUMPDEST PUSH0 PUSH1 0x40 MLOAD DUP1 DUP4 SUB DUP2 DUP6 DUP8 GAS CALL SWAP3 POP POP POP RETURNDATASIZE DUP1 PUSH0 DUP2 EQ PUSH2 0x1812 JUMPI PUSH1 0x40 MLOAD SWAP2 POP PUSH1 0x1F NOT PUSH1 0x3F RETURNDATASIZE ADD AND DUP3 ADD PUSH1 0x40 MSTORE RETURNDATASIZE DUP3 MSTORE RETURNDATASIZE PUSH0 PUSH1 0x20 DUP5 ADD RETURNDATACOPY PUSH2 0x1817 JUMP JUMPDEST PUSH1 0x60 SWAP2 POP JUMPDEST POP POP SWAP1 POP DUP1 PUSH2 0x1852 JUMPI PUSH1 0x40 MLOAD PUSH32 0x90B8EC1800000000000000000000000000000000000000000000000000000000 DUP2 MSTORE PUSH1 0x4 ADD PUSH1 0x40 MLOAD DUP1 SWAP2 SUB SWAP1 REVERT JUMPDEST CALLER PUSH20 0xFFFFFFFFFFFFFFFFFFFFFFFFFFFFFFFFFFFFFFFF AND PUSH32 0xF0A79BA53601E311DE7E03EA2C22463403A62C3D42CEC4B256A0F74E1259DAE5 DUP6 PUSH1 0x4 SLOAD PUSH1 0x40 MLOAD PUSH2 0x189C SWAP3 SWAP2 SWAP1 PUSH2 0x1B72 JUMP JUMPDEST PUSH1 0x40 MLOAD DUP1 SWAP2 SUB SWAP1 LOG2 POP POP POP POP POP POP JUMP JUMPDEST PUSH0 DUP1 PUSH0 SWAP1 SLOAD SWAP1 PUSH2 0x100 EXP SWAP1 DIV PUSH20 0xFFFFFFFFFFFFFFFFFFFFFFFFFFFFFFFFFFFFFFFF AND SWAP1 POP DUP2 PUSH0 DUP1 PUSH2 0x100 EXP DUP2 SLOAD DUP2 PUSH20 0xFFFFFFFFFFFFFFFFFFFFFFFFFFFFFFFFFFFFFFFF MUL NOT AND SWAP1 DUP4 PUSH20 0xFFFFFFFFFFFFFFFFFFFFFFFFFFFFFFFFFFFFFFFF AND MUL OR SWAP1 SSTORE POP DUP2 PUSH20 0xFFFFFFFFFFFFFFFFFFFFFFFFFFFFFFFFFFFFFFFF AND DUP2 PUSH20 0xFFFFFFFFFFFFFFFFFFFFFFFFFFFFFFFFFFFFFFFF AND PUSH32 0x8BE0079C531659141344CD1FD0A4F28419497F9722A3DAAFE3B4186F6B6457E0 PUSH1 0x40 MLOAD PUSH1 0x40 MLOAD DUP1 SWAP2 SUB SWAP1 LOG3 POP POP JUMP JUMPDEST PUSH1 0x2 PUSH1 0x1 SLOAD SUB PUSH2 0x19A9 JUMPI PUSH1 0x40 MLOAD PUSH32 0x3EE5AEB500000000000000000000000000000000000000000000000000000000 DUP2 MSTORE PUSH1 0x4 ADD PUSH1 0x40 MLOAD DUP1 SWAP2 SUB SWAP1 REVERT JUMPDEST PUSH1 0x2 PUSH1 0x1 DUP2 SWAP1 SSTORE POP JUMP JUMPDEST PUSH1 0x1 DUP1 DUP2 SWAP1 SSTORE POP JUMP JUMPDEST PUSH0 CALLER SWAP1 POP SWAP1 JUMP JUMPDEST PUSH0 DUP3 DUP5 MUL SWAP1 POP DUP2 DUP4 DUP6 DUP4 DIV EQ DUP6 ISZERO OR MUL PUSH2 0x19E4 JUMPI PUSH4 0xAD251C27 PUSH0 MSTORE PUSH1 0x4 PUSH1 0x1C REVERT JUMPDEST DUP2 DUP2 DIV SWAP1 POP SWAP4 SWAP3 POP POP POP JUMP JUMPDEST PUSH1 0x40 MLOAD DUP1 PUSH1 0x40 ADD PUSH1 0x40 MSTORE DUP1 PUSH0 DUP2 MSTORE PUSH1 0x20 ADD PUSH0 DUP2 MSTORE POP SWAP1 JUMP JUMPDEST PUSH0 DUP1 REVERT JUMPDEST PUSH0 DUP2 SWAP1 POP SWAP2 SWAP1 POP JUMP JUMPDEST PUSH2 0x1A1E DUP2 PUSH2 0x1A0C JUMP JUMPDEST DUP2 EQ PUSH2 0x1A28 JUMPI PUSH0 DUP1 REVERT JUMPDEST POP JUMP JUMPDEST PUSH0 DUP2 CALLDATALOAD SWAP1 POP PUSH2 0x1A39 DUP2 PUSH2 0x1A15 JUMP JUMPDEST SWAP3 SWAP2 POP POP JUMP JUMPDEST PUSH0 PUSH1 0x20 DUP3 DUP5 SUB SLT ISZERO PUSH2 0x1A54 JUMPI PUSH2 0x1A53 PUSH2 0x1A08 JUMP JUMPDEST JUMPDEST PUSH0 PUSH2 0x1A61 DUP5 DUP3 DUP6 ADD PUSH2 0x1A2B JUMP JUMPDEST SWAP2 POP POP SWAP3 SWAP2 POP POP JUMP JUMPDEST PUSH2 0x1A73 DUP2 PUSH2 0x1A0C JUMP JUMPDEST DUP3 MSTORE POP POP JUMP JUMPDEST PUSH0 PUSH1 0x20 DUP3 ADD SWAP1 POP PUSH2 0x1A8C PUSH0 DUP4 ADD DUP5 PUSH2 0x1A6A JUMP JUMPDEST SWAP3 SWAP2 POP POP JUMP JUMPDEST PUSH0 PUSH20 0xFFFFFFFFFFFFFFFFFFFFFFFFFFFFFFFFFFFFFFFF DUP3 AND SWAP1 POP SWAP2 SWAP1 POP JUMP JUMPDEST PUSH0 PUSH2 0x1ABB DUP3 PUSH2 0x1A92 JUMP JUMPDEST SWAP1 POP SWAP2 SWAP1 POP JUMP JUMPDEST PUSH2 0x1ACB DUP2 PUSH2 0x1AB1 JUMP JUMPDEST DUP2 EQ PUSH2 0x1AD5 JUMPI PUSH0 DUP1 REVERT JUMPDEST POP JUMP JUMPDEST PUSH0 DUP2 CALLDATALOAD SWAP1 POP PUSH2 0x1AE6 DUP2 PUSH2 0x1AC2 JUMP JUMPDEST SWAP3 SWAP2 POP POP JUMP JUMPDEST PUSH0 PUSH1 0x20 DUP3 DUP5 SUB SLT ISZERO PUSH2 0x1B01 JUMPI PUSH2 0x1B00 PUSH2 0x1A08 JUMP JUMPDEST JUMPDEST PUSH0 PUSH2 0x1B0E DUP5 DUP3 DUP6 ADD PUSH2 0x1AD8 JUMP JUMPDEST SWAP2 POP POP SWAP3 SWAP2 POP POP JUMP JUMPDEST PUSH2 0x1B20 DUP2 PUSH2 0x1AB1 JUMP JUMPDEST DUP3 MSTORE POP POP JUMP JUMPDEST PUSH0 PUSH1 0x20 DUP3 ADD SWAP1 POP PUSH2 0x1B39 PUSH0 DUP4 ADD DUP5 PUSH2 0x1B17 JUMP JUMPDEST SWAP3 SWAP2 POP POP JUMP JUMPDEST PUSH0 DUP2 ISZERO ISZERO SWAP1 POP SWAP2 SWAP1 POP JUMP JUMPDEST PUSH2 0x1B53 DUP2 PUSH2 0x1B3F JUMP JUMPDEST DUP3 MSTORE POP POP JUMP JUMPDEST PUSH0 PUSH1 0x20 DUP3 ADD SWAP1 POP PUSH2 0x1B6C PUSH0 DUP4 ADD DUP5 PUSH2 0x1B4A JUMP JUMPDEST SWAP3 SWAP2 POP POP JUMP JUMPDEST PUSH0 PUSH1 0x40 DUP3 ADD SWAP1 POP PUSH2 0x1B85 PUSH0 DUP4 ADD DUP6 PUSH2 0x1A6A JUMP JUMPDEST PUSH2 0x1B92 PUSH1 0x20 DUP4 ADD DUP5 PUSH2 0x1A6A JUMP JUMPDEST SWAP4 SWAP3 POP POP POP JUMP JUMPDEST PUSH32 0x4E487B7100000000000000000000000000000000000000000000000000000000 PUSH0 MSTORE PUSH1 0x21 PUSH1 0x4 MSTORE PUSH1 0x24 PUSH0 REVERT JUMPDEST PUSH1 0x2 DUP2 LT PUSH2 0x1BD7 JUMPI PUSH2 0x1BD6 PUSH2 0x1B99 JUMP JUMPDEST JUMPDEST POP JUMP JUMPDEST PUSH0 DUP2 SWAP1 POP PUSH2 0x1BE7 DUP3 PUSH2 0x1BC6 JUMP JUMPDEST SWAP2 SWAP1 POP JUMP JUMPDEST PUSH0 PUSH2 0x1BF6 DUP3 PUSH2 0x1BDA JUMP JUMPDEST SWAP1 POP SWAP2 SWAP1 POP JUMP JUMPDEST PUSH2 0x1C06 DUP2 PUSH2 0x1BEC JUMP JUMPDEST DUP3 MSTORE POP POP JUMP JUMPDEST PUSH0 PUSH1 0x20 DUP3 ADD SWAP1 POP PUSH2 0x1C1F PUSH0 DUP4 ADD DUP5 PUSH2 0x1BFD JUMP JUMPDEST SWAP3 SWAP2 POP POP JUMP JUMPDEST PUSH2 0x1C2E DUP2 PUSH2 0x1A0C JUMP JUMPDEST DUP3 MSTORE POP POP JUMP JUMPDEST PUSH1 0x40 DUP3 ADD PUSH0 DUP3 ADD MLOAD PUSH2 0x1C48 PUSH0 DUP6 ADD DUP3 PUSH2 0x1C25 JUMP JUMPDEST POP PUSH1 0x20 DUP3 ADD MLOAD PUSH2 0x1C5B PUSH1 0x20 DUP6 ADD DUP3 PUSH2 0x1C25 JUMP JUMPDEST POP POP POP POP JUMP JUMPDEST PUSH0 PUSH1 0x40 DUP3 ADD SWAP1 POP PUSH2 0x1C74 PUSH0 DUP4 ADD DUP5 PUSH2 0x1C34 JUMP JUMPDEST SWAP3 SWAP2 POP POP JUMP JUMPDEST PUSH2 0x1C83 DUP2 PUSH2 0x1B3F JUMP JUMPDEST DUP2 EQ PUSH2 0x1C8D JUMPI PUSH0 DUP1 REVERT JUMPDEST POP JUMP JUMPDEST PUSH0 DUP2 CALLDATALOAD SWAP1 POP PUSH2 0x1C9E DUP2 PUSH2 0x1C7A JUMP JUMPDEST SWAP3 SWAP2 POP POP JUMP JUMPDEST PUSH0 PUSH1 0x20 DUP3 DUP5 SUB SLT ISZERO PUSH2 0x1CB9 JUMPI PUSH2 0x1CB8 PUSH2 0x1A08 JUMP JUMPDEST JUMPDEST PUSH0 PUSH2 0x1CC6 DUP5 DUP3 DUP6 ADD PUSH2 0x1C90 JUMP JUMPDEST SWAP2 POP POP SWAP3 SWAP2 POP POP JUMP JUMPDEST PUSH0 PUSH1 0x40 DUP3 ADD SWAP1 POP PUSH2 0x1CE2 PUSH0 DUP4 ADD DUP6 PUSH2 0x1B17 JUMP JUMPDEST PUSH2 0x1CEF PUSH1 0x20 DUP4 ADD DUP5 PUSH2 0x1B17 JUMP JUMPDEST SWAP4 SWAP3 POP POP POP JUMP JUMPDEST PUSH0 DUP3 DUP3 MSTORE PUSH1 0x20 DUP3 ADD SWAP1 POP SWAP3 SWAP2 POP POP JUMP JUMPDEST PUSH32 0x454E442045504F43483A2063616E206F6E6C7920656E6420612072756E6E696E PUSH0 DUP3 ADD MSTORE PUSH32 0x672065706F636800000000000000000000000000000000000000000000000000 PUSH1 0x20 DUP3 ADD MSTORE POP JUMP JUMPDEST PUSH0 PUSH2 0x1D60 PUSH1 0x27 DUP4 PUSH2 0x1CF6 JUMP JUMPDEST SWAP2 POP PUSH2 0x1D6B DUP3 PUSH2 0x1D06 JUMP JUMPDEST PUSH1 0x40 DUP3 ADD SWAP1 POP SWAP2 SWAP1 POP JUMP JUMPDEST PUSH0 PUSH1 0x20 DUP3 ADD SWAP1 POP DUP2 DUP2 SUB PUSH0 DUP4 ADD MSTORE PUSH2 0x1D8D DUP2 PUSH2 0x1D54 JUMP JUMPDEST SWAP1 POP SWAP2 SWAP1 POP JUMP JUMPDEST PUSH32 0x454E442045504F43483A2072657761726473206D75737420626520616C6C6F63 PUSH0 DUP3 ADD MSTORE PUSH32 0x61746564206265666F726520656E64696E67207468652065706F636800000000 PUSH1 0x20 DUP3 ADD MSTORE POP JUMP JUMPDEST PUSH0 PUSH2 0x1DEE PUSH1 0x3C DUP4 PUSH2 0x1CF6 JUMP JUMPDEST SWAP2 POP PUSH2 0x1DF9 DUP3 PUSH2 0x1D94 JUMP JUMPDEST PUSH1 0x40 DUP3 ADD SWAP1 POP SWAP2 SWAP1 POP JUMP JUMPDEST PUSH0 PUSH1 0x20 DUP3 ADD SWAP1 POP DUP2 DUP2 SUB PUSH0 DUP4 ADD MSTORE PUSH2 0x1E1B DUP2 PUSH2 0x1DE2 JUMP JUMPDEST SWAP1 POP SWAP2 SWAP1 POP JUMP JUMPDEST PUSH32 0x4E487B7100000000000000000000000000000000000000000000000000000000 PUSH0 MSTORE PUSH1 0x32 PUSH1 0x4 MSTORE PUSH1 0x24 PUSH0 REVERT JUMPDEST PUSH32 0x4E487B7100000000000000000000000000000000000000000000000000000000 PUSH0 MSTORE PUSH1 0x11 PUSH1 0x4 MSTORE PUSH1 0x24 PUSH0 REVERT JUMPDEST PUSH0 PUSH2 0x1E86 DUP3 PUSH2 0x1A0C JUMP JUMPDEST SWAP2 POP PUSH32 0xFFFFFFFFFFFFFFFFFFFFFFFFFFFFFFFFFFFFFFFFFFFFFFFFFFFFFFFFFFFFFFFF DUP3 SUB PUSH2 0x1EB8 JUMPI PUSH2 0x1EB7 PUSH2 0x1E4F JUMP JUMPDEST JUMPDEST PUSH1 0x1 DUP3 ADD SWAP1 POP SWAP2 SWAP1 POP JUMP JUMPDEST PUSH32 0x455849543A206F6E6C7920616C6C6F77656420647572696E67206F70656E2070 PUSH0 DUP3 ADD MSTORE PUSH32 0x6861736500000000000000000000000000000000000000000000000000000000 PUSH1 0x20 DUP3 ADD MSTORE POP JUMP JUMPDEST PUSH0 PUSH2 0x1F1D PUSH1 0x24 DUP4 PUSH2 0x1CF6 JUMP JUMPDEST SWAP2 POP PUSH2 0x1F28 DUP3 PUSH2 0x1EC3 JUMP JUMPDEST PUSH1 0x40 DUP3 ADD SWAP1 POP SWAP2 SWAP1 POP JUMP JUMPDEST PUSH0 PUSH1 0x20 DUP3 ADD SWAP1 POP DUP2 DUP2 SUB PUSH0 DUP4 ADD MSTORE PUSH2 0x1F4A DUP2 PUSH2 0x1F11 JUMP JUMPDEST SWAP1 POP SWAP2 SWAP1 POP JUMP JUMPDEST PUSH0 PUSH2 0x1F5B DUP3 PUSH2 0x1A0C JUMP JUMPDEST SWAP2 POP PUSH2 0x1F66 DUP4 PUSH2 0x1A0C JUMP JUMPDEST SWAP3 POP DUP3 DUP3 SUB SWAP1 POP DUP2 DUP2 GT ISZERO PUSH2 0x1F7E JUMPI PUSH2 0x1F7D PUSH2 0x1E4F JUMP JUMPDEST JUMPDEST SWAP3 SWAP2 POP POP JUMP JUMPDEST PUSH0 DUP2 SWAP1 POP SWAP3 SWAP2 POP POP JUMP JUMPDEST POP JUMP JUMPDEST PUSH0 PUSH2 0x1F9C PUSH0 DUP4 PUSH2 0x1F84 JUMP JUMPDEST SWAP2 POP PUSH2 0x1FA7 DUP3 PUSH2 0x1F8E JUMP JUMPDEST PUSH0 DUP3 ADD SWAP1 POP SWAP2 SWAP1 POP JUMP JUMPDEST PUSH0 PUSH2 0x1FBB DUP3 PUSH2 0x1F91 JUMP JUMPDEST SWAP2 POP DUP2 SWAP1 POP SWAP2 SWAP1 POP JUMP JUMPDEST PUSH32 0x52554E2045504F43483A2063616E206F6E6C792073746172742072756E6E696E PUSH0 DUP3 ADD MSTORE PUSH32 0x672066726F6D206F70656E207068617365000000000000000000000000000000 PUSH1 0x20 DUP3 ADD MSTORE POP JUMP JUMPDEST PUSH0 PUSH2 0x201F PUSH1 0x31 DUP4 PUSH2 0x1CF6 JUMP JUMPDEST SWAP2 POP PUSH2 0x202A DUP3 PUSH2 0x1FC5 JUMP JUMPDEST PUSH1 0x40 DUP3 ADD SWAP1 POP SWAP2 SWAP1 POP JUMP JUMPDEST PUSH0 PUSH1 0x20 DUP3 ADD SWAP1 POP DUP2 DUP2 SUB PUSH0 DUP4 ADD MSTORE PUSH2 0x204C DUP2 PUSH2 0x2013 JUMP JUMPDEST SWAP1 POP SWAP2 SWAP1 POP JUMP JUMPDEST PUSH32 0x414C4C4F4341544520524557415244533A206D75737420626520696E2072756E PUSH0 DUP3 ADD MSTORE PUSH32 0x6E696E6720706861736500000000000000000000000000000000000000000000 PUSH1 0x20 DUP3 ADD MSTORE POP JUMP JUMPDEST PUSH0 PUSH2 0x20AD PUSH1 0x2A DUP4 PUSH2 0x1CF6 JUMP JUMPDEST SWAP2 POP PUSH2 0x20B8 DUP3 PUSH2 0x2053 JUMP JUMPDEST PUSH1 0x40 DUP3 ADD SWAP1 POP SWAP2 SWAP1 POP JUMP JUMPDEST PUSH0 PUSH1 0x20 DUP3 ADD SWAP1 POP DUP2 DUP2 SUB PUSH0 DUP4 ADD MSTORE PUSH2 0x20DA DUP2 PUSH2 0x20A1 JUMP JUMPDEST SWAP1 POP SWAP2 SWAP1 POP JUMP JUMPDEST PUSH32 0x436F6E747261637420616C726561647920696E20726571756573746564207374 PUSH0 DUP3 ADD MSTORE PUSH32 0x6174650000000000000000000000000000000000000000000000000000000000 PUSH1 0x20 DUP3 ADD MSTORE POP JUMP JUMPDEST PUSH0 PUSH2 0x213B PUSH1 0x23 DUP4 PUSH2 0x1CF6 JUMP JUMPDEST SWAP2 POP PUSH2 0x2146 DUP3 PUSH2 0x20E1 JUMP JUMPDEST PUSH1 0x40 DUP3 ADD SWAP1 POP SWAP2 SWAP1 POP JUMP JUMPDEST PUSH0 PUSH1 0x20 DUP3 ADD SWAP1 POP DUP2 DUP2 SUB PUSH0 DUP4 ADD MSTORE PUSH2 0x2168 DUP2 PUSH2 0x212F JUMP JUMPDEST SWAP1 POP SWAP2 SWAP1 POP JUMP JUMPDEST PUSH32 0x454E5445523A206F6E6C7920616C6C6F77656420647572696E67206F70656E20 PUSH0 DUP3 ADD MSTORE PUSH32 0x7068617365000000000000000000000000000000000000000000000000000000 PUSH1 0x20 DUP3 ADD MSTORE POP JUMP JUMPDEST PUSH0 PUSH2 0x21C9 PUSH1 0x25 DUP4 PUSH2 0x1CF6 JUMP JUMPDEST SWAP2 POP PUSH2 0x21D4 DUP3 PUSH2 0x216F JUMP JUMPDEST PUSH1 0x40 DUP3 ADD SWAP1 POP SWAP2 SWAP1 POP JUMP JUMPDEST PUSH0 PUSH1 0x20 DUP3 ADD SWAP1 POP DUP2 DUP2 SUB PUSH0 DUP4 ADD MSTORE PUSH2 0x21F6 DUP2 PUSH2 0x21BD JUMP JUMPDEST SWAP1 POP SWAP2 SWAP1 POP JUMP JUMPDEST PUSH0 PUSH2 0x2207 DUP3 PUSH2 0x1A0C JUMP JUMPDEST SWAP2 POP PUSH2 0x2212 DUP4 PUSH2 0x1A0C JUMP JUMPDEST SWAP3 POP DUP3 DUP3 ADD SWAP1 POP DUP1 DUP3 GT ISZERO PUSH2 0x222A JUMPI PUSH2 0x2229 PUSH2 0x1E4F JUMP JUMPDEST JUMPDEST SWAP3 SWAP2 POP POP JUMP INVALID LOG2 PUSH5 0x6970667358 0x22 SLT KECCAK256 PUSH9 0x84236A3824305813AE LOG3 0xEE PUSH8 0x2159098F32A517A1 0xB1 EXTCODECOPY PUSH17 0xB13348F13F7E57DE64736F6C634300081A STOP CALLER "
				},
				"gasEstimates": {
					"creation": {
						"codeDepositCost": "1761200",
						"executionCost": "infinite",
						"totalCost": "infinite"
					},
					"external": {
						"allocateRewards()": "infinite",
						"claimRewards()": "infinite",
						"claimableRewards()": "2562",
						"currentEpochId()": "2535",
						"currentEpochStatus()": "2621",
						"enter()": "infinite",
						"epochs(uint256)": "infinite",
						"exit(uint256)": "infinite",
						"fundWallet()": "2582",
						"getCurrentEpoch()": "infinite",
						"getEpochCount()": "2486",
						"hasClaimableRewards(address)": "infinite",
						"lockFundsAndRunCurrentEpoch()": "infinite",
						"lockOrUnlockContract(bool)": "infinite",
						"mininmumStake()": "2491",
						"owner()": "2626",
						"renounceOwnership()": "infinite",
						"setFundWallet(address)": "infinite",
						"setMinimumStake(uint256)": "infinite",
						"terminateCurrentAndOpenNextEpoch()": "infinite",
						"transferOwnership(address)": "infinite",
						"userStakes(address)": "infinite"
					},
					"internal": {
						"_claimRewards(address)": "infinite"
					}
				},
				"methodIdentifiers": {
					"allocateRewards()": "a3bc61a5",
					"claimRewards()": "372500ab",
					"claimableRewards()": "6c003a9b",
					"currentEpochId()": "eacdc5ff",
					"currentEpochStatus()": "a72b05bc",
					"enter()": "e97dcb62",
					"epochs(uint256)": "c6b61e4c",
					"exit(uint256)": "7f8661a1",
					"fundWallet()": "664a1ad6",
					"getCurrentEpoch()": "b97dd9e2",
					"getEpochCount()": "2387d32c",
					"hasClaimableRewards(address)": "b6ff4934",
					"lockFundsAndRunCurrentEpoch()": "a17d97f3",
					"lockOrUnlockContract(bool)": "cd237a41",
					"mininmumStake()": "e6c47bc5",
					"owner()": "8da5cb5b",
					"renounceOwnership()": "715018a6",
					"setFundWallet(address)": "55ce3b9a",
					"setMinimumStake(uint256)": "233e9903",
					"terminateCurrentAndOpenNextEpoch()": "5f75659f",
					"transferOwnership(address)": "f2fde38b",
					"userStakes(address)": "8da7ad23"
				}
			},
			"storageLayout": {
				"storage": [
					{
						"astId": 8,
						"contract": "src/Vault.sol:Vault",
						"label": "_owner",
						"offset": 0,
						"slot": "0",
						"type": "t_address"
					},
					{
						"astId": 188,
						"contract": "src/Vault.sol:Vault",
						"label": "_status",
						"offset": 0,
						"slot": "1",
						"type": "t_uint256"
					},
					{
						"astId": 1891,
						"contract": "src/Vault.sol:Vault",
						"label": "currentEpochStatus",
						"offset": 0,
						"slot": "2",
						"type": "t_enum(EpochStatus)1887"
					},
					{
						"astId": 1894,
						"contract": "src/Vault.sol:Vault",
						"label": "fundWallet",
						"offset": 1,
						"slot": "2",
						"type": "t_address"
					},
					{
						"astId": 1897,
						"contract": "src/Vault.sol:Vault",
						"label": "claimableRewards",
						"offset": 21,
						"slot": "2",
						"type": "t_bool"
					},
					{
						"astId": 1902,
						"contract": "src/Vault.sol:Vault",
						"label": "epochs",
						"offset": 0,
						"slot": "3",
						"type": "t_array(t_struct(Epoch)1877_storage)dyn_storage"
					},
					{
						"astId": 1905,
						"contract": "src/Vault.sol:Vault",
						"label": "currentEpochId",
						"offset": 0,
						"slot": "4",
						"type": "t_uint256"
					},
					{
						"astId": 1911,
						"contract": "src/Vault.sol:Vault",
						"label": "userStakes",
						"offset": 0,
						"slot": "5",
						"type": "t_mapping(t_address,t_struct(UserStake)1883_storage)"
					},
					{
						"astId": 1914,
						"contract": "src/Vault.sol:Vault",
						"label": "mininmumStake",
						"offset": 0,
						"slot": "6",
						"type": "t_uint256"
					},
					{
						"astId": 1916,
						"contract": "src/Vault.sol:Vault",
						"label": "locked",
						"offset": 0,
						"slot": "7",
						"type": "t_bool"
					}
				],
				"types": {
					"t_address": {
						"encoding": "inplace",
						"label": "address",
						"numberOfBytes": "20"
					},
					"t_array(t_struct(Epoch)1877_storage)dyn_storage": {
						"base": "t_struct(Epoch)1877_storage",
						"encoding": "dynamic_array",
						"label": "struct Vault.Epoch[]",
						"numberOfBytes": "32"
					},
					"t_bool": {
						"encoding": "inplace",
						"label": "bool",
						"numberOfBytes": "1"
					},
					"t_enum(EpochStatus)1887": {
						"encoding": "inplace",
						"label": "enum Vault.EpochStatus",
						"numberOfBytes": "1"
					},
					"t_mapping(t_address,t_struct(UserStake)1883_storage)": {
						"encoding": "mapping",
						"key": "t_address",
						"label": "mapping(address => struct Vault.UserStake)",
						"numberOfBytes": "32",
						"value": "t_struct(UserStake)1883_storage"
					},
					"t_struct(Epoch)1877_storage": {
						"encoding": "inplace",
						"label": "struct Vault.Epoch",
						"members": [
							{
								"astId": 1874,
								"contract": "src/Vault.sol:Vault",
								"label": "totalValueLocked",
								"offset": 0,
								"slot": "0",
								"type": "t_uint256"
							},
							{
								"astId": 1876,
								"contract": "src/Vault.sol:Vault",
								"label": "totalEpochRewards",
								"offset": 0,
								"slot": "1",
								"type": "t_uint256"
							}
						],
						"numberOfBytes": "64"
					},
					"t_struct(UserStake)1883_storage": {
						"encoding": "inplace",
						"label": "struct Vault.UserStake",
						"members": [
							{
								"astId": 1880,
								"contract": "src/Vault.sol:Vault",
								"label": "amount",
								"offset": 0,
								"slot": "0",
								"type": "t_uint256"
							},
							{
								"astId": 1882,
								"contract": "src/Vault.sol:Vault",
								"label": "lastEpochClaimedAt",
								"offset": 0,
								"slot": "1",
								"type": "t_uint256"
							}
						],
						"numberOfBytes": "64"
					},
					"t_uint256": {
						"encoding": "inplace",
						"label": "uint256",
						"numberOfBytes": "32"
					}
				}
			},
			"userdoc": {
				"kind": "user",
				"methods": {
					"allocateRewards()": {
						"notice": "Allocates rewards for the current epoch"
					},
					"claimRewards()": {
						"notice": "Allows a user to claim their rewards"
					},
					"claimableRewards()": {
						"notice": "Indicates if rewards are currently claimable"
					},
					"constructor": {
						"notice": "Initializes the Vault contract"
					},
					"currentEpochId()": {
						"notice": "The ID of the current epoch"
					},
					"currentEpochStatus()": {
						"notice": "The current status of the epoch"
					},
					"enter()": {
						"notice": "Allows a user to enter the vault by staking ETH"
					},
					"epochs(uint256)": {
						"notice": "Array of all epochs"
					},
					"exit(uint256)": {
						"notice": "Allows a user to exit the vault by unstaking ETH"
					},
					"fundWallet()": {
						"notice": "The address where funds are transferred during epoch execution"
					},
					"getCurrentEpoch()": {
						"notice": "Retrieves the current epoch data"
					},
					"getEpochCount()": {
						"notice": "Retrieves the total number of epochs"
					},
					"hasClaimableRewards(address)": {
						"notice": "Checks if a user has claimable rewards"
					},
					"lockFundsAndRunCurrentEpoch()": {
						"notice": "Locks funds and starts running the current epoch"
					},
					"mininmumStake()": {
						"notice": "The minimum stake amount required"
					},
					"setFundWallet(address)": {
						"notice": "Sets a new fund wallet address"
					},
					"setMinimumStake(uint256)": {
						"notice": "Sets a new minimum stake amount"
					},
					"terminateCurrentAndOpenNextEpoch()": {
						"notice": "Terminates the current epoch and opens the next one"
					},
					"userStakes(address)": {
						"notice": "Mapping of user addresses to their stakes"
					}
				},
				"notice": "This contract implements a ETH staking and reward distribution system operating in epochs.         Users can provide funds that will be used for derivatives (short put and call options) operations, and in return,         they will receive yield proportionally to their stake.",
				"version": 1
			}
		}
	}
}