{
    "contractName": "FailedTransfer",
    "abi": [
        {
            "anonymous": false,
            "inputs": [
                {
                    "indexed": false,
                    "internalType": "address",
                    "name": "sender",
                    "type": "address"
                },
                {
                    "indexed": false,
                    "internalType": "uint256",
                    "name": "amount",
                    "type": "uint256"
                },
                {
                    "indexed": false,
                    "internalType": "bytes",
                    "name": "data",
                    "type": "bytes"
                }
            ],
            "name": "Fallback",
            "type": "event"
        },
        {
            "anonymous": false,
            "inputs": [
                {
                    "indexed": false,
                    "internalType": "address",
                    "name": "sender",
                    "type": "address"
                },
                {
                    "indexed": false,
                    "internalType": "uint256",
                    "name": "amount",
                    "type": "uint256"
                }
            ],
            "name": "Received",
            "type": "event"
        },
        {
            "stateMutability": "payable",
            "type": "fallback"
        },
        {
            "inputs": [],
            "name": "claimRewards",
            "outputs": [],
            "stateMutability": "nonpayable",
            "type": "function"
        },
        {
            "inputs": [],
            "name": "enter",
            "outputs": [],
            "stateMutability": "payable",
            "type": "function"
        },
        {
            "inputs": [
                {
                    "internalType": "uint256",
                    "name": "_amount",
                    "type": "uint256"
                }
            ],
            "name": "exit",
            "outputs": [],
            "stateMutability": "nonpayable",
            "type": "function"
        },
        {
            "inputs": [],
            "name": "vault",
            "outputs": [
                {
                    "internalType": "contract Vault",
                    "name": "",
                    "type": "address"
                }
            ],
            "stateMutability": "view",
            "type": "function"
        },
        {
            "stateMutability": "payable",
            "type": "receive"
        }
    ],
    "bytecode": "60806040525f80546001600160a01b031916735615deb798bb3e4dfa0139dfa1b3d433cc23b72f1790553480156033575f80fd5b506102c1806100415f395ff3fe608060405260043610610042575f3560e01c8063372500ab146100b95780637f8661a1146100cf578063e97dcb62146100ee578063fbfa77cf146100f657610084565b3661008457604080513381523460208201527f88a5966d370b9919b20f3e2c13ff65706f196a4e32cc2c12bf57088f8852587491015b60405180910390a15f80fd5b7fbe3af509de9752a08c7e43ea96710453910924db30ec9ad1583c8c7df29323dd33345f36604051610078949392919061022d565b3480156100c4575f80fd5b506100cd610130565b005b3480156100da575f80fd5b506100cd6100e9366004610274565b610187565b6100cd6101e2565b348015610101575f80fd5b505f54610114906001600160a01b031681565b6040516001600160a01b03909116815260200160405180910390f35b5f80546040805163372500ab60e01b815290516001600160a01b039092169263372500ab9260048084019382900301818387803b15801561016f575f80fd5b505af1158015610181573d5f803e3d5ffd5b50505050565b5f54604051637f8661a160e01b8152600481018390526001600160a01b0390911690637f8661a1906024015f604051808303815f87803b1580156101c9575f80fd5b505af11580156101db573d5f803e3d5ffd5b5050505050565b5f8054906101000a90046001600160a01b03166001600160a01b031663e97dcb62346040518263ffffffff1660e01b81526004015f604051808303818588803b1580156101c9575f80fd5b6001600160a01b0385168152602081018490526060604082018190528101829052818360808301375f818301608090810191909152601f909201601f191601019392505050565b5f60208284031215610284575f80fd5b503591905056fea2646970667358221220b37abc42ba3a68296bca21eb3df60ddcc93a707426050f8d810e8332b376c8d764736f6c634300081a0033",
    "sourcePath": "/home/torof/desk/portfolio/vault_ledgity/test/FailedTransfer.sol",
    "compiler": {
        "name": "solc",
        "version": "0.8.26+commit.8a97fa7a"
    },
    "functionHashes": {
        "claimRewards()": "372500ab",
        "enter()": "e97dcb62",
        "exit(uint256)": "7f8661a1",
        "vault()": "fbfa77cf"
    },
    "gasEstimates": {
        "creation": {
            "codeDepositCost": "141000",
            "executionCost": "24423",
            "totalCost": "165423"
        },
        "external": {
            "": "infinite",
            "claimRewards()": "infinite",
            "enter()": "infinite",
            "exit(uint256)": "infinite",
            "vault()": "2367"
        }
    }
}