{
    "contractName": "Vault",
    "abi": [
        {
            "inputs": [
                {
                    "internalType": "address",
                    "name": "_fundWallet",
                    "type": "address"
                }
            ],
            "stateMutability": "nonpayable",
            "type": "constructor"
        },
        {
            "inputs": [],
            "name": "AmountMustBeGreaterThanZero",
            "type": "error"
        },
        {
            "inputs": [
                {
                    "internalType": "uint256",
                    "name": "requested",
                    "type": "uint256"
                },
                {
                    "internalType": "uint256",
                    "name": "available",
                    "type": "uint256"
                }
            ],
            "name": "InsufficientBalance",
            "type": "error"
        },
        {
            "inputs": [
                {
                    "internalType": "uint256",
                    "name": "provided",
                    "type": "uint256"
                },
                {
                    "internalType": "uint256",
                    "name": "required",
                    "type": "uint256"
                }
            ],
            "name": "InsufficientFundsReturned",
            "type": "error"
        },
        {
            "inputs": [
                {
                    "internalType": "uint256",
                    "name": "provided",
                    "type": "uint256"
                },
                {
                    "internalType": "uint256",
                    "name": "required",
                    "type": "uint256"
                }
            ],
            "name": "InsufficientStake",
            "type": "error"
        },
        {
            "inputs": [],
            "name": "NoActiveStake",
            "type": "error"
        },
        {
            "inputs": [],
            "name": "NoRewardToClaim",
            "type": "error"
        },
        {
            "inputs": [],
            "name": "NoRewardsToAllocate",
            "type": "error"
        },
        {
            "inputs": [],
            "name": "NoStakeToExit",
            "type": "error"
        },
        {
            "inputs": [],
            "name": "NotWithdrawable",
            "type": "error"
        },
        {
            "inputs": [
                {
                    "internalType": "address",
                    "name": "owner",
                    "type": "address"
                }
            ],
            "name": "OwnableInvalidOwner",
            "type": "error"
        },
        {
            "inputs": [
                {
                    "internalType": "address",
                    "name": "account",
                    "type": "address"
                }
            ],
            "name": "OwnableUnauthorizedAccount",
            "type": "error"
        },
        {
            "inputs": [],
            "name": "RewardsAlreadyAllocated",
            "type": "error"
        },
        {
            "inputs": [],
            "name": "TransferFailed",
            "type": "error"
        },
        {
            "inputs": [],
            "name": "UnClaimableRewards",
            "type": "error"
        },
        {
            "inputs": [
                {
                    "internalType": "string",
                    "name": "",
                    "type": "string"
                }
            ],
            "name": "WrongPhase",
            "type": "error"
        },
        {
            "anonymous": false,
            "inputs": [
                {
                    "indexed": true,
                    "internalType": "uint256",
                    "name": "epochNumber",
                    "type": "uint256"
                },
                {
                    "indexed": false,
                    "internalType": "uint256",
                    "name": "timestamp",
                    "type": "uint256"
                }
            ],
            "name": "EpochOpened",
            "type": "event"
        },
        {
            "anonymous": false,
            "inputs": [
                {
                    "indexed": true,
                    "internalType": "uint256",
                    "name": "epochNumber",
                    "type": "uint256"
                },
                {
                    "indexed": false,
                    "internalType": "uint256",
                    "name": "timestamp",
                    "type": "uint256"
                },
                {
                    "indexed": false,
                    "internalType": "uint256",
                    "name": "totalValueLocked",
                    "type": "uint256"
                }
            ],
            "name": "EpochRunning",
            "type": "event"
        },
        {
            "anonymous": false,
            "inputs": [
                {
                    "indexed": true,
                    "internalType": "uint256",
                    "name": "epochNumber",
                    "type": "uint256"
                },
                {
                    "indexed": false,
                    "internalType": "uint256",
                    "name": "timestamp",
                    "type": "uint256"
                }
            ],
            "name": "EpochTerminated",
            "type": "event"
        },
        {
            "anonymous": false,
            "inputs": [
                {
                    "indexed": true,
                    "internalType": "address",
                    "name": "previousOwner",
                    "type": "address"
                },
                {
                    "indexed": true,
                    "internalType": "address",
                    "name": "newOwner",
                    "type": "address"
                }
            ],
            "name": "OwnershipTransferred",
            "type": "event"
        },
        {
            "anonymous": false,
            "inputs": [
                {
                    "indexed": true,
                    "internalType": "uint256",
                    "name": "epochNumber",
                    "type": "uint256"
                },
                {
                    "indexed": false,
                    "internalType": "uint256",
                    "name": "rewardAmount",
                    "type": "uint256"
                }
            ],
            "name": "RewardsAllocated",
            "type": "event"
        },
        {
            "anonymous": false,
            "inputs": [
                {
                    "indexed": true,
                    "internalType": "address",
                    "name": "user",
                    "type": "address"
                },
                {
                    "indexed": false,
                    "internalType": "uint256",
                    "name": "amount",
                    "type": "uint256"
                },
                {
                    "indexed": false,
                    "internalType": "uint256",
                    "name": "epochNumber",
                    "type": "uint256"
                }
            ],
            "name": "UserDeposit",
            "type": "event"
        },
        {
            "anonymous": false,
            "inputs": [
                {
                    "indexed": true,
                    "internalType": "address",
                    "name": "user",
                    "type": "address"
                },
                {
                    "indexed": false,
                    "internalType": "uint256",
                    "name": "amount",
                    "type": "uint256"
                },
                {
                    "indexed": false,
                    "internalType": "uint256",
                    "name": "epochNumber",
                    "type": "uint256"
                }
            ],
            "name": "UserRewardClaim",
            "type": "event"
        },
        {
            "anonymous": false,
            "inputs": [
                {
                    "indexed": true,
                    "internalType": "address",
                    "name": "user",
                    "type": "address"
                },
                {
                    "indexed": false,
                    "internalType": "uint256",
                    "name": "amount",
                    "type": "uint256"
                },
                {
                    "indexed": false,
                    "internalType": "uint256",
                    "name": "epochNumber",
                    "type": "uint256"
                }
            ],
            "name": "UserWithdraw",
            "type": "event"
        },
        {
            "inputs": [],
            "name": "allocateRewards",
            "outputs": [],
            "stateMutability": "payable",
            "type": "function"
        },
        {
            "inputs": [],
            "name": "claimRewards",
            "outputs": [],
            "stateMutability": "nonpayable",
            "type": "function"
        },
        {
            "inputs": [],
            "name": "claimableRewards",
            "outputs": [
                {
                    "internalType": "bool",
                    "name": "",
                    "type": "bool"
                }
            ],
            "stateMutability": "view",
            "type": "function"
        },
        {
            "inputs": [],
            "name": "currentEpochId",
            "outputs": [
                {
                    "internalType": "uint256",
                    "name": "",
                    "type": "uint256"
                }
            ],
            "stateMutability": "view",
            "type": "function"
        },
        {
            "inputs": [],
            "name": "currentEpochStatus",
            "outputs": [
                {
                    "internalType": "enum Vault.EpochStatus",
                    "name": "",
                    "type": "uint8"
                }
            ],
            "stateMutability": "view",
            "type": "function"
        },
        {
            "inputs": [],
            "name": "enter",
            "outputs": [],
            "stateMutability": "payable",
            "type": "function"
        },
        {
            "inputs": [
                {
                    "internalType": "uint256",
                    "name": "",
                    "type": "uint256"
                }
            ],
            "name": "epochs",
            "outputs": [
                {
                    "internalType": "uint256",
                    "name": "totalValueLocked",
                    "type": "uint256"
                },
                {
                    "internalType": "uint256",
                    "name": "totalRewards",
                    "type": "uint256"
                }
            ],
            "stateMutability": "view",
            "type": "function"
        },
        {
            "inputs": [
                {
                    "internalType": "uint256",
                    "name": "_amount",
                    "type": "uint256"
                }
            ],
            "name": "exit",
            "outputs": [],
            "stateMutability": "nonpayable",
            "type": "function"
        },
        {
            "inputs": [],
            "name": "fundWallet",
            "outputs": [
                {
                    "internalType": "address",
                    "name": "",
                    "type": "address"
                }
            ],
            "stateMutability": "view",
            "type": "function"
        },
        {
            "inputs": [],
            "name": "getCurrentEpoch",
            "outputs": [
                {
                    "components": [
                        {
                            "internalType": "uint256",
                            "name": "totalValueLocked",
                            "type": "uint256"
                        },
                        {
                            "internalType": "uint256",
                            "name": "totalRewards",
                            "type": "uint256"
                        }
                    ],
                    "internalType": "struct Vault.Epoch",
                    "name": "",
                    "type": "tuple"
                }
            ],
            "stateMutability": "view",
            "type": "function"
        },
        {
            "inputs": [],
            "name": "getEpochCount",
            "outputs": [
                {
                    "internalType": "uint256",
                    "name": "",
                    "type": "uint256"
                }
            ],
            "stateMutability": "view",
            "type": "function"
        },
        {
            "inputs": [
                {
                    "internalType": "address",
                    "name": "_user",
                    "type": "address"
                }
            ],
            "name": "hasClaimableRewards",
            "outputs": [
                {
                    "internalType": "bool",
                    "name": "",
                    "type": "bool"
                }
            ],
            "stateMutability": "view",
            "type": "function"
        },
        {
            "inputs": [],
            "name": "lockFundsAndRunCurrentEpoch",
            "outputs": [],
            "stateMutability": "nonpayable",
            "type": "function"
        },
        {
            "inputs": [],
            "name": "mininmumStake",
            "outputs": [
                {
                    "internalType": "uint256",
                    "name": "",
                    "type": "uint256"
                }
            ],
            "stateMutability": "view",
            "type": "function"
        },
        {
            "inputs": [],
            "name": "owner",
            "outputs": [
                {
                    "internalType": "address",
                    "name": "",
                    "type": "address"
                }
            ],
            "stateMutability": "view",
            "type": "function"
        },
        {
            "inputs": [],
            "name": "renounceOwnership",
            "outputs": [],
            "stateMutability": "nonpayable",
            "type": "function"
        },
        {
            "inputs": [
                {
                    "internalType": "address",
                    "name": "_fundWallet",
                    "type": "address"
                }
            ],
            "name": "setFundWallet",
            "outputs": [],
            "stateMutability": "nonpayable",
            "type": "function"
        },
        {
            "inputs": [
                {
                    "internalType": "uint256",
                    "name": "_mininmumStake",
                    "type": "uint256"
                }
            ],
            "name": "setMinimumStake",
            "outputs": [],
            "stateMutability": "nonpayable",
            "type": "function"
        },
        {
            "inputs": [],
            "name": "terminateCurrentAndOpenNextEpoch",
            "outputs": [],
            "stateMutability": "payable",
            "type": "function"
        },
        {
            "inputs": [
                {
                    "internalType": "address",
                    "name": "newOwner",
                    "type": "address"
                }
            ],
            "name": "transferOwnership",
            "outputs": [],
            "stateMutability": "nonpayable",
            "type": "function"
        },
        {
            "inputs": [
                {
                    "internalType": "address",
                    "name": "",
                    "type": "address"
                }
            ],
            "name": "userStakes",
            "outputs": [
                {
                    "internalType": "uint256",
                    "name": "amount",
                    "type": "uint256"
                },
                {
                    "internalType": "uint256",
                    "name": "lastEpochClaimedAt",
                    "type": "uint256"
                }
            ],
            "stateMutability": "view",
            "type": "function"
        }
    ],
    "bytecode": "608060405234801561000f575f80fd5b5060405161140d38038061140d83398101604081905261002e916101bb565b338061005357604051631e4fbdf760e01b81525f600482015260240160405180910390fd5b61005c8161016c565b506040805180820182525f8082526020808301828152600280546001808201835582865295519082027f405787fa12a823e0f2b7631cc41b3ba8828b3321ca811111fa75cd3aa3bb5ace8181019290925592517f405787fa12a823e0f2b7631cc41b3ba8828b3321ca811111fa75cd3aa3bb5acf93840155865180880188528581528085018681528354808901855584885291519190930291820155905191015582546001600160a01b0386166001600160a01b0319909116178355815460ff60a01b1916909155600382905566b1a2bc2ec50000600555915142815290917f3011a2cb7316f75847dafe7f596d9728f2bcb38e662b785f36bc7ea76e4e7142910160405180910390a2506101e8565b5f80546001600160a01b038381166001600160a01b0319831681178455604051919092169283917f8be0079c531659141344cd1fd0a4f28419497f9722a3daafe3b4186f6b6457e09190a35050565b5f602082840312156101cb575f80fd5b81516001600160a01b03811681146101e1575f80fd5b9392505050565b611218806101f55f395ff3fe608060405260043610610126575f3560e01c80638da7ad23116100a8578063b97dd9e21161006d578063b97dd9e21461030d578063c6b61e4c1461033c578063e6c47bc51461035b578063e97dcb6214610370578063eacdc5ff14610378578063f2fde38b1461038d575f80fd5b80638da7ad231461025f578063a17d97f3146102a6578063a3bc61a5146102ba578063a72b05bc146102c2578063b6ff4934146102ee575f80fd5b8063664a1ad6116100ee578063664a1ad6146101a95780636c003a9b146101e0578063715018a6146102105780637f8661a1146102245780638da5cb5b14610243575f80fd5b8063233e99031461012a5780632387d32c1461014b578063372500ab1461016e57806355ce3b9a146101825780635f75659f146101a1575b5f80fd5b348015610135575f80fd5b506101496101443660046110f8565b6103ac565b005b348015610156575f80fd5b506002545b6040519081526020015b60405180910390f35b348015610179575f80fd5b506101496103b9565b34801561018d575f80fd5b5061014961019c36600461110f565b610413565b61014961043d565b3480156101b4575f80fd5b506001546101c8906001600160a01b031681565b6040516001600160a01b039091168152602001610165565b3480156101eb575f80fd5b5060015461020090600160a01b900460ff1681565b6040519015158152602001610165565b34801561021b575f80fd5b506101496106ee565b34801561022f575f80fd5b5061014961023e3660046110f8565b6106ff565b34801561024e575f80fd5b505f546001600160a01b03166101c8565b34801561026a575f80fd5b5061029161027936600461110f565b60046020525f90815260409020805460019091015482565b60408051928352602083019190915201610165565b3480156102b1575f80fd5b506101496108ea565b610149610a68565b3480156102cd575f80fd5b505f546102e190600160a01b900460ff1681565b6040516101659190611150565b3480156102f9575f80fd5b5061020061030836600461110f565b610bb3565b348015610318575f80fd5b50610321610c90565b60408051825181526020928301519281019290925201610165565b348015610347575f80fd5b506102916103563660046110f8565b610ce7565b348015610366575f80fd5b5061015b60055481565b610149610d13565b348015610383575f80fd5b5061015b60035481565b348015610398575f80fd5b506101496103a736600461110f565b610e89565b6103b4610ec6565b600555565b600154600160a01b900460ff166103e25760405162f4f7c560e11b815260040160405180910390fd5b6103eb33610bb3565b61040857604051635aa9184d60e01b815260040160405180910390fd5b61041133610ef2565b565b61041b610ec6565b600180546001600160a01b0319166001600160a01b0392909216919091179055565b610445610ec6565b60015f54600160a01b900460ff1660018111156104645761046461113c565b146104c75760405163fcbfb2b160e01b815260206004820152602760248201527f454e442045504f43483a2063616e206f6e6c7920656e6420612072756e6e696e6044820152660ce40cae0dec6d60cb1b60648201526084015b60405180910390fd5b600154600160a01b900460ff166105475760405163fcbfb2b160e01b815260206004820152603c60248201527f454e442045504f43483a2072657761726473206d75737420626520616c6c6f6360448201527f61746564206265666f726520656e64696e67207468652065706f63680000000060648201526084016104be565b60026003548154811061055c5761055c611176565b905f5260205f2090600202015f01543410156105ba573460026003548154811061058857610588611176565b5f91825260209091206002909102015460405163082e13a160e31b8152600481019290925260248201526044016104be565b5f6002600354815481106105d0576105d0611176565b905f5260205f20906002020190505f815f015490506003547f64570abbb448406f773ac3a0c62178ed95f93e5465f64860899859bbe490fb424260405161061991815260200190565b60405180910390a260038054905f6106308361119e565b90915550506040805180820182528281525f60208083018281526002805460018101825581855294517f405787fa12a823e0f2b7631cc41b3ba8828b3321ca811111fa75cd3aa3bb5ace9590910294850155517f405787fa12a823e0f2b7631cc41b3ba8828b3321ca811111fa75cd3aa3bb5acf90930192909255805460ff60a01b1916905560035491514281527f3011a2cb7316f75847dafe7f596d9728f2bcb38e662b785f36bc7ea76e4e714291015b60405180910390a25050565b6106f6610ec6565b6104115f611084565b5f8054600160a01b900460ff16600181111561071d5761071d61113c565b146107775760405163fcbfb2b160e01b8152602060048201526024808201527f455849543a206f6e6c7920616c6c6f77656420647572696e67206f70656e20706044820152636861736560e01b60648201526084016104be565b335f90815260046020526040902080548211156107b457805460405163cf47918160e01b81526104be918491600401918252602082015260400190565b815f036107d457604051635e85ae7360e01b815260040160405180910390fd5b6107dd33610bb3565b156107eb576107eb33610ef2565b81815f015f8282546107fd91906111b6565b925050819055508160026003548154811061081a5761081a611176565b905f5260205f2090600202015f015f82825461083691906111b6565b90915550506040515f90339084908381818185875af1925050503d805f811461087a576040519150601f19603f3d011682016040523d82523d5f602084013e61087f565b606091505b50509050806108a1576040516312171d8360e31b815260040160405180910390fd5b60035460405133917fd2263e970e3552b8e14c013f4d6af030894ef3ae6f025607042368db047a4418916108dd91878252602082015260400190565b60405180910390a2505050565b6108f2610ec6565b5f8054600160a01b900460ff1660018111156109105761091061113c565b146109785760405163fcbfb2b160e01b815260206004820152603160248201527f52554e2045504f43483a2063616e206f6e6c792073746172742072756e6e696e604482015270672066726f6d206f70656e20706861736560781b60648201526084016104be565b5f8054600160a01b60ff60a01b199182161782556001805490911690556003546002805490919081106109ad576109ad611176565b5f9182526020822060029190910201546001546040519193506001600160a01b03169083908381818185875af1925050503d805f8114610a08576040519150601f19603f3d011682016040523d82523d5f602084013e610a0d565b606091505b5050905080610a2f576040516312171d8360e31b815260040160405180910390fd5b60035460408051428152602081018590527f52c5abe9e004b5b25ca01e93c14fc741f8f6f73683e7299cbb65a18b8c6296a291016106e2565b610a70610ec6565b60015f54600160a01b900460ff166001811115610a8f57610a8f61113c565b14610af05760405163fcbfb2b160e01b815260206004820152602a60248201527f414c4c4f4341544520524557415244533a206d75737420626520696e2072756e6044820152696e696e6720706861736560b01b60648201526084016104be565b345f03610b1057604051634891ab2560e11b815260040160405180910390fd5b5f600260035481548110610b2657610b26611176565b905f5260205f209060020201905080600101545f14610b5857604051630ec94ce560e41b815260040160405180910390fd5b346001808301829055805460ff60a01b1916600160a01b17905560035460405190917ff9ecaf62687e41c2eb3b9f3bb3e5562b198859fda05aed70e3cc7e3a060e8c9d91610ba891815260200190565b60405180910390a250565b6001600160a01b0381165f908152600460205260408120548103610bd857505f919050565b6003546001148015610bf45750600154600160a01b900460ff16155b15610c0057505f919050565b5f8054600160a01b900460ff166001811115610c1e57610c1e61113c565b148015610c5257506001600354610c3591906111b6565b6001600160a01b0383165f90815260046020526040902060010154145b15610c5e57505f919050565b6003546001600160a01b0383165f9081526004602052604090206001015403610c8857505f919050565b506001919050565b604080518082019091525f8082526020820152600260035481548110610cb857610cb8611176565b905f5260205f2090600202016040518060400160405290815f8201548152602001600182015481525050905090565b60028181548110610cf6575f80fd5b5f9182526020909120600290910201805460019091015490915082565b5f8054600160a01b900460ff166001811115610d3157610d3161113c565b14610d8d5760405163fcbfb2b160e01b815260206004820152602560248201527f454e5445523a206f6e6c7920616c6c6f77656420647572696e67206f70656e20604482015264706861736560d81b60648201526084016104be565b600554341015610dbd576005546040516322df051360e11b815234600482015260248101919091526044016104be565b335f81815260046020526040902090610dd590610bb3565b15610de857610de333610ef2565b610dfd565b6001600354610df791906111b6565b60018201555b34815f015f828254610e0f91906111cf565b9250508190555034600260035481548110610e2c57610e2c611176565b905f5260205f2090600202015f015f828254610e4891906111cf565b909155505060035460405133917f2f1a7fda57b5fd5cb62770aebd7fc9a8a0a834c5ff558eb7562f85f2b28c437591610ba891348252602082015260400190565b610e91610ec6565b6001600160a01b038116610eba57604051631e4fbdf760e01b81525f60048201526024016104be565b610ec381611084565b50565b5f546001600160a01b031633146104115760405163118cdaa760e01b81523360048201526024016104be565b6001600160a01b0381165f9081526004602052604081206001808201549192918291610f1e91906111cf565b90505f805f54600160a01b900460ff166001811115610f3f57610f3f61113c565b03610f61576001600354610f5391906111b6565b600185018190559050610f6d565b50600354600184018190555b815b818111610fd1575f60028281548110610f8a57610f8a611176565b905f5260205f20906002020190505f610fae875f01548360010154845f01546110d3565b9050610fba81876111cf565b955050508080610fc99061119e565b915050610f6f565b506040515f90339085908381818185875af1925050503d805f8114611011576040519150601f19603f3d011682016040523d82523d5f602084013e611016565b606091505b5050905080611038576040516312171d8360e31b815260040160405180910390fd5b60035460405133917ff0a79ba53601e311de7e03ea2c22463403a62c3d42cec4b256a0f74e1259dae59161107491888252602082015260400190565b60405180910390a2505050505050565b5f80546001600160a01b038381166001600160a01b0319831681178455604051919092169283917f8be0079c531659141344cd1fd0a4f28419497f9722a3daafe3b4186f6b6457e09190a35050565b828202831584820484141782026110f15763ad251c275f526004601cfd5b0492915050565b5f60208284031215611108575f80fd5b5035919050565b5f6020828403121561111f575f80fd5b81356001600160a01b0381168114611135575f80fd5b9392505050565b634e487b7160e01b5f52602160045260245ffd5b602081016002831061117057634e487b7160e01b5f52602160045260245ffd5b91905290565b634e487b7160e01b5f52603260045260245ffd5b634e487b7160e01b5f52601160045260245ffd5b5f600182016111af576111af61118a565b5060010190565b818103818111156111c9576111c961118a565b92915050565b808201808211156111c9576111c961118a56fea2646970667358221220914ad1c38979f3e60c6bf642b22c3084d57a55b720f536cf0eed172bfffe8d4b64736f6c634300081a0033",
    "sourcePath": "/home/torof/desk/portfolio/vault_ledgity/src/Vault.sol",
    "compiler": {
        "name": "solc",
        "version": "0.8.26+commit.8a97fa7a"
    },
    "functionHashes": {
        "allocateRewards()": "a3bc61a5",
        "claimRewards()": "372500ab",
        "claimableRewards()": "6c003a9b",
        "currentEpochId()": "eacdc5ff",
        "currentEpochStatus()": "a72b05bc",
        "enter()": "e97dcb62",
        "epochs(uint256)": "c6b61e4c",
        "exit(uint256)": "7f8661a1",
        "fundWallet()": "664a1ad6",
        "getCurrentEpoch()": "b97dd9e2",
        "getEpochCount()": "2387d32c",
        "hasClaimableRewards(address)": "b6ff4934",
        "lockFundsAndRunCurrentEpoch()": "a17d97f3",
        "mininmumStake()": "e6c47bc5",
        "owner()": "8da5cb5b",
        "renounceOwnership()": "715018a6",
        "setFundWallet(address)": "55ce3b9a",
        "setMinimumStake(uint256)": "233e9903",
        "terminateCurrentAndOpenNextEpoch()": "5f75659f",
        "transferOwnership(address)": "f2fde38b",
        "userStakes(address)": "8da7ad23"
    },
    "gasEstimates": {
        "creation": {
            "codeDepositCost": "926400",
            "executionCost": "infinite",
            "totalCost": "infinite"
        },
        "external": {
            "allocateRewards()": "60879",
            "claimRewards()": "infinite",
            "claimableRewards()": "2371",
            "currentEpochId()": "2393",
            "currentEpochStatus()": "2455",
            "enter()": "infinite",
            "epochs(uint256)": "6772",
            "exit(uint256)": "infinite",
            "fundWallet()": "2359",
            "getCurrentEpoch()": "8892",
            "getEpochCount()": "2315",
            "hasClaimableRewards(address)": "17828",
            "lockFundsAndRunCurrentEpoch()": "infinite",
            "mininmumStake()": "2349",
            "owner()": "2440",
            "renounceOwnership()": "infinite",
            "setFundWallet(address)": "26787",
            "setMinimumStake(uint256)": "24509",
            "terminateCurrentAndOpenNextEpoch()": "126567",
            "transferOwnership(address)": "28426",
            "userStakes(address)": "4643"
        },
        "internal": {
            "_claimRewards(address)": "infinite"
        }
    }
}