{
    "contractName": "Vault",
    "abi": [
        {
            "inputs": [],
            "stateMutability": "nonpayable",
            "type": "constructor"
        },
        {
            "inputs": [
                {
                    "internalType": "string",
                    "name": "",
                    "type": "string"
                }
            ],
            "name": "IsLocked",
            "type": "error"
        },
        {
            "inputs": [
                {
                    "internalType": "string",
                    "name": "",
                    "type": "string"
                }
            ],
            "name": "IsUnlocked",
            "type": "error"
        },
        {
            "inputs": [],
            "name": "NoRewardToClaim",
            "type": "error"
        },
        {
            "inputs": [],
            "name": "NoStakeToExit",
            "type": "error"
        },
        {
            "inputs": [],
            "name": "NotWithdrawable",
            "type": "error"
        },
        {
            "inputs": [
                {
                    "internalType": "address",
                    "name": "owner",
                    "type": "address"
                }
            ],
            "name": "OwnableInvalidOwner",
            "type": "error"
        },
        {
            "inputs": [
                {
                    "internalType": "address",
                    "name": "account",
                    "type": "address"
                }
            ],
            "name": "OwnableUnauthorizedAccount",
            "type": "error"
        },
        {
            "inputs": [],
            "name": "TransferFailed",
            "type": "error"
        },
        {
            "inputs": [],
            "name": "UnClaimableRewards",
            "type": "error"
        },
        {
            "anonymous": false,
            "inputs": [
                {
                    "indexed": true,
                    "internalType": "address",
                    "name": "previousOwner",
                    "type": "address"
                },
                {
                    "indexed": true,
                    "internalType": "address",
                    "name": "newOwner",
                    "type": "address"
                }
            ],
            "name": "OwnershipTransferred",
            "type": "event"
        },
        {
            "inputs": [
                {
                    "internalType": "address",
                    "name": "_user",
                    "type": "address"
                }
            ],
            "name": "_claimRewards",
            "outputs": [],
            "stateMutability": "nonpayable",
            "type": "function"
        },
        {
            "inputs": [],
            "name": "claimRewards",
            "outputs": [],
            "stateMutability": "nonpayable",
            "type": "function"
        },
        {
            "inputs": [],
            "name": "claimableRewards",
            "outputs": [
                {
                    "internalType": "bool",
                    "name": "",
                    "type": "bool"
                }
            ],
            "stateMutability": "view",
            "type": "function"
        },
        {
            "inputs": [],
            "name": "closeCurrentAndOpenNewEpoch",
            "outputs": [],
            "stateMutability": "nonpayable",
            "type": "function"
        },
        {
            "inputs": [],
            "name": "enter",
            "outputs": [],
            "stateMutability": "payable",
            "type": "function"
        },
        {
            "inputs": [
                {
                    "internalType": "uint256",
                    "name": "",
                    "type": "uint256"
                }
            ],
            "name": "epochs",
            "outputs": [
                {
                    "internalType": "uint48",
                    "name": "startedAt",
                    "type": "uint48"
                },
                {
                    "internalType": "uint48",
                    "name": "endedAt",
                    "type": "uint48"
                },
                {
                    "internalType": "uint48",
                    "name": "rewardPercentage",
                    "type": "uint48"
                },
                {
                    "internalType": "uint256",
                    "name": "totalValueLocked",
                    "type": "uint256"
                },
                {
                    "internalType": "uint256",
                    "name": "totalRewards",
                    "type": "uint256"
                }
            ],
            "stateMutability": "view",
            "type": "function"
        },
        {
            "inputs": [
                {
                    "internalType": "uint256",
                    "name": "_amount",
                    "type": "uint256"
                }
            ],
            "name": "exit",
            "outputs": [],
            "stateMutability": "nonpayable",
            "type": "function"
        },
        {
            "inputs": [],
            "name": "lockFundsAndStartEpoch",
            "outputs": [],
            "stateMutability": "nonpayable",
            "type": "function"
        },
        {
            "inputs": [],
            "name": "locked",
            "outputs": [
                {
                    "internalType": "bool",
                    "name": "",
                    "type": "bool"
                }
            ],
            "stateMutability": "view",
            "type": "function"
        },
        {
            "inputs": [
                {
                    "internalType": "uint256",
                    "name": "_rewardPercentage",
                    "type": "uint256"
                }
            ],
            "name": "openRewardsAndWithdrawInvestment",
            "outputs": [],
            "stateMutability": "payable",
            "type": "function"
        },
        {
            "inputs": [],
            "name": "owner",
            "outputs": [
                {
                    "internalType": "address",
                    "name": "",
                    "type": "address"
                }
            ],
            "stateMutability": "view",
            "type": "function"
        },
        {
            "inputs": [],
            "name": "renounceOwnership",
            "outputs": [],
            "stateMutability": "nonpayable",
            "type": "function"
        },
        {
            "inputs": [
                {
                    "internalType": "address",
                    "name": "newOwner",
                    "type": "address"
                }
            ],
            "name": "transferOwnership",
            "outputs": [],
            "stateMutability": "nonpayable",
            "type": "function"
        },
        {
            "inputs": [
                {
                    "internalType": "address",
                    "name": "",
                    "type": "address"
                }
            ],
            "name": "userLastClaimAt",
            "outputs": [
                {
                    "internalType": "uint256",
                    "name": "epochNumber",
                    "type": "uint256"
                }
            ],
            "stateMutability": "view",
            "type": "function"
        },
        {
            "inputs": [
                {
                    "internalType": "address",
                    "name": "",
                    "type": "address"
                },
                {
                    "internalType": "uint256",
                    "name": "",
                    "type": "uint256"
                }
            ],
            "name": "userStakes",
            "outputs": [
                {
                    "internalType": "uint256",
                    "name": "epochIn",
                    "type": "uint256"
                },
                {
                    "internalType": "uint256",
                    "name": "epochOut",
                    "type": "uint256"
                },
                {
                    "internalType": "uint256",
                    "name": "stake",
                    "type": "uint256"
                }
            ],
            "stateMutability": "view",
            "type": "function"
        }
    ],
    "bytecode": "608060405234801561000f575f80fd5b50338061003557604051631e4fbdf760e01b81525f600482015260240160405180910390fd5b61003e81610146565b506040805160a0810182525f8082526020820181815292820181815260608301828152608084018381526001805480820182559452935160039093027fb10e2d527612073b26eecdfd717e6a320cf44b4afac2b0732d9fcbe2b7fa0cf6810180549651935165ffffffffffff9081166c010000000000000000000000000265ffffffffffff60601b199582166601000000000000026001600160601b03199099169690911695909517969096179290921692909217909355517fb10e2d527612073b26eecdfd717e6a320cf44b4afac2b0732d9fcbe2b7fa0cf7830155517fb10e2d527612073b26eecdfd717e6a320cf44b4afac2b0732d9fcbe2b7fa0cf890910155610195565b5f80546001600160a01b038381166001600160a01b0319831681178455604051919092169283917f8be0079c531659141344cd1fd0a4f28419497f9722a3daafe3b4186f6b6457e09190a35050565b611058806101a25f395ff3fe6080604052600436106100e4575f3560e01c806386115a2311610087578063c6b61e4c11610057578063c6b61e4c14610258578063cf309012146102af578063e97dcb62146102ce578063f2fde38b146102d6575f80fd5b806386115a23146101d15780638da5cb5b146101e4578063b5d5b5fa1461020a578063bacda17714610244575f80fd5b806340080139116100c257806340080139146101505780636c003a9b1461016f578063715018a61461019e5780637f8661a1146101b2575f80fd5b8063177b3d09146100e8578063372500ab14610126578063375a74d31461013c575b5f80fd5b3480156100f3575f80fd5b50610113610102366004610f21565b60026020525f908152604090205481565b6040519081526020015b60405180910390f35b348015610131575f80fd5b5061013a6102f5565b005b348015610147575f80fd5b5061013a610300565b34801561015b575f80fd5b5061013a61016a366004610f21565b61036a565b34801561017a575f80fd5b505f5461018e90600160a81b900460ff1681565b604051901515815260200161011d565b3480156101a9575f80fd5b5061013a610498565b3480156101bd575f80fd5b5061013a6101cc366004610f41565b6104a9565b61013a6101df366004610f41565b610680565b3480156101ef575f80fd5b505f546040516001600160a01b03909116815260200161011d565b348015610215575f80fd5b50610229610224366004610f58565b6107ee565b6040805193845260208401929092529082015260600161011d565b34801561024f575f80fd5b5061013a61082c565b348015610263575f80fd5b50610277610272366004610f41565b610a5e565b6040805165ffffffffffff9687168152948616602086015292909416918301919091526060820152608081019190915260a00161011d565b3480156102ba575f80fd5b505f5461018e90600160a01b900460ff1681565b61013a610aad565b3480156102e1575f80fd5b5061013a6102f0366004610f21565b610c99565b6102fe3361036a565b565b610308610cd6565b5f805461ffff60a01b1916600160a01b1790556001805443919061032d908290610f94565b8154811061033d5761033d610fad565b5f9182526020909120600390910201805465ffffffffffff191665ffffffffffff92909216919091179055565b5f54600160a81b900460ff166103925760405162f4f7c560e11b815260040160405180910390fd5b6001600160a01b0381165f9081526003602052604090205415806103d95750600180546103bf9190610f94565b6001600160a01b0382165f90815260026020526040902054145b156103f757604051635aa9184d60e01b815260040160405180910390fd5b5f61040182610d02565b6001805491925061041191610f94565b6001600160a01b0383165f8181526002602052604080822093909355915183905b5f6040518083038185875af1925050503d805f811461046c576040519150601f19603f3d011682016040523d82523d5f602084013e610471565b606091505b5050905080610493576040516312171d8360e31b815260040160405180910390fd5b505050565b6104a0610cd6565b6102fe5f610e28565b5f54600160a01b900460ff16156105085760405163401853a960e11b815260206004820152601d60248201527f455849543a2063616e6e6f742065786974207768656e206c6f636b656400000060448201526064015b60405180910390fd5b335f908152600360205260408120805461052490600190610f94565b8154811061053457610534610fad565b5f91825260208083206040805160608101825260039485029092018054835260018101548385015260020154828201523385529290915291205490915015806105805750602081015115155b1561059e57604051635dae480560e01b815260040160405180910390fd5b600180546020808401829052335f908152600390915260409081902081516060810190925292909182916105d191610f94565b81526020015f81526020018484604001516105ec9190610f94565b90528154600181810184555f938452602093849020835160039093020191825592820151818401556040909101516002909101558054839190610630908290610f94565b8154811061064057610640610fad565b905f5260205f2090600302016001015f82825461065d9190610f94565b9091555061066c90503361036a565b5f336001600160a01b031683604051610432565b610688610cd6565b5f54600160a01b900460ff166106f25760405163401853a960e11b815260206004820152602860248201527f57495448445241573a2063616e6e6f74207769746864726177207768696c65206044820152671d5b9b1bd8dad95960c21b60648201526084016104ff565b60018054610701908290610f94565b8154811061071157610711610fad565b5f918252602090912060039091020154600160601b900465ffffffffffff161561074e576040516328c5214b60e01b815260040160405180910390fd5b61075a81612710610fc1565b60018054610769908290610f94565b8154811061077957610779610fad565b5f91825260208220600390910201805465ffffffffffff93909316600160601b0265ffffffffffff60601b1990931692909217909155805460ff60a81b1916600160a81b1781556107c8610e77565b90505f6107dc5f546001600160a01b031690565b6001600160a01b031682604051610432565b6003602052815f5260405f208181548110610807575f80fd5b5f91825260209091206003909102018054600182015460029092015490935090915083565b5f54600160a01b900460ff16156108965760405163401853a960e11b815260206004820152602760248201527f454e442045504f43483a2063616e6e6f7420626520656e646564207768696c65604482015266081b1bd8dad95960ca1b60648201526084016104ff565b600180545f91906108a8908290610f94565b815481106108b8576108b8610fad565b5f91825260208083206040805160a0810182526003909402909101805465ffffffffffff8082168652600160301b8204811694860194909452600160601b90049092169083015260018082015460608401526002909101546080830152805491935090610926908290610f94565b8154811061093657610936610fad565b5f91825260208083206001600393840290910181015465ffffffffffff438116978401979097526040805160a0810182528681529384018681529084018681526060850192835260808501878152845480860186559488529451939095027fb10e2d527612073b26eecdfd717e6a320cf44b4afac2b0732d9fcbe2b7fa0cf681018054925196518a16600160601b0265ffffffffffff60601b19978b16600160301b026bffffffffffffffffffffffff1990941695909a1694909417919091179490941696909617905593517fb10e2d527612073b26eecdfd717e6a320cf44b4afac2b0732d9fcbe2b7fa0cf782015592517fb10e2d527612073b26eecdfd717e6a320cf44b4afac2b0732d9fcbe2b7fa0cf89093019290925550805460ff60a01b19169055565b60018181548110610a6d575f80fd5b5f91825260209091206003909102018054600182015460029092015465ffffffffffff8083169450600160301b8304811693600160601b90930416919085565b5f54600160a01b900460ff1615610b075760405163401853a960e11b815260206004820152601f60248201527f454e5445523a2063616e6e6f7420656e746572207768656e206c6f636b65640060448201526064016104ff565b600180545f91610b1691610f94565b335f90815260026020526040902054909150349015801590610b725750335f9081526003602052604090208054610b4f90600190610f94565b81548110610b5f57610b5f610fad565b905f5260205f209060030201600101545f145b15610c0a57610b803361036a565b335f9081526003602052604090208054839190610b9f90600190610f94565b81548110610baf57610baf610fad565b5f9182526020808320600392830201600190810194909455338352526040902080549091610bdc91610f94565b81548110610bec57610bec610fad565b905f5260205f2090600302016002015481610c079190610fd8565b90505b335f90815260036020818152604080842081516060810183528781528084018681529281018781528254600181810185559388529490962090519390940290930191825551818301559151600290920191909155805434919084908110610c7357610c73610fad565b905f5260205f2090600302016001015f828254610c909190610fd8565b90915550505050565b610ca1610cd6565b6001600160a01b038116610cca57604051631e4fbdf760e01b81525f60048201526024016104ff565b610cd381610e28565b50565b5f546001600160a01b031633146102fe5760405163118cdaa760e01b81523360048201526024016104ff565b6001600160a01b0381165f9081526003602052604081208054829190610d2a90600190610f94565b81548110610d3a57610d3a610fad565b905f5260205f2090600302015f015490505b60018054610d5a9190610f94565b8111610e225760018181548110610d7357610d73610fad565b5f91825260208083206003928302016001908101546001600160a01b0388168552929091526040909220805491929091610dad9190610f94565b81548110610dbd57610dbd610fad565b905f5260205f2090600302016002015460018381548110610de057610de0610fad565b905f5260205f20906003020160020154610dfa9190610fc1565b610e049190610feb565b610e0e9083610fd8565b915080610e1a8161100a565b915050610d4c565b50919050565b5f80546001600160a01b038381166001600160a01b0319831681178455604051919092169283917f8be0079c531659141344cd1fd0a4f28419497f9722a3daafe3b4186f6b6457e09190a35050565b600180545f91620f424091610e8d908290610f94565b81548110610e9d57610e9d610fad565b5f91825260209091206003909102015460018054600160601b90920465ffffffffffff1691610ecd908290610f94565b81548110610edd57610edd610fad565b905f5260205f20906003020160010154610ef79190610fc1565b610f019190610feb565b905090565b80356001600160a01b0381168114610f1c575f80fd5b919050565b5f60208284031215610f31575f80fd5b610f3a82610f06565b9392505050565b5f60208284031215610f51575f80fd5b5035919050565b5f8060408385031215610f69575f80fd5b610f7283610f06565b946020939093013593505050565b634e487b7160e01b5f52601160045260245ffd5b81810381811115610fa757610fa7610f80565b92915050565b634e487b7160e01b5f52603260045260245ffd5b8082028115828204841417610fa757610fa7610f80565b80820180821115610fa757610fa7610f80565b5f8261100557634e487b7160e01b5f52601260045260245ffd5b500490565b5f6001820161101b5761101b610f80565b506001019056fea26469706673582212200024a3a99f4fdff62b72828f71d4f57fbcbca200188040c1432d130f6dd6cc5164736f6c634300081a0033",
    "sourcePath": "/home/torof/desk/portfolio/vault_ledgity/src/Vault.sol",
    "compiler": {
        "name": "solc",
        "version": "0.8.26+commit.8a97fa7a"
    },
    "functionHashes": {
        "_claimRewards(address)": "40080139",
        "claimRewards()": "372500ab",
        "claimableRewards()": "6c003a9b",
        "closeCurrentAndOpenNewEpoch()": "bacda177",
        "enter()": "e97dcb62",
        "epochs(uint256)": "c6b61e4c",
        "exit(uint256)": "7f8661a1",
        "lockFundsAndStartEpoch()": "375a74d3",
        "locked()": "cf309012",
        "openRewardsAndWithdrawInvestment(uint256)": "86115a23",
        "owner()": "8da5cb5b",
        "renounceOwnership()": "715018a6",
        "transferOwnership(address)": "f2fde38b",
        "userLastClaimAt(address)": "177b3d09",
        "userStakes(address,uint256)": "b5d5b5fa"
    },
    "gasEstimates": {
        "creation": {
            "codeDepositCost": "836800",
            "executionCost": "85474",
            "totalCost": "922274"
        },
        "external": {
            "_claimRewards(address)": "infinite",
            "claimRewards()": "infinite",
            "claimableRewards()": "2370",
            "closeCurrentAndOpenNewEpoch()": "infinite",
            "enter()": "infinite",
            "epochs(uint256)": "9010",
            "exit(uint256)": "infinite",
            "lockFundsAndStartEpoch()": "55239",
            "locked()": "2369",
            "openRewardsAndWithdrawInvestment(uint256)": "infinite",
            "owner()": "2344",
            "renounceOwnership()": "infinite",
            "transferOwnership(address)": "28417",
            "userLastClaimAt(address)": "2529",
            "userStakes(address,uint256)": "9093"
        },
        "internal": {
            "_calculateRewards(address)": "infinite",
            "_calculateWithdrawable()": "infinite"
        }
    }
}